{
	"n0simple.sol": {
		"SimpleEmployment": {
			"abi": [
				{
					"inputs": [
						{
							"internalType": "address",
							"name": "employee_",
							"type": "address"
						},
						{
							"internalType": "address",
							"name": "employer_",
							"type": "address"
						},
						{
							"internalType": "uint256",
							"name": "paySchedule_",
							"type": "uint256"
						},
						{
							"internalType": "uint256",
							"name": "payAmount_",
							"type": "uint256"
						}
					],
					"stateMutability": "nonpayable",
					"type": "constructor"
				},
				{
					"inputs": [],
					"name": "FnF",
					"outputs": [],
					"stateMutability": "payable",
					"type": "function"
				},
				{
					"inputs": [
						{
							"internalType": "address[]",
							"name": "newApprovers",
							"type": "address[]"
						}
					],
					"name": "addApprovers",
					"outputs": [],
					"stateMutability": "nonpayable",
					"type": "function"
				},
				{
					"inputs": [],
					"name": "approvePayment",
					"outputs": [],
					"stateMutability": "payable",
					"type": "function"
				},
				{
					"inputs": [],
					"name": "approveResign",
					"outputs": [],
					"stateMutability": "nonpayable",
					"type": "function"
				},
				{
					"inputs": [],
					"name": "contractDataHash",
					"outputs": [
						{
							"internalType": "bytes32",
							"name": "",
							"type": "bytes32"
						}
					],
					"stateMutability": "view",
					"type": "function"
				},
				{
					"inputs": [],
					"name": "destroy",
					"outputs": [],
					"stateMutability": "nonpayable",
					"type": "function"
				},
				{
					"inputs": [
						{
							"internalType": "uint8",
							"name": "_v",
							"type": "uint8"
						},
						{
							"internalType": "bytes32",
							"name": "_r",
							"type": "bytes32"
						},
						{
							"internalType": "bytes32",
							"name": "_s",
							"type": "bytes32"
						}
					],
					"name": "employeeSign",
					"outputs": [
						{
							"internalType": "bool",
							"name": "",
							"type": "bool"
						}
					],
					"stateMutability": "nonpayable",
					"type": "function"
				},
				{
					"inputs": [
						{
							"internalType": "uint8",
							"name": "_v",
							"type": "uint8"
						},
						{
							"internalType": "bytes32",
							"name": "_r",
							"type": "bytes32"
						},
						{
							"internalType": "bytes32",
							"name": "_s",
							"type": "bytes32"
						}
					],
					"name": "employerSign",
					"outputs": [
						{
							"internalType": "bool",
							"name": "",
							"type": "bool"
						}
					],
					"stateMutability": "payable",
					"type": "function"
				},
				{
					"inputs": [
						{
							"internalType": "bytes32",
							"name": "_hashedMessage",
							"type": "bytes32"
						},
						{
							"internalType": "uint8",
							"name": "_v",
							"type": "uint8"
						},
						{
							"internalType": "bytes32",
							"name": "_r",
							"type": "bytes32"
						},
						{
							"internalType": "bytes32",
							"name": "_s",
							"type": "bytes32"
						}
					],
					"name": "getMessageSigner",
					"outputs": [
						{
							"internalType": "address",
							"name": "",
							"type": "address"
						}
					],
					"stateMutability": "pure",
					"type": "function"
				},
				{
					"inputs": [
						{
							"internalType": "address[]",
							"name": "arbitrators_",
							"type": "address[]"
						}
					],
					"name": "raiseDispute",
					"outputs": [],
					"stateMutability": "nonpayable",
					"type": "function"
				},
				{
					"inputs": [
						{
							"internalType": "address payable",
							"name": "payee",
							"type": "address"
						}
					],
					"name": "reclaimStake",
					"outputs": [],
					"stateMutability": "nonpayable",
					"type": "function"
				},
				{
					"inputs": [],
					"name": "resign",
					"outputs": [],
					"stateMutability": "nonpayable",
					"type": "function"
				},
				{
					"inputs": [],
					"name": "resolveDispute",
					"outputs": [],
					"stateMutability": "nonpayable",
					"type": "function"
				},
				{
					"inputs": [],
					"name": "retractOffer",
					"outputs": [
						{
							"internalType": "bool",
							"name": "",
							"type": "bool"
						}
					],
					"stateMutability": "nonpayable",
					"type": "function"
				},
				{
					"inputs": [],
					"name": "start",
					"outputs": [],
					"stateMutability": "nonpayable",
					"type": "function"
				}
			],
			"devdoc": {
				"kind": "dev",
				"methods": {},
				"version": 1
			},
			"evm": {
				"assembly": "    /* \"n0simple.sol\":57:4897  contract SimpleEmployment {... */\n  mstore(0x40, 0x80)\n    /* \"n0simple.sol\":765:1126  constructor (... */\n  callvalue\n  dup1\n  iszero\n  tag_1\n  jumpi\n  0x00\n  dup1\n  revert\ntag_1:\n  pop\n  mload(0x40)\n  sub(codesize, bytecodeSize)\n  dup1\n  bytecodeSize\n  dup4\n  codecopy\n  dup2\n  dup2\n  add\n  0x40\n  mstore\n  dup2\n  add\n  swap1\n  tag_2\n  swap2\n  swap1\n  tag_3\n  jump\t// in\ntag_2:\n    /* \"n0simple.sol\":917:926  employee_ */\n  dup4\n    /* \"n0simple.sol\":906:914  employee */\n  0x00\n  dup1\n    /* \"n0simple.sol\":906:926  employee = employee_ */\n  0x0100\n  exp\n  dup2\n  sload\n  dup2\n  0xffffffffffffffffffffffffffffffffffffffff\n  mul\n  not\n  and\n  swap1\n  dup4\n  0xffffffffffffffffffffffffffffffffffffffff\n  and\n  mul\n  or\n  swap1\n  sstore\n  pop\n    /* \"n0simple.sol\":951:960  employer_ */\n  dup3\n    /* \"n0simple.sol\":940:948  employer */\n  0x01\n  0x00\n    /* \"n0simple.sol\":940:960  employer = employer_ */\n  0x0100\n  exp\n  dup2\n  sload\n  dup2\n  0xffffffffffffffffffffffffffffffffffffffff\n  mul\n  not\n  and\n  swap1\n  dup4\n  0xffffffffffffffffffffffffffffffffffffffff\n  and\n  mul\n  or\n  swap1\n  sstore\n  pop\n    /* \"n0simple.sol\":988:1000  paySchedule_ */\n  dup2\n    /* \"n0simple.sol\":974:985  paySchedule */\n  0x02\n    /* \"n0simple.sol\":974:1000  paySchedule = paySchedule_ */\n  dup2\n  swap1\n  sstore\n  pop\n    /* \"n0simple.sol\":1026:1036  payAmount_ */\n  dup1\n    /* \"n0simple.sol\":1014:1023  payAmount */\n  0x03\n    /* \"n0simple.sol\":1014:1036  payAmount = payAmount_ */\n  dup2\n  swap1\n  sstore\n  pop\n    /* \"n0simple.sol\":1073:1077  true */\n  0x01\n    /* \"n0simple.sol\":1050:1060  isApprover */\n  0x05\n    /* \"n0simple.sol\":1050:1070  isApprover[employer] */\n  0x00\n    /* \"n0simple.sol\":1061:1069  employer */\n  0x01\n  0x00\n  swap1\n  sload\n  swap1\n  0x0100\n  exp\n  swap1\n  div\n  0xffffffffffffffffffffffffffffffffffffffff\n  and\n    /* \"n0simple.sol\":1050:1070  isApprover[employer] */\n  0xffffffffffffffffffffffffffffffffffffffff\n  and\n  0xffffffffffffffffffffffffffffffffffffffff\n  and\n  dup2\n  mstore\n  0x20\n  add\n  swap1\n  dup2\n  mstore\n  0x20\n  add\n  0x00\n  keccak256\n  0x00\n    /* \"n0simple.sol\":1050:1077  isApprover[employer] = true */\n  0x0100\n  exp\n  dup2\n  sload\n  dup2\n  0xff\n  mul\n  not\n  and\n  swap1\n  dup4\n  iszero\n  iszero\n  mul\n  or\n  swap1\n  sstore\n  pop\n    /* \"n0simple.sol\":1104:1119  block.timestamp */\n  timestamp\n    /* \"n0simple.sol\":1091:1101  lastPayDay */\n  0x08\n    /* \"n0simple.sol\":1091:1119  lastPayDay = block.timestamp */\n  dup2\n  swap1\n  sstore\n  pop\n    /* \"n0simple.sol\":765:1126  constructor (... */\n  pop\n  pop\n  pop\n  pop\n    /* \"n0simple.sol\":57:4897  contract SimpleEmployment {... */\n  jump(tag_6)\n    /* \"#utility.yul\":88:205   */\ntag_8:\n    /* \"#utility.yul\":197:198   */\n  0x00\n    /* \"#utility.yul\":194:195   */\n  dup1\n    /* \"#utility.yul\":187:199   */\n  revert\n    /* \"#utility.yul\":334:460   */\ntag_10:\n    /* \"#utility.yul\":371:378   */\n  0x00\n    /* \"#utility.yul\":411:453   */\n  0xffffffffffffffffffffffffffffffffffffffff\n    /* \"#utility.yul\":404:409   */\n  dup3\n    /* \"#utility.yul\":400:454   */\n  and\n    /* \"#utility.yul\":389:454   */\n  swap1\n  pop\n    /* \"#utility.yul\":334:460   */\n  swap2\n  swap1\n  pop\n  jump\t// out\n    /* \"#utility.yul\":466:562   */\ntag_11:\n    /* \"#utility.yul\":503:510   */\n  0x00\n    /* \"#utility.yul\":532:556   */\n  tag_23\n    /* \"#utility.yul\":550:555   */\n  dup3\n    /* \"#utility.yul\":532:556   */\n  tag_10\n  jump\t// in\ntag_23:\n    /* \"#utility.yul\":521:556   */\n  swap1\n  pop\n    /* \"#utility.yul\":466:562   */\n  swap2\n  swap1\n  pop\n  jump\t// out\n    /* \"#utility.yul\":568:690   */\ntag_12:\n    /* \"#utility.yul\":641:665   */\n  tag_25\n    /* \"#utility.yul\":659:664   */\n  dup2\n    /* \"#utility.yul\":641:665   */\n  tag_11\n  jump\t// in\ntag_25:\n    /* \"#utility.yul\":634:639   */\n  dup2\n    /* \"#utility.yul\":631:666   */\n  eq\n    /* \"#utility.yul\":621:684   */\n  tag_26\n  jumpi\n    /* \"#utility.yul\":680:681   */\n  0x00\n    /* \"#utility.yul\":677:678   */\n  dup1\n    /* \"#utility.yul\":670:682   */\n  revert\n    /* \"#utility.yul\":621:684   */\ntag_26:\n    /* \"#utility.yul\":568:690   */\n  pop\n  jump\t// out\n    /* \"#utility.yul\":696:839   */\ntag_13:\n    /* \"#utility.yul\":753:758   */\n  0x00\n    /* \"#utility.yul\":784:790   */\n  dup2\n    /* \"#utility.yul\":778:791   */\n  mload\n    /* \"#utility.yul\":769:791   */\n  swap1\n  pop\n    /* \"#utility.yul\":800:833   */\n  tag_28\n    /* \"#utility.yul\":827:832   */\n  dup2\n    /* \"#utility.yul\":800:833   */\n  tag_12\n  jump\t// in\ntag_28:\n    /* \"#utility.yul\":696:839   */\n  swap3\n  swap2\n  pop\n  pop\n  jump\t// out\n    /* \"#utility.yul\":845:922   */\ntag_14:\n    /* \"#utility.yul\":882:889   */\n  0x00\n    /* \"#utility.yul\":911:916   */\n  dup2\n    /* \"#utility.yul\":900:916   */\n  swap1\n  pop\n    /* \"#utility.yul\":845:922   */\n  swap2\n  swap1\n  pop\n  jump\t// out\n    /* \"#utility.yul\":928:1050   */\ntag_15:\n    /* \"#utility.yul\":1001:1025   */\n  tag_31\n    /* \"#utility.yul\":1019:1024   */\n  dup2\n    /* \"#utility.yul\":1001:1025   */\n  tag_14\n  jump\t// in\ntag_31:\n    /* \"#utility.yul\":994:999   */\n  dup2\n    /* \"#utility.yul\":991:1026   */\n  eq\n    /* \"#utility.yul\":981:1044   */\n  tag_32\n  jumpi\n    /* \"#utility.yul\":1040:1041   */\n  0x00\n    /* \"#utility.yul\":1037:1038   */\n  dup1\n    /* \"#utility.yul\":1030:1042   */\n  revert\n    /* \"#utility.yul\":981:1044   */\ntag_32:\n    /* \"#utility.yul\":928:1050   */\n  pop\n  jump\t// out\n    /* \"#utility.yul\":1056:1199   */\ntag_16:\n    /* \"#utility.yul\":1113:1118   */\n  0x00\n    /* \"#utility.yul\":1144:1150   */\n  dup2\n    /* \"#utility.yul\":1138:1151   */\n  mload\n    /* \"#utility.yul\":1129:1151   */\n  swap1\n  pop\n    /* \"#utility.yul\":1160:1193   */\n  tag_34\n    /* \"#utility.yul\":1187:1192   */\n  dup2\n    /* \"#utility.yul\":1160:1193   */\n  tag_15\n  jump\t// in\ntag_34:\n    /* \"#utility.yul\":1056:1199   */\n  swap3\n  swap2\n  pop\n  pop\n  jump\t// out\n    /* \"#utility.yul\":1205:2025   */\ntag_3:\n    /* \"#utility.yul\":1302:1308   */\n  0x00\n    /* \"#utility.yul\":1310:1316   */\n  dup1\n    /* \"#utility.yul\":1318:1324   */\n  0x00\n    /* \"#utility.yul\":1326:1332   */\n  dup1\n    /* \"#utility.yul\":1375:1378   */\n  0x80\n    /* \"#utility.yul\":1363:1372   */\n  dup6\n    /* \"#utility.yul\":1354:1361   */\n  dup8\n    /* \"#utility.yul\":1350:1373   */\n  sub\n    /* \"#utility.yul\":1346:1379   */\n  slt\n    /* \"#utility.yul\":1343:1463   */\n  iszero\n  tag_36\n  jumpi\n    /* \"#utility.yul\":1382:1461   */\n  tag_37\n  tag_8\n  jump\t// in\ntag_37:\n    /* \"#utility.yul\":1343:1463   */\ntag_36:\n    /* \"#utility.yul\":1502:1503   */\n  0x00\n    /* \"#utility.yul\":1527:1591   */\n  tag_38\n    /* \"#utility.yul\":1583:1590   */\n  dup8\n    /* \"#utility.yul\":1574:1580   */\n  dup3\n    /* \"#utility.yul\":1563:1572   */\n  dup9\n    /* \"#utility.yul\":1559:1581   */\n  add\n    /* \"#utility.yul\":1527:1591   */\n  tag_13\n  jump\t// in\ntag_38:\n    /* \"#utility.yul\":1517:1591   */\n  swap5\n  pop\n    /* \"#utility.yul\":1473:1601   */\n  pop\n    /* \"#utility.yul\":1640:1642   */\n  0x20\n    /* \"#utility.yul\":1666:1730   */\n  tag_39\n    /* \"#utility.yul\":1722:1729   */\n  dup8\n    /* \"#utility.yul\":1713:1719   */\n  dup3\n    /* \"#utility.yul\":1702:1711   */\n  dup9\n    /* \"#utility.yul\":1698:1720   */\n  add\n    /* \"#utility.yul\":1666:1730   */\n  tag_13\n  jump\t// in\ntag_39:\n    /* \"#utility.yul\":1656:1730   */\n  swap4\n  pop\n    /* \"#utility.yul\":1611:1740   */\n  pop\n    /* \"#utility.yul\":1779:1781   */\n  0x40\n    /* \"#utility.yul\":1805:1869   */\n  tag_40\n    /* \"#utility.yul\":1861:1868   */\n  dup8\n    /* \"#utility.yul\":1852:1858   */\n  dup3\n    /* \"#utility.yul\":1841:1850   */\n  dup9\n    /* \"#utility.yul\":1837:1859   */\n  add\n    /* \"#utility.yul\":1805:1869   */\n  tag_16\n  jump\t// in\ntag_40:\n    /* \"#utility.yul\":1795:1869   */\n  swap3\n  pop\n    /* \"#utility.yul\":1750:1879   */\n  pop\n    /* \"#utility.yul\":1918:1920   */\n  0x60\n    /* \"#utility.yul\":1944:2008   */\n  tag_41\n    /* \"#utility.yul\":2000:2007   */\n  dup8\n    /* \"#utility.yul\":1991:1997   */\n  dup3\n    /* \"#utility.yul\":1980:1989   */\n  dup9\n    /* \"#utility.yul\":1976:1998   */\n  add\n    /* \"#utility.yul\":1944:2008   */\n  tag_16\n  jump\t// in\ntag_41:\n    /* \"#utility.yul\":1934:2008   */\n  swap2\n  pop\n    /* \"#utility.yul\":1889:2018   */\n  pop\n    /* \"#utility.yul\":1205:2025   */\n  swap3\n  swap6\n  swap2\n  swap5\n  pop\n  swap3\n  pop\n  jump\t// out\n    /* \"n0simple.sol\":57:4897  contract SimpleEmployment {... */\ntag_6:\n  dataSize(sub_0)\n  dup1\n  dataOffset(sub_0)\n  0x00\n  codecopy\n  0x00\n  return\nstop\n\nsub_0: assembly {\n        /* \"n0simple.sol\":57:4897  contract SimpleEmployment {... */\n      mstore(0x40, 0x80)\n      jumpi(tag_1, lt(calldatasize, 0x04))\n      shr(0xe0, calldataload(0x00))\n      dup1\n      0x7233f3d5\n      gt\n      tag_17\n      jumpi\n      dup1\n      0x96fd3409\n      gt\n      tag_18\n      jumpi\n      dup1\n      0x96fd3409\n      eq\n      tag_13\n      jumpi\n      dup1\n      0xbe9a6555\n      eq\n      tag_14\n      jumpi\n      dup1\n      0xcf3514a5\n      eq\n      tag_15\n      jumpi\n      dup1\n      0xf6e809b4\n      eq\n      tag_16\n      jumpi\n      jump(tag_1)\n    tag_18:\n      dup1\n      0x7233f3d5\n      eq\n      tag_9\n      jumpi\n      dup1\n      0x802635a9\n      eq\n      tag_10\n      jumpi\n      dup1\n      0x83197ef0\n      eq\n      tag_11\n      jumpi\n      dup1\n      0x94b841c9\n      eq\n      tag_12\n      jumpi\n      jump(tag_1)\n    tag_17:\n      dup1\n      0x5b39a33f\n      gt\n      tag_19\n      jumpi\n      dup1\n      0x5b39a33f\n      eq\n      tag_5\n      jumpi\n      dup1\n      0x69652fcf\n      eq\n      tag_6\n      jumpi\n      dup1\n      0x6a882d51\n      eq\n      tag_7\n      jumpi\n      dup1\n      0x6bd1925c\n      eq\n      tag_8\n      jumpi\n      jump(tag_1)\n    tag_19:\n      dup1\n      0x1b203a21\n      eq\n      tag_2\n      jumpi\n      dup1\n      0x2bfd91d4\n      eq\n      tag_3\n      jumpi\n      dup1\n      0x371a5fa0\n      eq\n      tag_4\n      jumpi\n    tag_1:\n      0x00\n      dup1\n      revert\n        /* \"n0simple.sol\":4187:4368  function reclaimStake(address payable payee) external onlyApprovers{... */\n    tag_2:\n      callvalue\n      dup1\n      iszero\n      tag_20\n      jumpi\n      0x00\n      dup1\n      revert\n    tag_20:\n      pop\n      tag_21\n      0x04\n      dup1\n      calldatasize\n      sub\n      dup2\n      add\n      swap1\n      tag_22\n      swap2\n      swap1\n      tag_23\n      jump\t// in\n    tag_22:\n      tag_24\n      jump\t// in\n    tag_21:\n      stop\n        /* \"n0simple.sol\":4526:4895  function getMessageSigner(bytes32 _hashedMessage, uint8 _v, bytes32 _r, bytes32 _s) public pure returns (address){... */\n    tag_3:\n      callvalue\n      dup1\n      iszero\n      tag_25\n      jumpi\n      0x00\n      dup1\n      revert\n    tag_25:\n      pop\n      tag_26\n      0x04\n      dup1\n      calldatasize\n      sub\n      dup2\n      add\n      swap1\n      tag_27\n      swap2\n      swap1\n      tag_28\n      jump\t// in\n    tag_27:\n      tag_29\n      jump\t// in\n    tag_26:\n      mload(0x40)\n      tag_30\n      swap2\n      swap1\n      tag_31\n      jump\t// in\n    tag_30:\n      mload(0x40)\n      dup1\n      swap2\n      sub\n      swap1\n      return\n        /* \"n0simple.sol\":3054:3174  function approveResign() external isStarted{... */\n    tag_4:\n      callvalue\n      dup1\n      iszero\n      tag_32\n      jumpi\n      0x00\n      dup1\n      revert\n    tag_32:\n      pop\n      tag_33\n      tag_34\n      jump\t// in\n    tag_33:\n      stop\n        /* \"n0simple.sol\":3654:4181  function resolveDispute() public{... */\n    tag_5:\n      callvalue\n      dup1\n      iszero\n      tag_35\n      jumpi\n      0x00\n      dup1\n      revert\n    tag_35:\n      pop\n      tag_36\n      tag_37\n      jump\t// in\n    tag_36:\n      stop\n        /* \"n0simple.sol\":2914:3048  function resign() external isActive isStarted{... */\n    tag_6:\n      callvalue\n      dup1\n      iszero\n      tag_38\n      jumpi\n      0x00\n      dup1\n      revert\n    tag_38:\n      pop\n      tag_39\n      tag_40\n      jump\t// in\n    tag_39:\n      stop\n        /* \"n0simple.sol\":2240:2493  function addApprovers(address[] memory newApprovers) external{... */\n    tag_7:\n      callvalue\n      dup1\n      iszero\n      tag_41\n      jumpi\n      0x00\n      dup1\n      revert\n    tag_41:\n      pop\n      tag_42\n      0x04\n      dup1\n      calldatasize\n      sub\n      dup2\n      add\n      swap1\n      tag_43\n      swap2\n      swap1\n      tag_44\n      jump\t// in\n    tag_43:\n      tag_45\n      jump\t// in\n    tag_42:\n      stop\n        /* \"n0simple.sol\":1290:1577  function employerSign(uint8 _v, bytes32 _r, bytes32 _s) external payable returns(bool){... */\n    tag_8:\n      tag_46\n      0x04\n      dup1\n      calldatasize\n      sub\n      dup2\n      add\n      swap1\n      tag_47\n      swap2\n      swap1\n      tag_48\n      jump\t// in\n    tag_47:\n      tag_49\n      jump\t// in\n    tag_46:\n      mload(0x40)\n      tag_50\n      swap2\n      swap1\n      tag_51\n      jump\t// in\n    tag_50:\n      mload(0x40)\n      dup1\n      swap2\n      sub\n      swap1\n      return\n        /* \"n0simple.sol\":1132:1284  function contractDataHash() public view returns (bytes32){... */\n    tag_9:\n      callvalue\n      dup1\n      iszero\n      tag_52\n      jumpi\n      0x00\n      dup1\n      revert\n    tag_52:\n      pop\n      tag_53\n      tag_54\n      jump\t// in\n    tag_53:\n      mload(0x40)\n      tag_55\n      swap2\n      swap1\n      tag_56\n      jump\t// in\n    tag_55:\n      mload(0x40)\n      dup1\n      swap2\n      sub\n      swap1\n      return\n        /* \"n0simple.sol\":1646:1958  function retractOffer() external returns (bool){... */\n    tag_10:\n      callvalue\n      dup1\n      iszero\n      tag_57\n      jumpi\n      0x00\n      dup1\n      revert\n    tag_57:\n      pop\n      tag_58\n      tag_59\n      jump\t// in\n    tag_58:\n      mload(0x40)\n      tag_60\n      swap2\n      swap1\n      tag_51\n      jump\t// in\n    tag_60:\n      mload(0x40)\n      dup1\n      swap2\n      sub\n      swap1\n      return\n        /* \"n0simple.sol\":4374:4520  function destroy() external onlyApprovers{... */\n    tag_11:\n      callvalue\n      dup1\n      iszero\n      tag_61\n      jumpi\n      0x00\n      dup1\n      revert\n    tag_61:\n      pop\n      tag_62\n      tag_63\n      jump\t// in\n    tag_62:\n      stop\n        /* \"n0simple.sol\":3347:3648  function raiseDispute(address[] memory arbitrators_) public{... */\n    tag_12:\n      callvalue\n      dup1\n      iszero\n      tag_64\n      jumpi\n      0x00\n      dup1\n      revert\n    tag_64:\n      pop\n      tag_65\n      0x04\n      dup1\n      calldatasize\n      sub\n      dup2\n      add\n      swap1\n      tag_66\n      swap2\n      swap1\n      tag_44\n      jump\t// in\n    tag_66:\n      tag_67\n      jump\t// in\n    tag_65:\n      stop\n        /* \"n0simple.sol\":2584:2908  function approvePayment() external payable isActive isStarted onlyApprovers{... */\n    tag_13:\n      tag_68\n      tag_69\n      jump\t// in\n    tag_68:\n      stop\n        /* \"n0simple.sol\":2499:2578  function start() external isActive onlyApprovers{... */\n    tag_14:\n      callvalue\n      dup1\n      iszero\n      tag_70\n      jumpi\n      0x00\n      dup1\n      revert\n    tag_70:\n      pop\n      tag_71\n      tag_72\n      jump\t// in\n    tag_71:\n      stop\n        /* \"n0simple.sol\":3180:3341  function FnF() external payable{... */\n    tag_15:\n      tag_73\n      tag_74\n      jump\t// in\n    tag_73:\n      stop\n        /* \"n0simple.sol\":1964:2234  function employeeSign(uint8 _v, bytes32 _r, bytes32 _s) external returns (bool){... */\n    tag_16:\n      callvalue\n      dup1\n      iszero\n      tag_75\n      jumpi\n      0x00\n      dup1\n      revert\n    tag_75:\n      pop\n      tag_76\n      0x04\n      dup1\n      calldatasize\n      sub\n      dup2\n      add\n      swap1\n      tag_77\n      swap2\n      swap1\n      tag_48\n      jump\t// in\n    tag_77:\n      tag_78\n      jump\t// in\n    tag_76:\n      mload(0x40)\n      tag_79\n      swap2\n      swap1\n      tag_51\n      jump\t// in\n    tag_79:\n      mload(0x40)\n      dup1\n      swap2\n      sub\n      swap1\n      return\n        /* \"n0simple.sol\":4187:4368  function reclaimStake(address payable payee) external onlyApprovers{... */\n    tag_24:\n        /* \"n0simple.sol\":553:563  isApprover */\n      0x05\n        /* \"n0simple.sol\":553:575  isApprover[msg.sender] */\n      0x00\n        /* \"n0simple.sol\":564:574  msg.sender */\n      caller\n        /* \"n0simple.sol\":553:575  isApprover[msg.sender] */\n      0xffffffffffffffffffffffffffffffffffffffff\n      and\n      0xffffffffffffffffffffffffffffffffffffffff\n      and\n      dup2\n      mstore\n      0x20\n      add\n      swap1\n      dup2\n      mstore\n      0x20\n      add\n      0x00\n      keccak256\n      0x00\n      swap1\n      sload\n      swap1\n      0x0100\n      exp\n      swap1\n      div\n      0xff\n      and\n        /* \"n0simple.sol\":545:576  require(isApprover[msg.sender]) */\n      tag_81\n      jumpi\n      0x00\n      dup1\n      revert\n    tag_81:\n        /* \"n0simple.sol\":4287:4308  address(this).balance */\n      selfbalance\n        /* \"n0simple.sol\":4272:4283  stakeAmount */\n      sload(0x04)\n        /* \"n0simple.sol\":4272:4308  stakeAmount <= address(this).balance */\n      gt\n      iszero\n        /* \"n0simple.sol\":4264:4324  require(stakeAmount <= address(this).balance, \"Low Balance\") */\n      tag_83\n      jumpi\n      mload(0x40)\n      0x08c379a000000000000000000000000000000000000000000000000000000000\n      dup2\n      mstore\n      0x04\n      add\n      tag_84\n      swap1\n      tag_85\n      jump\t// in\n    tag_84:\n      mload(0x40)\n      dup1\n      swap2\n      sub\n      swap1\n      revert\n    tag_83:\n        /* \"n0simple.sol\":4334:4339  payee */\n      dup1\n        /* \"n0simple.sol\":4334:4348  payee.transfer */\n      0xffffffffffffffffffffffffffffffffffffffff\n      and\n        /* \"n0simple.sol\":4334:4361  payee.transfer(stakeAmount) */\n      0x08fc\n        /* \"n0simple.sol\":4349:4360  stakeAmount */\n      sload(0x04)\n        /* \"n0simple.sol\":4334:4361  payee.transfer(stakeAmount) */\n      swap1\n      dup2\n      iszero\n      mul\n      swap1\n      mload(0x40)\n      0x00\n      mload(0x40)\n      dup1\n      dup4\n      sub\n      dup2\n      dup6\n      dup9\n      dup9\n      call\n      swap4\n      pop\n      pop\n      pop\n      pop\n      iszero\n      dup1\n      iszero\n      tag_87\n      jumpi\n      returndatasize\n      0x00\n      dup1\n      returndatacopy\n      revert(0x00, returndatasize)\n    tag_87:\n      pop\n        /* \"n0simple.sol\":4187:4368  function reclaimStake(address payable payee) external onlyApprovers{... */\n      pop\n      jump\t// out\n        /* \"n0simple.sol\":4526:4895  function getMessageSigner(bytes32 _hashedMessage, uint8 _v, bytes32 _r, bytes32 _s) public pure returns (address){... */\n    tag_29:\n        /* \"n0simple.sol\":4631:4638  address */\n      0x00\n        /* \"n0simple.sol\":4649:4668  bytes memory prefix */\n      dup1\n        /* \"n0simple.sol\":4649:4705  bytes memory prefix = \"\\x19Ethereum Signed Message:\\n32\" */\n      mload(0x40)\n      dup1\n      0x40\n      add\n      0x40\n      mstore\n      dup1\n      0x1c\n      dup2\n      mstore\n      0x20\n      add\n      0x19457468657265756d205369676e6564204d6573736167653a0a333200000000\n      dup2\n      mstore\n      pop\n      swap1\n      pop\n        /* \"n0simple.sol\":4715:4742  bytes32 prefixedHashMessage */\n      0x00\n        /* \"n0simple.sol\":4772:4778  prefix */\n      dup2\n        /* \"n0simple.sol\":4780:4794  _hashedMessage */\n      dup8\n        /* \"n0simple.sol\":4755:4795  abi.encodePacked(prefix, _hashedMessage) */\n      add(0x20, mload(0x40))\n      tag_89\n      swap3\n      swap2\n      swap1\n      tag_90\n      jump\t// in\n    tag_89:\n      mload(0x40)\n      0x20\n      dup2\n      dup4\n      sub\n      sub\n      dup2\n      mstore\n      swap1\n      0x40\n      mstore\n        /* \"n0simple.sol\":4745:4796  keccak256(abi.encodePacked(prefix, _hashedMessage)) */\n      dup1\n      mload\n      swap1\n      0x20\n      add\n      keccak256\n        /* \"n0simple.sol\":4715:4796  bytes32 prefixedHashMessage = keccak256(abi.encodePacked(prefix, _hashedMessage)) */\n      swap1\n      pop\n        /* \"n0simple.sol\":4806:4820  address signer */\n      0x00\n        /* \"n0simple.sol\":4823:4865  ecrecover(prefixedHashMessage, _v, _r, _s) */\n      0x01\n        /* \"n0simple.sol\":4833:4852  prefixedHashMessage */\n      dup3\n        /* \"n0simple.sol\":4854:4856  _v */\n      dup9\n        /* \"n0simple.sol\":4858:4860  _r */\n      dup9\n        /* \"n0simple.sol\":4862:4864  _s */\n      dup9\n        /* \"n0simple.sol\":4823:4865  ecrecover(prefixedHashMessage, _v, _r, _s) */\n      mload(0x40)\n      0x00\n      dup2\n      mstore\n      0x20\n      add\n      0x40\n      mstore\n      mload(0x40)\n      tag_91\n      swap5\n      swap4\n      swap3\n      swap2\n      swap1\n      tag_92\n      jump\t// in\n    tag_91:\n      0x20\n      mload(0x40)\n      0x20\n      dup2\n      sub\n      swap1\n      dup1\n      dup5\n      sub\n      swap1\n      dup6\n      gas\n      staticcall\n      iszero\n      dup1\n      iszero\n      tag_94\n      jumpi\n      returndatasize\n      0x00\n      dup1\n      returndatacopy\n      revert(0x00, returndatasize)\n    tag_94:\n      pop\n      pop\n      pop\n      mload(sub(mload(0x40), 0x20))\n        /* \"n0simple.sol\":4806:4865  address signer = ecrecover(prefixedHashMessage, _v, _r, _s) */\n      swap1\n      pop\n        /* \"n0simple.sol\":4882:4888  signer */\n      dup1\n        /* \"n0simple.sol\":4875:4888  return signer */\n      swap4\n      pop\n      pop\n      pop\n      pop\n        /* \"n0simple.sol\":4526:4895  function getMessageSigner(bytes32 _hashedMessage, uint8 _v, bytes32 _r, bytes32 _s) public pure returns (address){... */\n      swap5\n      swap4\n      pop\n      pop\n      pop\n      pop\n      jump\t// out\n        /* \"n0simple.sol\":3054:3174  function approveResign() external isStarted{... */\n    tag_34:\n        /* \"n0simple.sol\":702:709  started */\n      0x07\n      0x01\n      swap1\n      sload\n      swap1\n      0x0100\n      exp\n      swap1\n      div\n      0xff\n      and\n        /* \"n0simple.sol\":694:710  require(started) */\n      tag_96\n      jumpi\n      0x00\n      dup1\n      revert\n    tag_96:\n        /* \"n0simple.sol\":3116:3122  active */\n      0x07\n      0x00\n      swap1\n      sload\n      swap1\n      0x0100\n      exp\n      swap1\n      div\n      0xff\n      and\n        /* \"n0simple.sol\":3115:3122  !active */\n      iszero\n        /* \"n0simple.sol\":3107:3142  require(!active, \"Active Contract\") */\n      tag_98\n      jumpi\n      mload(0x40)\n      0x08c379a000000000000000000000000000000000000000000000000000000000\n      dup2\n      mstore\n      0x04\n      add\n      tag_99\n      swap1\n      tag_100\n      jump\t// in\n    tag_99:\n      mload(0x40)\n      dup1\n      swap2\n      sub\n      swap1\n      revert\n    tag_98:\n        /* \"n0simple.sol\":3162:3167  false */\n      0x00\n        /* \"n0simple.sol\":3152:3159  stopped */\n      0x07\n      0x02\n        /* \"n0simple.sol\":3152:3167  stopped = false */\n      0x0100\n      exp\n      dup2\n      sload\n      dup2\n      0xff\n      mul\n      not\n      and\n      swap1\n      dup4\n      iszero\n      iszero\n      mul\n      or\n      swap1\n      sstore\n      pop\n        /* \"n0simple.sol\":3054:3174  function approveResign() external isStarted{... */\n      jump\t// out\n        /* \"n0simple.sol\":3654:4181  function resolveDispute() public{... */\n    tag_37:\n        /* \"n0simple.sol\":3704:3712  disputed */\n      0x07\n      0x03\n      swap1\n      sload\n      swap1\n      0x0100\n      exp\n      swap1\n      div\n      0xff\n      and\n        /* \"n0simple.sol\":3696:3739  require(disputed, \"No disputes to resolve\") */\n      tag_102\n      jumpi\n      mload(0x40)\n      0x08c379a000000000000000000000000000000000000000000000000000000000\n      dup2\n      mstore\n      0x04\n      add\n      tag_103\n      swap1\n      tag_104\n      jump\t// in\n    tag_103:\n      mload(0x40)\n      dup1\n      swap2\n      sub\n      swap1\n      revert\n    tag_102:\n        /* \"n0simple.sol\":3775:3779  true */\n      0x01\n        /* \"n0simple.sol\":3749:3760  hasResolved */\n      0x0a\n        /* \"n0simple.sol\":3749:3772  hasResolved[msg.sender] */\n      0x00\n        /* \"n0simple.sol\":3761:3771  msg.sender */\n      caller\n        /* \"n0simple.sol\":3749:3772  hasResolved[msg.sender] */\n      0xffffffffffffffffffffffffffffffffffffffff\n      and\n      0xffffffffffffffffffffffffffffffffffffffff\n      and\n      dup2\n      mstore\n      0x20\n      add\n      swap1\n      dup2\n      mstore\n      0x20\n      add\n      0x00\n      keccak256\n      0x00\n        /* \"n0simple.sol\":3749:3779  hasResolved[msg.sender] = true */\n      0x0100\n      exp\n      dup2\n      sload\n      dup2\n      0xff\n      mul\n      not\n      and\n      swap1\n      dup4\n      iszero\n      iszero\n      mul\n      or\n      swap1\n      sstore\n      pop\n        /* \"n0simple.sol\":3792:3803  hasResolved */\n      0x0a\n        /* \"n0simple.sol\":3792:3813  hasResolved[employee] */\n      0x00\n        /* \"n0simple.sol\":3804:3812  employee */\n      dup1\n      0x00\n      swap1\n      sload\n      swap1\n      0x0100\n      exp\n      swap1\n      div\n      0xffffffffffffffffffffffffffffffffffffffff\n      and\n        /* \"n0simple.sol\":3792:3813  hasResolved[employee] */\n      0xffffffffffffffffffffffffffffffffffffffff\n      and\n      0xffffffffffffffffffffffffffffffffffffffff\n      and\n      dup2\n      mstore\n      0x20\n      add\n      swap1\n      dup2\n      mstore\n      0x20\n      add\n      0x00\n      keccak256\n      0x00\n      swap1\n      sload\n      swap1\n      0x0100\n      exp\n      swap1\n      div\n      0xff\n      and\n        /* \"n0simple.sol\":3792:3839  hasResolved[employee] && isApprover[msg.sender] */\n      dup1\n      iszero\n      tag_105\n      jumpi\n      pop\n        /* \"n0simple.sol\":3817:3827  isApprover */\n      0x05\n        /* \"n0simple.sol\":3817:3839  isApprover[msg.sender] */\n      0x00\n        /* \"n0simple.sol\":3828:3838  msg.sender */\n      caller\n        /* \"n0simple.sol\":3817:3839  isApprover[msg.sender] */\n      0xffffffffffffffffffffffffffffffffffffffff\n      and\n      0xffffffffffffffffffffffffffffffffffffffff\n      and\n      dup2\n      mstore\n      0x20\n      add\n      swap1\n      dup2\n      mstore\n      0x20\n      add\n      0x00\n      keccak256\n      0x00\n      swap1\n      sload\n      swap1\n      0x0100\n      exp\n      swap1\n      div\n      0xff\n      and\n        /* \"n0simple.sol\":3792:3839  hasResolved[employee] && isApprover[msg.sender] */\n    tag_105:\n        /* \"n0simple.sol\":3789:4149  if(hasResolved[employee] && isApprover[msg.sender]){... */\n      iszero\n      tag_106\n      jumpi\n        /* \"n0simple.sol\":3854:3881  bool allArbitratorsResolved */\n      0x00\n        /* \"n0simple.sol\":3884:3888  true */\n      0x01\n        /* \"n0simple.sol\":3854:3888  bool allArbitratorsResolved = true */\n      swap1\n      pop\n        /* \"n0simple.sol\":3906:3913  uint8 i */\n      0x00\n        /* \"n0simple.sol\":3902:4058  for(uint8 i = 0; i < arbitrators.length; i++){... */\n    tag_107:\n        /* \"n0simple.sol\":3923:3934  arbitrators */\n      0x09\n        /* \"n0simple.sol\":3923:3941  arbitrators.length */\n      dup1\n      sload\n      swap1\n      pop\n        /* \"n0simple.sol\":3919:3920  i */\n      dup2\n        /* \"n0simple.sol\":3919:3941  i < arbitrators.length */\n      0xff\n      and\n      lt\n        /* \"n0simple.sol\":3902:4058  for(uint8 i = 0; i < arbitrators.length; i++){... */\n      iszero\n      tag_108\n      jumpi\n        /* \"n0simple.sol\":3990:4001  hasResolved */\n      0x0a\n        /* \"n0simple.sol\":3990:4017  hasResolved[arbitrators[i]] */\n      0x00\n        /* \"n0simple.sol\":4002:4013  arbitrators */\n      0x09\n        /* \"n0simple.sol\":4014:4015  i */\n      dup4\n        /* \"n0simple.sol\":4002:4016  arbitrators[i] */\n      0xff\n      and\n      dup2\n      sload\n      dup2\n      lt\n      tag_110\n      jumpi\n      tag_111\n      tag_112\n      jump\t// in\n    tag_111:\n    tag_110:\n      swap1\n      0x00\n      mstore\n      keccak256(0x00, 0x20)\n      add\n      0x00\n      swap1\n      sload\n      swap1\n      0x0100\n      exp\n      swap1\n      div\n      0xffffffffffffffffffffffffffffffffffffffff\n      and\n        /* \"n0simple.sol\":3990:4017  hasResolved[arbitrators[i]] */\n      0xffffffffffffffffffffffffffffffffffffffff\n      and\n      0xffffffffffffffffffffffffffffffffffffffff\n      and\n      dup2\n      mstore\n      0x20\n      add\n      swap1\n      dup2\n      mstore\n      0x20\n      add\n      0x00\n      keccak256\n      0x00\n      swap1\n      sload\n      swap1\n      0x0100\n      exp\n      swap1\n      div\n      0xff\n      and\n        /* \"n0simple.sol\":3990:4043  hasResolved[arbitrators[i]] && allArbitratorsResolved */\n      dup1\n      iszero\n      tag_114\n      jumpi\n      pop\n        /* \"n0simple.sol\":4021:4043  allArbitratorsResolved */\n      dup2\n        /* \"n0simple.sol\":3990:4043  hasResolved[arbitrators[i]] && allArbitratorsResolved */\n    tag_114:\n        /* \"n0simple.sol\":3965:4043  allArbitratorsResolved = hasResolved[arbitrators[i]] && allArbitratorsResolved */\n      swap2\n      pop\n        /* \"n0simple.sol\":3943:3946  i++ */\n      dup1\n      dup1\n      tag_115\n      swap1\n      tag_116\n      jump\t// in\n    tag_115:\n      swap2\n      pop\n      pop\n        /* \"n0simple.sol\":3902:4058  for(uint8 i = 0; i < arbitrators.length; i++){... */\n      jump(tag_107)\n    tag_108:\n      pop\n        /* \"n0simple.sol\":4079:4101  allArbitratorsResolved */\n      dup1\n        /* \"n0simple.sol\":4071:4138  require(allArbitratorsResolved, \"All arbitrators haven't resolved\") */\n      tag_117\n      jumpi\n      mload(0x40)\n      0x08c379a000000000000000000000000000000000000000000000000000000000\n      dup2\n      mstore\n      0x04\n      add\n      tag_118\n      swap1\n      tag_119\n      jump\t// in\n    tag_118:\n      mload(0x40)\n      dup1\n      swap2\n      sub\n      swap1\n      revert\n    tag_117:\n        /* \"n0simple.sol\":3840:4149  {... */\n      pop\n        /* \"n0simple.sol\":3789:4149  if(hasResolved[employee] && isApprover[msg.sender]){... */\n    tag_106:\n        /* \"n0simple.sol\":4169:4174  false */\n      0x00\n        /* \"n0simple.sol\":4158:4166  disputed */\n      0x07\n      0x03\n        /* \"n0simple.sol\":4158:4174  disputed = false */\n      0x0100\n      exp\n      dup2\n      sload\n      dup2\n      0xff\n      mul\n      not\n      and\n      swap1\n      dup4\n      iszero\n      iszero\n      mul\n      or\n      swap1\n      sstore\n      pop\n        /* \"n0simple.sol\":3654:4181  function resolveDispute() public{... */\n      jump\t// out\n        /* \"n0simple.sol\":2914:3048  function resign() external isActive isStarted{... */\n    tag_40:\n        /* \"n0simple.sol\":635:641  active */\n      0x07\n      0x00\n      swap1\n      sload\n      swap1\n      0x0100\n      exp\n      swap1\n      div\n      0xff\n      and\n        /* \"n0simple.sol\":627:642  require(active) */\n      tag_121\n      jumpi\n      0x00\n      dup1\n      revert\n    tag_121:\n        /* \"n0simple.sol\":702:709  started */\n      0x07\n      0x01\n      swap1\n      sload\n      swap1\n      0x0100\n      exp\n      swap1\n      div\n      0xff\n      and\n        /* \"n0simple.sol\":694:710  require(started) */\n      tag_123\n      jumpi\n      0x00\n      dup1\n      revert\n    tag_123:\n        /* \"n0simple.sol\":2991:2999  employee */\n      0x00\n      dup1\n      sload\n      swap1\n      0x0100\n      exp\n      swap1\n      div\n      0xffffffffffffffffffffffffffffffffffffffff\n      and\n        /* \"n0simple.sol\":2977:2999  msg.sender == employee */\n      0xffffffffffffffffffffffffffffffffffffffff\n      and\n        /* \"n0simple.sol\":2977:2987  msg.sender */\n      caller\n        /* \"n0simple.sol\":2977:2999  msg.sender == employee */\n      0xffffffffffffffffffffffffffffffffffffffff\n      and\n      eq\n        /* \"n0simple.sol\":2969:3017  require(msg.sender == employee, \"Only Employee\") */\n      tag_125\n      jumpi\n      mload(0x40)\n      0x08c379a000000000000000000000000000000000000000000000000000000000\n      dup2\n      mstore\n      0x04\n      add\n      tag_126\n      swap1\n      tag_127\n      jump\t// in\n    tag_126:\n      mload(0x40)\n      dup1\n      swap2\n      sub\n      swap1\n      revert\n    tag_125:\n        /* \"n0simple.sol\":3036:3041  false */\n      0x00\n        /* \"n0simple.sol\":3027:3033  active */\n      0x07\n      0x00\n        /* \"n0simple.sol\":3027:3041  active = false */\n      0x0100\n      exp\n      dup2\n      sload\n      dup2\n      0xff\n      mul\n      not\n      and\n      swap1\n      dup4\n      iszero\n      iszero\n      mul\n      or\n      swap1\n      sstore\n      pop\n        /* \"n0simple.sol\":2914:3048  function resign() external isActive isStarted{... */\n      jump\t// out\n        /* \"n0simple.sol\":2240:2493  function addApprovers(address[] memory newApprovers) external{... */\n    tag_45:\n        /* \"n0simple.sol\":2342:2343  5 */\n      0x05\n        /* \"n0simple.sol\":2319:2331  newApprovers */\n      dup2\n        /* \"n0simple.sol\":2319:2338  newApprovers.length */\n      mload\n        /* \"n0simple.sol\":2319:2343  newApprovers.length <= 5 */\n      gt\n      iszero\n        /* \"n0simple.sol\":2311:2372  require(newApprovers.length <= 5, \"No more than 5 approvers\") */\n      tag_129\n      jumpi\n      mload(0x40)\n      0x08c379a000000000000000000000000000000000000000000000000000000000\n      dup2\n      mstore\n      0x04\n      add\n      tag_130\n      swap1\n      tag_131\n      jump\t// in\n    tag_130:\n      mload(0x40)\n      dup1\n      swap2\n      sub\n      swap1\n      revert\n    tag_129:\n        /* \"n0simple.sol\":2386:2393  uint8 i */\n      0x00\n        /* \"n0simple.sol\":2382:2487  for(uint8 i = 0; i < newApprovers.length; i++){... */\n    tag_132:\n        /* \"n0simple.sol\":2403:2415  newApprovers */\n      dup2\n        /* \"n0simple.sol\":2403:2422  newApprovers.length */\n      mload\n        /* \"n0simple.sol\":2399:2400  i */\n      dup2\n        /* \"n0simple.sol\":2399:2422  i < newApprovers.length */\n      0xff\n      and\n      lt\n        /* \"n0simple.sol\":2382:2487  for(uint8 i = 0; i < newApprovers.length; i++){... */\n      iszero\n      tag_133\n      jumpi\n        /* \"n0simple.sol\":2472:2476  true */\n      0x01\n        /* \"n0simple.sol\":2442:2452  isApprover */\n      0x05\n        /* \"n0simple.sol\":2442:2469  isApprover[newApprovers[i]] */\n      0x00\n        /* \"n0simple.sol\":2453:2465  newApprovers */\n      dup5\n        /* \"n0simple.sol\":2466:2467  i */\n      dup5\n        /* \"n0simple.sol\":2453:2468  newApprovers[i] */\n      0xff\n      and\n      dup2\n      mload\n      dup2\n      lt\n      tag_135\n      jumpi\n      tag_136\n      tag_112\n      jump\t// in\n    tag_136:\n    tag_135:\n      0x20\n      mul\n      0x20\n      add\n      add\n      mload\n        /* \"n0simple.sol\":2442:2469  isApprover[newApprovers[i]] */\n      0xffffffffffffffffffffffffffffffffffffffff\n      and\n      0xffffffffffffffffffffffffffffffffffffffff\n      and\n      dup2\n      mstore\n      0x20\n      add\n      swap1\n      dup2\n      mstore\n      0x20\n      add\n      0x00\n      keccak256\n      0x00\n        /* \"n0simple.sol\":2442:2476  isApprover[newApprovers[i]] = true */\n      0x0100\n      exp\n      dup2\n      sload\n      dup2\n      0xff\n      mul\n      not\n      and\n      swap1\n      dup4\n      iszero\n      iszero\n      mul\n      or\n      swap1\n      sstore\n      pop\n        /* \"n0simple.sol\":2424:2427  i++ */\n      dup1\n      dup1\n      tag_137\n      swap1\n      tag_116\n      jump\t// in\n    tag_137:\n      swap2\n      pop\n      pop\n        /* \"n0simple.sol\":2382:2487  for(uint8 i = 0; i < newApprovers.length; i++){... */\n      jump(tag_132)\n    tag_133:\n      pop\n        /* \"n0simple.sol\":2240:2493  function addApprovers(address[] memory newApprovers) external{... */\n      pop\n      jump\t// out\n        /* \"n0simple.sol\":1290:1577  function employerSign(uint8 _v, bytes32 _r, bytes32 _s) external payable returns(bool){... */\n    tag_49:\n        /* \"n0simple.sol\":1371:1375  bool */\n      0x00\n        /* \"n0simple.sol\":1406:1407  0 */\n      dup1\n        /* \"n0simple.sol\":1394:1403  msg.value */\n      callvalue\n        /* \"n0simple.sol\":1394:1407  msg.value > 0 */\n      gt\n        /* \"n0simple.sol\":1386:1433  require(msg.value > 0, \"Can't have zero stake\") */\n      tag_139\n      jumpi\n      mload(0x40)\n      0x08c379a000000000000000000000000000000000000000000000000000000000\n      dup2\n      mstore\n      0x04\n      add\n      tag_140\n      swap1\n      tag_141\n      jump\t// in\n    tag_140:\n      mload(0x40)\n      dup1\n      swap2\n      sub\n      swap1\n      revert\n    tag_139:\n        /* \"n0simple.sol\":1503:1511  employer */\n      0x01\n      0x00\n      swap1\n      sload\n      swap1\n      0x0100\n      exp\n      swap1\n      div\n      0xffffffffffffffffffffffffffffffffffffffff\n      and\n        /* \"n0simple.sol\":1451:1511  getMessageSigner(contractDataHash(), _v, _r, _s) == employer */\n      0xffffffffffffffffffffffffffffffffffffffff\n      and\n        /* \"n0simple.sol\":1451:1499  getMessageSigner(contractDataHash(), _v, _r, _s) */\n      tag_142\n        /* \"n0simple.sol\":1468:1486  contractDataHash() */\n      tag_143\n        /* \"n0simple.sol\":1468:1484  contractDataHash */\n      tag_54\n        /* \"n0simple.sol\":1468:1486  contractDataHash() */\n      jump\t// in\n    tag_143:\n        /* \"n0simple.sol\":1488:1490  _v */\n      dup7\n        /* \"n0simple.sol\":1492:1494  _r */\n      dup7\n        /* \"n0simple.sol\":1496:1498  _s */\n      dup7\n        /* \"n0simple.sol\":1451:1467  getMessageSigner */\n      tag_29\n        /* \"n0simple.sol\":1451:1499  getMessageSigner(contractDataHash(), _v, _r, _s) */\n      jump\t// in\n    tag_142:\n        /* \"n0simple.sol\":1451:1511  getMessageSigner(contractDataHash(), _v, _r, _s) == employer */\n      0xffffffffffffffffffffffffffffffffffffffff\n      and\n      eq\n        /* \"n0simple.sol\":1443:1537  require(getMessageSigner(contractDataHash(), _v, _r, _s) == employer, \"Employer Sign Invalid\") */\n      tag_144\n      jumpi\n      mload(0x40)\n      0x08c379a000000000000000000000000000000000000000000000000000000000\n      dup2\n      mstore\n      0x04\n      add\n      tag_145\n      swap1\n      tag_146\n      jump\t// in\n    tag_145:\n      mload(0x40)\n      dup1\n      swap2\n      sub\n      swap1\n      revert\n    tag_144:\n        /* \"n0simple.sol\":1561:1570  msg.value */\n      callvalue\n        /* \"n0simple.sol\":1547:1558  stakeAmount */\n      0x04\n        /* \"n0simple.sol\":1547:1570  stakeAmount = msg.value */\n      dup2\n      swap1\n      sstore\n      pop\n        /* \"n0simple.sol\":1290:1577  function employerSign(uint8 _v, bytes32 _r, bytes32 _s) external payable returns(bool){... */\n      swap4\n      swap3\n      pop\n      pop\n      pop\n      jump\t// out\n        /* \"n0simple.sol\":1132:1284  function contractDataHash() public view returns (bytes32){... */\n    tag_54:\n        /* \"n0simple.sol\":1181:1188  bytes32 */\n      0x00\n        /* \"n0simple.sol\":1233:1241  employee */\n      dup1\n      0x00\n      swap1\n      sload\n      swap1\n      0x0100\n      exp\n      swap1\n      div\n      0xffffffffffffffffffffffffffffffffffffffff\n      and\n        /* \"n0simple.sol\":1243:1251  employer */\n      0x01\n      0x00\n      swap1\n      sload\n      swap1\n      0x0100\n      exp\n      swap1\n      div\n      0xffffffffffffffffffffffffffffffffffffffff\n      and\n        /* \"n0simple.sol\":1253:1264  paySchedule */\n      sload(0x02)\n        /* \"n0simple.sol\":1266:1275  payAmount */\n      sload(0x03)\n        /* \"n0simple.sol\":1216:1276  abi.encodePacked(employee, employer, paySchedule, payAmount) */\n      add(0x20, mload(0x40))\n      tag_148\n      swap5\n      swap4\n      swap3\n      swap2\n      swap1\n      tag_149\n      jump\t// in\n    tag_148:\n      mload(0x40)\n      0x20\n      dup2\n      dup4\n      sub\n      sub\n      dup2\n      mstore\n      swap1\n      0x40\n      mstore\n        /* \"n0simple.sol\":1206:1277  keccak256(abi.encodePacked(employee, employer, paySchedule, payAmount)) */\n      dup1\n      mload\n      swap1\n      0x20\n      add\n      keccak256\n        /* \"n0simple.sol\":1199:1277  return keccak256(abi.encodePacked(employee, employer, paySchedule, payAmount)) */\n      swap1\n      pop\n        /* \"n0simple.sol\":1132:1284  function contractDataHash() public view returns (bytes32){... */\n      swap1\n      jump\t// out\n        /* \"n0simple.sol\":1646:1958  function retractOffer() external returns (bool){... */\n    tag_59:\n        /* \"n0simple.sol\":1688:1692  bool */\n      0x00\n        /* \"n0simple.sol\":1734:1738  true */\n      0x01\n        /* \"n0simple.sol\":1711:1738  hasSigned[employee] != true */\n      iszero\n      iszero\n        /* \"n0simple.sol\":1711:1720  hasSigned */\n      0x06\n        /* \"n0simple.sol\":1711:1730  hasSigned[employee] */\n      0x00\n        /* \"n0simple.sol\":1721:1729  employee */\n      dup1\n      0x00\n      swap1\n      sload\n      swap1\n      0x0100\n      exp\n      swap1\n      div\n      0xffffffffffffffffffffffffffffffffffffffff\n      and\n        /* \"n0simple.sol\":1711:1730  hasSigned[employee] */\n      0xffffffffffffffffffffffffffffffffffffffff\n      and\n      0xffffffffffffffffffffffffffffffffffffffff\n      and\n      dup2\n      mstore\n      0x20\n      add\n      swap1\n      dup2\n      mstore\n      0x20\n      add\n      0x00\n      keccak256\n      0x00\n      swap1\n      sload\n      swap1\n      0x0100\n      exp\n      swap1\n      div\n      0xff\n      and\n        /* \"n0simple.sol\":1711:1738  hasSigned[employee] != true */\n      iszero\n      iszero\n      sub\n        /* \"n0simple.sol\":1703:1766  require(hasSigned[employee] != true, \"Contract already signed\") */\n      tag_151\n      jumpi\n      mload(0x40)\n      0x08c379a000000000000000000000000000000000000000000000000000000000\n      dup2\n      mstore\n      0x04\n      add\n      tag_152\n      swap1\n      tag_153\n      jump\t// in\n    tag_152:\n      mload(0x40)\n      dup1\n      swap2\n      sub\n      swap1\n      revert\n    tag_151:\n        /* \"n0simple.sol\":1798:1799  0 */\n      0x00\n        /* \"n0simple.sol\":1784:1795  stakeAmount */\n      sload(0x04)\n        /* \"n0simple.sol\":1784:1799  stakeAmount > 0 */\n      gt\n        /* \"n0simple.sol\":1784:1809  stakeAmount > 0 && active */\n      dup1\n      iszero\n      tag_154\n      jumpi\n      pop\n        /* \"n0simple.sol\":1803:1809  active */\n      0x07\n      0x00\n      swap1\n      sload\n      swap1\n      0x0100\n      exp\n      swap1\n      div\n      0xff\n      and\n        /* \"n0simple.sol\":1784:1809  stakeAmount > 0 && active */\n    tag_154:\n        /* \"n0simple.sol\":1776:1832  require(stakeAmount > 0 && active, \"Nothing to Do here\") */\n      tag_155\n      jumpi\n      mload(0x40)\n      0x08c379a000000000000000000000000000000000000000000000000000000000\n      dup2\n      mstore\n      0x04\n      add\n      tag_156\n      swap1\n      tag_157\n      jump\t// in\n    tag_156:\n      mload(0x40)\n      dup1\n      swap2\n      sub\n      swap1\n      revert\n    tag_155:\n        /* \"n0simple.sol\":1851:1856  false */\n      0x00\n        /* \"n0simple.sol\":1842:1848  active */\n      0x07\n      0x00\n        /* \"n0simple.sol\":1842:1856  active = false */\n      0x0100\n      exp\n      dup2\n      sload\n      dup2\n      0xff\n      mul\n      not\n      and\n      swap1\n      dup4\n      iszero\n      iszero\n      mul\n      or\n      swap1\n      sstore\n      pop\n        /* \"n0simple.sol\":1880:1881  0 */\n      0x00\n        /* \"n0simple.sol\":1866:1877  stakeAmount */\n      0x04\n        /* \"n0simple.sol\":1866:1881  stakeAmount = 0 */\n      dup2\n      swap1\n      sstore\n      pop\n        /* \"n0simple.sol\":1899:1907  employer */\n      0x01\n      0x00\n      swap1\n      sload\n      swap1\n      0x0100\n      exp\n      swap1\n      div\n      0xffffffffffffffffffffffffffffffffffffffff\n      and\n        /* \"n0simple.sol\":1891:1917  payable(employer).transfer */\n      0xffffffffffffffffffffffffffffffffffffffff\n      and\n        /* \"n0simple.sol\":1891:1930  payable(employer).transfer(stakeAmount) */\n      0x08fc\n        /* \"n0simple.sol\":1918:1929  stakeAmount */\n      sload(0x04)\n        /* \"n0simple.sol\":1891:1930  payable(employer).transfer(stakeAmount) */\n      swap1\n      dup2\n      iszero\n      mul\n      swap1\n      mload(0x40)\n      0x00\n      mload(0x40)\n      dup1\n      dup4\n      sub\n      dup2\n      dup6\n      dup9\n      dup9\n      call\n      swap4\n      pop\n      pop\n      pop\n      pop\n      iszero\n      dup1\n      iszero\n      tag_159\n      jumpi\n      returndatasize\n      0x00\n      dup1\n      returndatacopy\n      revert(0x00, returndatasize)\n    tag_159:\n      pop\n        /* \"n0simple.sol\":1947:1951  true */\n      0x01\n        /* \"n0simple.sol\":1940:1951  return true */\n      swap1\n      pop\n        /* \"n0simple.sol\":1646:1958  function retractOffer() external returns (bool){... */\n      swap1\n      jump\t// out\n        /* \"n0simple.sol\":4374:4520  function destroy() external onlyApprovers{... */\n    tag_63:\n        /* \"n0simple.sol\":553:563  isApprover */\n      0x05\n        /* \"n0simple.sol\":553:575  isApprover[msg.sender] */\n      0x00\n        /* \"n0simple.sol\":564:574  msg.sender */\n      caller\n        /* \"n0simple.sol\":553:575  isApprover[msg.sender] */\n      0xffffffffffffffffffffffffffffffffffffffff\n      and\n      0xffffffffffffffffffffffffffffffffffffffff\n      and\n      dup2\n      mstore\n      0x20\n      add\n      swap1\n      dup2\n      mstore\n      0x20\n      add\n      0x00\n      keccak256\n      0x00\n      swap1\n      sload\n      swap1\n      0x0100\n      exp\n      swap1\n      div\n      0xff\n      and\n        /* \"n0simple.sol\":545:576  require(isApprover[msg.sender]) */\n      tag_161\n      jumpi\n      0x00\n      dup1\n      revert\n    tag_161:\n        /* \"n0simple.sol\":4447:4455  employer */\n      0x01\n      0x00\n      swap1\n      sload\n      swap1\n      0x0100\n      exp\n      swap1\n      div\n      0xffffffffffffffffffffffffffffffffffffffff\n      and\n        /* \"n0simple.sol\":4433:4455  msg.sender == employer */\n      0xffffffffffffffffffffffffffffffffffffffff\n      and\n        /* \"n0simple.sol\":4433:4443  msg.sender */\n      caller\n        /* \"n0simple.sol\":4433:4455  msg.sender == employer */\n      0xffffffffffffffffffffffffffffffffffffffff\n      and\n      eq\n        /* \"n0simple.sol\":4425:4472  require(msg.sender == employer, \"Creator only\") */\n      tag_163\n      jumpi\n      mload(0x40)\n      0x08c379a000000000000000000000000000000000000000000000000000000000\n      dup2\n      mstore\n      0x04\n      add\n      tag_164\n      swap1\n      tag_165\n      jump\t// in\n    tag_164:\n      mload(0x40)\n      dup1\n      swap2\n      sub\n      swap1\n      revert\n    tag_163:\n        /* \"n0simple.sol\":4503:4511  employer */\n      0x01\n      0x00\n      swap1\n      sload\n      swap1\n      0x0100\n      exp\n      swap1\n      div\n      0xffffffffffffffffffffffffffffffffffffffff\n      and\n        /* \"n0simple.sol\":4482:4513  selfdestruct(payable(employer)) */\n      0xffffffffffffffffffffffffffffffffffffffff\n      and\n      selfdestruct\n        /* \"n0simple.sol\":3347:3648  function raiseDispute(address[] memory arbitrators_) public{... */\n    tag_67:\n        /* \"n0simple.sol\":3438:3446  employee */\n      0x00\n      dup1\n      sload\n      swap1\n      0x0100\n      exp\n      swap1\n      div\n      0xffffffffffffffffffffffffffffffffffffffff\n      and\n        /* \"n0simple.sol\":3424:3446  msg.sender == employee */\n      0xffffffffffffffffffffffffffffffffffffffff\n      and\n        /* \"n0simple.sol\":3424:3434  msg.sender */\n      caller\n        /* \"n0simple.sol\":3424:3446  msg.sender == employee */\n      0xffffffffffffffffffffffffffffffffffffffff\n      and\n      eq\n        /* \"n0simple.sol\":3424:3472  msg.sender == employee || isApprover[msg.sender] */\n      dup1\n      tag_167\n      jumpi\n      pop\n        /* \"n0simple.sol\":3450:3460  isApprover */\n      0x05\n        /* \"n0simple.sol\":3450:3472  isApprover[msg.sender] */\n      0x00\n        /* \"n0simple.sol\":3461:3471  msg.sender */\n      caller\n        /* \"n0simple.sol\":3450:3472  isApprover[msg.sender] */\n      0xffffffffffffffffffffffffffffffffffffffff\n      and\n      0xffffffffffffffffffffffffffffffffffffffff\n      and\n      dup2\n      mstore\n      0x20\n      add\n      swap1\n      dup2\n      mstore\n      0x20\n      add\n      0x00\n      keccak256\n      0x00\n      swap1\n      sload\n      swap1\n      0x0100\n      exp\n      swap1\n      div\n      0xff\n      and\n        /* \"n0simple.sol\":3424:3472  msg.sender == employee || isApprover[msg.sender] */\n    tag_167:\n        /* \"n0simple.sol\":3416:3503  require(msg.sender == employee || isApprover[msg.sender], \"Employee or Approvers only\") */\n      tag_168\n      jumpi\n      mload(0x40)\n      0x08c379a000000000000000000000000000000000000000000000000000000000\n      dup2\n      mstore\n      0x04\n      add\n      tag_169\n      swap1\n      tag_170\n      jump\t// in\n    tag_169:\n      mload(0x40)\n      dup1\n      swap2\n      sub\n      swap1\n      revert\n    tag_168:\n        /* \"n0simple.sol\":3524:3528  true */\n      0x01\n        /* \"n0simple.sol\":3513:3521  disputed */\n      0x07\n      0x03\n        /* \"n0simple.sol\":3513:3528  disputed = true */\n      0x0100\n      exp\n      dup2\n      sload\n      dup2\n      0xff\n      mul\n      not\n      and\n      swap1\n      dup4\n      iszero\n      iszero\n      mul\n      or\n      swap1\n      sstore\n      pop\n        /* \"n0simple.sol\":3542:3549  uint8 i */\n      0x00\n        /* \"n0simple.sol\":3538:3642  for(uint8 i = 0; i < arbitrators_.length; i++){... */\n    tag_171:\n        /* \"n0simple.sol\":3559:3571  arbitrators_ */\n      dup2\n        /* \"n0simple.sol\":3559:3578  arbitrators_.length */\n      mload\n        /* \"n0simple.sol\":3555:3556  i */\n      dup2\n        /* \"n0simple.sol\":3555:3578  i < arbitrators_.length */\n      0xff\n      and\n      lt\n        /* \"n0simple.sol\":3538:3642  for(uint8 i = 0; i < arbitrators_.length; i++){... */\n      iszero\n      tag_172\n      jumpi\n        /* \"n0simple.sol\":3598:3609  arbitrators */\n      0x09\n        /* \"n0simple.sol\":3615:3627  arbitrators_ */\n      dup3\n        /* \"n0simple.sol\":3628:3629  i */\n      dup3\n        /* \"n0simple.sol\":3615:3630  arbitrators_[i] */\n      0xff\n      and\n      dup2\n      mload\n      dup2\n      lt\n      tag_174\n      jumpi\n      tag_175\n      tag_112\n      jump\t// in\n    tag_175:\n    tag_174:\n      0x20\n      mul\n      0x20\n      add\n      add\n      mload\n        /* \"n0simple.sol\":3598:3631  arbitrators.push(arbitrators_[i]) */\n      swap1\n      dup1\n      0x01\n      dup2\n      sload\n      add\n      dup1\n      dup3\n      sstore\n      dup1\n      swap2\n      pop\n      pop\n      0x01\n      swap1\n      sub\n      swap1\n      0x00\n      mstore\n      keccak256(0x00, 0x20)\n      add\n      0x00\n      swap1\n      swap2\n      swap1\n      swap2\n      swap1\n      swap2\n      0x0100\n      exp\n      dup2\n      sload\n      dup2\n      0xffffffffffffffffffffffffffffffffffffffff\n      mul\n      not\n      and\n      swap1\n      dup4\n      0xffffffffffffffffffffffffffffffffffffffff\n      and\n      mul\n      or\n      swap1\n      sstore\n      pop\n        /* \"n0simple.sol\":3580:3583  i++ */\n      dup1\n      dup1\n      tag_177\n      swap1\n      tag_116\n      jump\t// in\n    tag_177:\n      swap2\n      pop\n      pop\n        /* \"n0simple.sol\":3538:3642  for(uint8 i = 0; i < arbitrators_.length; i++){... */\n      jump(tag_171)\n    tag_172:\n      pop\n        /* \"n0simple.sol\":3347:3648  function raiseDispute(address[] memory arbitrators_) public{... */\n      pop\n      jump\t// out\n        /* \"n0simple.sol\":2584:2908  function approvePayment() external payable isActive isStarted onlyApprovers{... */\n    tag_69:\n        /* \"n0simple.sol\":635:641  active */\n      0x07\n      0x00\n      swap1\n      sload\n      swap1\n      0x0100\n      exp\n      swap1\n      div\n      0xff\n      and\n        /* \"n0simple.sol\":627:642  require(active) */\n      tag_179\n      jumpi\n      0x00\n      dup1\n      revert\n    tag_179:\n        /* \"n0simple.sol\":702:709  started */\n      0x07\n      0x01\n      swap1\n      sload\n      swap1\n      0x0100\n      exp\n      swap1\n      div\n      0xff\n      and\n        /* \"n0simple.sol\":694:710  require(started) */\n      tag_181\n      jumpi\n      0x00\n      dup1\n      revert\n    tag_181:\n        /* \"n0simple.sol\":553:563  isApprover */\n      0x05\n        /* \"n0simple.sol\":553:575  isApprover[msg.sender] */\n      0x00\n        /* \"n0simple.sol\":564:574  msg.sender */\n      caller\n        /* \"n0simple.sol\":553:575  isApprover[msg.sender] */\n      0xffffffffffffffffffffffffffffffffffffffff\n      and\n      0xffffffffffffffffffffffffffffffffffffffff\n      and\n      dup2\n      mstore\n      0x20\n      add\n      swap1\n      dup2\n      mstore\n      0x20\n      add\n      0x00\n      keccak256\n      0x00\n      swap1\n      sload\n      swap1\n      0x0100\n      exp\n      swap1\n      div\n      0xff\n      and\n        /* \"n0simple.sol\":545:576  require(isApprover[msg.sender]) */\n      tag_183\n      jumpi\n      0x00\n      dup1\n      revert\n    tag_183:\n        /* \"n0simple.sol\":2690:2699  payAmount */\n      sload(0x03)\n        /* \"n0simple.sol\":2677:2686  msg.value */\n      callvalue\n        /* \"n0simple.sol\":2677:2699  msg.value >= payAmount */\n      lt\n      iszero\n        /* \"n0simple.sol\":2669:2729  require(msg.value >= payAmount, \"Amount less than contract\") */\n      tag_185\n      jumpi\n      mload(0x40)\n      0x08c379a000000000000000000000000000000000000000000000000000000000\n      dup2\n      mstore\n      0x04\n      add\n      tag_186\n      swap1\n      tag_187\n      jump\t// in\n    tag_186:\n      mload(0x40)\n      dup1\n      swap2\n      sub\n      swap1\n      revert\n    tag_185:\n        /* \"n0simple.sol\":2779:2786  24 days */\n      0x1fa400\n        /* \"n0simple.sol\":2766:2776  lastPayDay */\n      sload(0x08)\n        /* \"n0simple.sol\":2766:2786  lastPayDay + 24 days */\n      tag_188\n      swap2\n      swap1\n      tag_189\n      jump\t// in\n    tag_188:\n        /* \"n0simple.sol\":2747:2762  block.timestamp */\n      timestamp\n        /* \"n0simple.sol\":2747:2786  block.timestamp >= lastPayDay + 24 days */\n      lt\n      iszero\n        /* \"n0simple.sol\":2739:2816  require(block.timestamp >= lastPayDay + 24 days, \"Too soon per pay schedule\") */\n      tag_190\n      jumpi\n      mload(0x40)\n      0x08c379a000000000000000000000000000000000000000000000000000000000\n      dup2\n      mstore\n      0x04\n      add\n      tag_191\n      swap1\n      tag_192\n      jump\t// in\n    tag_191:\n      mload(0x40)\n      dup1\n      swap2\n      sub\n      swap1\n      revert\n    tag_190:\n        /* \"n0simple.sol\":2839:2854  block.timestamp */\n      timestamp\n        /* \"n0simple.sol\":2826:2836  lastPayDay */\n      0x08\n        /* \"n0simple.sol\":2826:2854  lastPayDay = block.timestamp */\n      dup2\n      swap1\n      sstore\n      pop\n        /* \"n0simple.sol\":2872:2880  employee */\n      0x00\n      dup1\n      sload\n      swap1\n      0x0100\n      exp\n      swap1\n      div\n      0xffffffffffffffffffffffffffffffffffffffff\n      and\n        /* \"n0simple.sol\":2864:2890  payable(employee).transfer */\n      0xffffffffffffffffffffffffffffffffffffffff\n      and\n        /* \"n0simple.sol\":2864:2901  payable(employee).transfer(msg.value) */\n      0x08fc\n        /* \"n0simple.sol\":2891:2900  msg.value */\n      callvalue\n        /* \"n0simple.sol\":2864:2901  payable(employee).transfer(msg.value) */\n      swap1\n      dup2\n      iszero\n      mul\n      swap1\n      mload(0x40)\n      0x00\n      mload(0x40)\n      dup1\n      dup4\n      sub\n      dup2\n      dup6\n      dup9\n      dup9\n      call\n      swap4\n      pop\n      pop\n      pop\n      pop\n      iszero\n      dup1\n      iszero\n      tag_194\n      jumpi\n      returndatasize\n      0x00\n      dup1\n      returndatacopy\n      revert(0x00, returndatasize)\n    tag_194:\n      pop\n        /* \"n0simple.sol\":2584:2908  function approvePayment() external payable isActive isStarted onlyApprovers{... */\n      jump\t// out\n        /* \"n0simple.sol\":2499:2578  function start() external isActive onlyApprovers{... */\n    tag_72:\n        /* \"n0simple.sol\":635:641  active */\n      0x07\n      0x00\n      swap1\n      sload\n      swap1\n      0x0100\n      exp\n      swap1\n      div\n      0xff\n      and\n        /* \"n0simple.sol\":627:642  require(active) */\n      tag_196\n      jumpi\n      0x00\n      dup1\n      revert\n    tag_196:\n        /* \"n0simple.sol\":553:563  isApprover */\n      0x05\n        /* \"n0simple.sol\":553:575  isApprover[msg.sender] */\n      0x00\n        /* \"n0simple.sol\":564:574  msg.sender */\n      caller\n        /* \"n0simple.sol\":553:575  isApprover[msg.sender] */\n      0xffffffffffffffffffffffffffffffffffffffff\n      and\n      0xffffffffffffffffffffffffffffffffffffffff\n      and\n      dup2\n      mstore\n      0x20\n      add\n      swap1\n      dup2\n      mstore\n      0x20\n      add\n      0x00\n      keccak256\n      0x00\n      swap1\n      sload\n      swap1\n      0x0100\n      exp\n      swap1\n      div\n      0xff\n      and\n        /* \"n0simple.sol\":545:576  require(isApprover[msg.sender]) */\n      tag_198\n      jumpi\n      0x00\n      dup1\n      revert\n    tag_198:\n        /* \"n0simple.sol\":2567:2571  true */\n      0x01\n        /* \"n0simple.sol\":2557:2564  started */\n      0x07\n      0x01\n        /* \"n0simple.sol\":2557:2571  started = true */\n      0x0100\n      exp\n      dup2\n      sload\n      dup2\n      0xff\n      mul\n      not\n      and\n      swap1\n      dup4\n      iszero\n      iszero\n      mul\n      or\n      swap1\n      sstore\n      pop\n        /* \"n0simple.sol\":2499:2578  function start() external isActive onlyApprovers{... */\n      jump\t// out\n        /* \"n0simple.sol\":3180:3341  function FnF() external payable{... */\n    tag_74:\n        /* \"n0simple.sol\":3229:3236  started */\n      0x07\n      0x01\n      swap1\n      sload\n      swap1\n      0x0100\n      exp\n      swap1\n      div\n      0xff\n      and\n        /* \"n0simple.sol\":3229:3247  started && stopped */\n      dup1\n      iszero\n      tag_201\n      jumpi\n      pop\n        /* \"n0simple.sol\":3240:3247  stopped */\n      0x07\n      0x02\n      swap1\n      sload\n      swap1\n      0x0100\n      exp\n      swap1\n      div\n      0xff\n      and\n        /* \"n0simple.sol\":3229:3247  started && stopped */\n    tag_201:\n        /* \"n0simple.sol\":3229:3258  started && stopped && !active */\n      dup1\n      iszero\n      tag_202\n      jumpi\n      pop\n        /* \"n0simple.sol\":3252:3258  active */\n      0x07\n      0x00\n      swap1\n      sload\n      swap1\n      0x0100\n      exp\n      swap1\n      div\n      0xff\n      and\n        /* \"n0simple.sol\":3251:3258  !active */\n      iszero\n        /* \"n0simple.sol\":3229:3258  started && stopped && !active */\n    tag_202:\n        /* \"n0simple.sol\":3221:3287  require(started && stopped && !active, \"Check Resignation status\") */\n      tag_203\n      jumpi\n      mload(0x40)\n      0x08c379a000000000000000000000000000000000000000000000000000000000\n      dup2\n      mstore\n      0x04\n      add\n      tag_204\n      swap1\n      tag_205\n      jump\t// in\n    tag_204:\n      mload(0x40)\n      dup1\n      swap2\n      sub\n      swap1\n      revert\n    tag_203:\n        /* \"n0simple.sol\":3305:3313  employee */\n      0x00\n      dup1\n      sload\n      swap1\n      0x0100\n      exp\n      swap1\n      div\n      0xffffffffffffffffffffffffffffffffffffffff\n      and\n        /* \"n0simple.sol\":3297:3323  payable(employee).transfer */\n      0xffffffffffffffffffffffffffffffffffffffff\n      and\n        /* \"n0simple.sol\":3297:3334  payable(employee).transfer(msg.value) */\n      0x08fc\n        /* \"n0simple.sol\":3324:3333  msg.value */\n      callvalue\n        /* \"n0simple.sol\":3297:3334  payable(employee).transfer(msg.value) */\n      swap1\n      dup2\n      iszero\n      mul\n      swap1\n      mload(0x40)\n      0x00\n      mload(0x40)\n      dup1\n      dup4\n      sub\n      dup2\n      dup6\n      dup9\n      dup9\n      call\n      swap4\n      pop\n      pop\n      pop\n      pop\n      iszero\n      dup1\n      iszero\n      tag_207\n      jumpi\n      returndatasize\n      0x00\n      dup1\n      returndatacopy\n      revert(0x00, returndatasize)\n    tag_207:\n      pop\n        /* \"n0simple.sol\":3180:3341  function FnF() external payable{... */\n      jump\t// out\n        /* \"n0simple.sol\":1964:2234  function employeeSign(uint8 _v, bytes32 _r, bytes32 _s) external returns (bool){... */\n    tag_78:\n        /* \"n0simple.sol\":2038:2042  bool */\n      0x00\n        /* \"n0simple.sol\":2113:2121  employee */\n      dup1\n      0x00\n      swap1\n      sload\n      swap1\n      0x0100\n      exp\n      swap1\n      div\n      0xffffffffffffffffffffffffffffffffffffffff\n      and\n        /* \"n0simple.sol\":2061:2121  getMessageSigner(contractDataHash(), _v, _r, _s) == employee */\n      0xffffffffffffffffffffffffffffffffffffffff\n      and\n        /* \"n0simple.sol\":2061:2109  getMessageSigner(contractDataHash(), _v, _r, _s) */\n      tag_209\n        /* \"n0simple.sol\":2078:2096  contractDataHash() */\n      tag_210\n        /* \"n0simple.sol\":2078:2094  contractDataHash */\n      tag_54\n        /* \"n0simple.sol\":2078:2096  contractDataHash() */\n      jump\t// in\n    tag_210:\n        /* \"n0simple.sol\":2098:2100  _v */\n      dup7\n        /* \"n0simple.sol\":2102:2104  _r */\n      dup7\n        /* \"n0simple.sol\":2106:2108  _s */\n      dup7\n        /* \"n0simple.sol\":2061:2077  getMessageSigner */\n      tag_29\n        /* \"n0simple.sol\":2061:2109  getMessageSigner(contractDataHash(), _v, _r, _s) */\n      jump\t// in\n    tag_209:\n        /* \"n0simple.sol\":2061:2121  getMessageSigner(contractDataHash(), _v, _r, _s) == employee */\n      0xffffffffffffffffffffffffffffffffffffffff\n      and\n      eq\n        /* \"n0simple.sol\":2053:2147  require(getMessageSigner(contractDataHash(), _v, _r, _s) == employee, \"Employee Sign Invalid\") */\n      tag_211\n      jumpi\n      mload(0x40)\n      0x08c379a000000000000000000000000000000000000000000000000000000000\n      dup2\n      mstore\n      0x04\n      add\n      tag_212\n      swap1\n      tag_213\n      jump\t// in\n    tag_212:\n      mload(0x40)\n      dup1\n      swap2\n      sub\n      swap1\n      revert\n    tag_211:\n        /* \"n0simple.sol\":2179:2183  true */\n      0x01\n        /* \"n0simple.sol\":2157:2166  hasSigned */\n      0x06\n        /* \"n0simple.sol\":2157:2176  hasSigned[employee] */\n      0x00\n        /* \"n0simple.sol\":2167:2175  employee */\n      dup1\n      0x00\n      swap1\n      sload\n      swap1\n      0x0100\n      exp\n      swap1\n      div\n      0xffffffffffffffffffffffffffffffffffffffff\n      and\n        /* \"n0simple.sol\":2157:2176  hasSigned[employee] */\n      0xffffffffffffffffffffffffffffffffffffffff\n      and\n      0xffffffffffffffffffffffffffffffffffffffff\n      and\n      dup2\n      mstore\n      0x20\n      add\n      swap1\n      dup2\n      mstore\n      0x20\n      add\n      0x00\n      keccak256\n      0x00\n        /* \"n0simple.sol\":2157:2183  hasSigned[employee] = true */\n      0x0100\n      exp\n      dup2\n      sload\n      dup2\n      0xff\n      mul\n      not\n      and\n      swap1\n      dup4\n      iszero\n      iszero\n      mul\n      or\n      swap1\n      sstore\n      pop\n        /* \"n0simple.sol\":2202:2206  true */\n      0x01\n        /* \"n0simple.sol\":2193:2199  active */\n      0x07\n      0x00\n        /* \"n0simple.sol\":2193:2206  active = true */\n      0x0100\n      exp\n      dup2\n      sload\n      dup2\n      0xff\n      mul\n      not\n      and\n      swap1\n      dup4\n      iszero\n      iszero\n      mul\n      or\n      swap1\n      sstore\n      pop\n        /* \"n0simple.sol\":2223:2227  true */\n      0x01\n        /* \"n0simple.sol\":2216:2227  return true */\n      swap1\n      pop\n        /* \"n0simple.sol\":1964:2234  function employeeSign(uint8 _v, bytes32 _r, bytes32 _s) external returns (bool){... */\n      swap4\n      swap3\n      pop\n      pop\n      pop\n      jump\t// out\n        /* \"#utility.yul\":7:82   */\n    tag_214:\n        /* \"#utility.yul\":40:46   */\n      0x00\n        /* \"#utility.yul\":73:75   */\n      0x40\n        /* \"#utility.yul\":67:76   */\n      mload\n        /* \"#utility.yul\":57:76   */\n      swap1\n      pop\n        /* \"#utility.yul\":7:82   */\n      swap1\n      jump\t// out\n        /* \"#utility.yul\":88:205   */\n    tag_215:\n        /* \"#utility.yul\":197:198   */\n      0x00\n        /* \"#utility.yul\":194:195   */\n      dup1\n        /* \"#utility.yul\":187:199   */\n      revert\n        /* \"#utility.yul\":211:328   */\n    tag_216:\n        /* \"#utility.yul\":320:321   */\n      0x00\n        /* \"#utility.yul\":317:318   */\n      dup1\n        /* \"#utility.yul\":310:322   */\n      revert\n        /* \"#utility.yul\":334:460   */\n    tag_217:\n        /* \"#utility.yul\":371:378   */\n      0x00\n        /* \"#utility.yul\":411:453   */\n      0xffffffffffffffffffffffffffffffffffffffff\n        /* \"#utility.yul\":404:409   */\n      dup3\n        /* \"#utility.yul\":400:454   */\n      and\n        /* \"#utility.yul\":389:454   */\n      swap1\n      pop\n        /* \"#utility.yul\":334:460   */\n      swap2\n      swap1\n      pop\n      jump\t// out\n        /* \"#utility.yul\":466:570   */\n    tag_218:\n        /* \"#utility.yul\":511:518   */\n      0x00\n        /* \"#utility.yul\":540:564   */\n      tag_297\n        /* \"#utility.yul\":558:563   */\n      dup3\n        /* \"#utility.yul\":540:564   */\n      tag_217\n      jump\t// in\n    tag_297:\n        /* \"#utility.yul\":529:564   */\n      swap1\n      pop\n        /* \"#utility.yul\":466:570   */\n      swap2\n      swap1\n      pop\n      jump\t// out\n        /* \"#utility.yul\":576:714   */\n    tag_219:\n        /* \"#utility.yul\":657:689   */\n      tag_299\n        /* \"#utility.yul\":683:688   */\n      dup2\n        /* \"#utility.yul\":657:689   */\n      tag_218\n      jump\t// in\n    tag_299:\n        /* \"#utility.yul\":650:655   */\n      dup2\n        /* \"#utility.yul\":647:690   */\n      eq\n        /* \"#utility.yul\":637:708   */\n      tag_300\n      jumpi\n        /* \"#utility.yul\":704:705   */\n      0x00\n        /* \"#utility.yul\":701:702   */\n      dup1\n        /* \"#utility.yul\":694:706   */\n      revert\n        /* \"#utility.yul\":637:708   */\n    tag_300:\n        /* \"#utility.yul\":576:714   */\n      pop\n      jump\t// out\n        /* \"#utility.yul\":720:875   */\n    tag_220:\n        /* \"#utility.yul\":774:779   */\n      0x00\n        /* \"#utility.yul\":812:818   */\n      dup2\n        /* \"#utility.yul\":799:819   */\n      calldataload\n        /* \"#utility.yul\":790:819   */\n      swap1\n      pop\n        /* \"#utility.yul\":828:869   */\n      tag_302\n        /* \"#utility.yul\":863:868   */\n      dup2\n        /* \"#utility.yul\":828:869   */\n      tag_219\n      jump\t// in\n    tag_302:\n        /* \"#utility.yul\":720:875   */\n      swap3\n      swap2\n      pop\n      pop\n      jump\t// out\n        /* \"#utility.yul\":881:1226   */\n    tag_23:\n        /* \"#utility.yul\":948:954   */\n      0x00\n        /* \"#utility.yul\":997:999   */\n      0x20\n        /* \"#utility.yul\":985:994   */\n      dup3\n        /* \"#utility.yul\":976:983   */\n      dup5\n        /* \"#utility.yul\":972:995   */\n      sub\n        /* \"#utility.yul\":968:1000   */\n      slt\n        /* \"#utility.yul\":965:1084   */\n      iszero\n      tag_304\n      jumpi\n        /* \"#utility.yul\":1003:1082   */\n      tag_305\n      tag_215\n      jump\t// in\n    tag_305:\n        /* \"#utility.yul\":965:1084   */\n    tag_304:\n        /* \"#utility.yul\":1123:1124   */\n      0x00\n        /* \"#utility.yul\":1148:1209   */\n      tag_306\n        /* \"#utility.yul\":1201:1208   */\n      dup5\n        /* \"#utility.yul\":1192:1198   */\n      dup3\n        /* \"#utility.yul\":1181:1190   */\n      dup6\n        /* \"#utility.yul\":1177:1199   */\n      add\n        /* \"#utility.yul\":1148:1209   */\n      tag_220\n      jump\t// in\n    tag_306:\n        /* \"#utility.yul\":1138:1209   */\n      swap2\n      pop\n        /* \"#utility.yul\":1094:1219   */\n      pop\n        /* \"#utility.yul\":881:1226   */\n      swap3\n      swap2\n      pop\n      pop\n      jump\t// out\n        /* \"#utility.yul\":1232:1309   */\n    tag_221:\n        /* \"#utility.yul\":1269:1276   */\n      0x00\n        /* \"#utility.yul\":1298:1303   */\n      dup2\n        /* \"#utility.yul\":1287:1303   */\n      swap1\n      pop\n        /* \"#utility.yul\":1232:1309   */\n      swap2\n      swap1\n      pop\n      jump\t// out\n        /* \"#utility.yul\":1315:1437   */\n    tag_222:\n        /* \"#utility.yul\":1388:1412   */\n      tag_309\n        /* \"#utility.yul\":1406:1411   */\n      dup2\n        /* \"#utility.yul\":1388:1412   */\n      tag_221\n      jump\t// in\n    tag_309:\n        /* \"#utility.yul\":1381:1386   */\n      dup2\n        /* \"#utility.yul\":1378:1413   */\n      eq\n        /* \"#utility.yul\":1368:1431   */\n      tag_310\n      jumpi\n        /* \"#utility.yul\":1427:1428   */\n      0x00\n        /* \"#utility.yul\":1424:1425   */\n      dup1\n        /* \"#utility.yul\":1417:1429   */\n      revert\n        /* \"#utility.yul\":1368:1431   */\n    tag_310:\n        /* \"#utility.yul\":1315:1437   */\n      pop\n      jump\t// out\n        /* \"#utility.yul\":1443:1582   */\n    tag_223:\n        /* \"#utility.yul\":1489:1494   */\n      0x00\n        /* \"#utility.yul\":1527:1533   */\n      dup2\n        /* \"#utility.yul\":1514:1534   */\n      calldataload\n        /* \"#utility.yul\":1505:1534   */\n      swap1\n      pop\n        /* \"#utility.yul\":1543:1576   */\n      tag_312\n        /* \"#utility.yul\":1570:1575   */\n      dup2\n        /* \"#utility.yul\":1543:1576   */\n      tag_222\n      jump\t// in\n    tag_312:\n        /* \"#utility.yul\":1443:1582   */\n      swap3\n      swap2\n      pop\n      pop\n      jump\t// out\n        /* \"#utility.yul\":1588:1674   */\n    tag_224:\n        /* \"#utility.yul\":1623:1630   */\n      0x00\n        /* \"#utility.yul\":1663:1667   */\n      0xff\n        /* \"#utility.yul\":1656:1661   */\n      dup3\n        /* \"#utility.yul\":1652:1668   */\n      and\n        /* \"#utility.yul\":1641:1668   */\n      swap1\n      pop\n        /* \"#utility.yul\":1588:1674   */\n      swap2\n      swap1\n      pop\n      jump\t// out\n        /* \"#utility.yul\":1680:1798   */\n    tag_225:\n        /* \"#utility.yul\":1751:1773   */\n      tag_315\n        /* \"#utility.yul\":1767:1772   */\n      dup2\n        /* \"#utility.yul\":1751:1773   */\n      tag_224\n      jump\t// in\n    tag_315:\n        /* \"#utility.yul\":1744:1749   */\n      dup2\n        /* \"#utility.yul\":1741:1774   */\n      eq\n        /* \"#utility.yul\":1731:1792   */\n      tag_316\n      jumpi\n        /* \"#utility.yul\":1788:1789   */\n      0x00\n        /* \"#utility.yul\":1785:1786   */\n      dup1\n        /* \"#utility.yul\":1778:1790   */\n      revert\n        /* \"#utility.yul\":1731:1792   */\n    tag_316:\n        /* \"#utility.yul\":1680:1798   */\n      pop\n      jump\t// out\n        /* \"#utility.yul\":1804:1939   */\n    tag_226:\n        /* \"#utility.yul\":1848:1853   */\n      0x00\n        /* \"#utility.yul\":1886:1892   */\n      dup2\n        /* \"#utility.yul\":1873:1893   */\n      calldataload\n        /* \"#utility.yul\":1864:1893   */\n      swap1\n      pop\n        /* \"#utility.yul\":1902:1933   */\n      tag_318\n        /* \"#utility.yul\":1927:1932   */\n      dup2\n        /* \"#utility.yul\":1902:1933   */\n      tag_225\n      jump\t// in\n    tag_318:\n        /* \"#utility.yul\":1804:1939   */\n      swap3\n      swap2\n      pop\n      pop\n      jump\t// out\n        /* \"#utility.yul\":1945:2706   */\n    tag_28:\n        /* \"#utility.yul\":2029:2035   */\n      0x00\n        /* \"#utility.yul\":2037:2043   */\n      dup1\n        /* \"#utility.yul\":2045:2051   */\n      0x00\n        /* \"#utility.yul\":2053:2059   */\n      dup1\n        /* \"#utility.yul\":2102:2105   */\n      0x80\n        /* \"#utility.yul\":2090:2099   */\n      dup6\n        /* \"#utility.yul\":2081:2088   */\n      dup8\n        /* \"#utility.yul\":2077:2100   */\n      sub\n        /* \"#utility.yul\":2073:2106   */\n      slt\n        /* \"#utility.yul\":2070:2190   */\n      iszero\n      tag_320\n      jumpi\n        /* \"#utility.yul\":2109:2188   */\n      tag_321\n      tag_215\n      jump\t// in\n    tag_321:\n        /* \"#utility.yul\":2070:2190   */\n    tag_320:\n        /* \"#utility.yul\":2229:2230   */\n      0x00\n        /* \"#utility.yul\":2254:2307   */\n      tag_322\n        /* \"#utility.yul\":2299:2306   */\n      dup8\n        /* \"#utility.yul\":2290:2296   */\n      dup3\n        /* \"#utility.yul\":2279:2288   */\n      dup9\n        /* \"#utility.yul\":2275:2297   */\n      add\n        /* \"#utility.yul\":2254:2307   */\n      tag_223\n      jump\t// in\n    tag_322:\n        /* \"#utility.yul\":2244:2307   */\n      swap5\n      pop\n        /* \"#utility.yul\":2200:2317   */\n      pop\n        /* \"#utility.yul\":2356:2358   */\n      0x20\n        /* \"#utility.yul\":2382:2433   */\n      tag_323\n        /* \"#utility.yul\":2425:2432   */\n      dup8\n        /* \"#utility.yul\":2416:2422   */\n      dup3\n        /* \"#utility.yul\":2405:2414   */\n      dup9\n        /* \"#utility.yul\":2401:2423   */\n      add\n        /* \"#utility.yul\":2382:2433   */\n      tag_226\n      jump\t// in\n    tag_323:\n        /* \"#utility.yul\":2372:2433   */\n      swap4\n      pop\n        /* \"#utility.yul\":2327:2443   */\n      pop\n        /* \"#utility.yul\":2482:2484   */\n      0x40\n        /* \"#utility.yul\":2508:2561   */\n      tag_324\n        /* \"#utility.yul\":2553:2560   */\n      dup8\n        /* \"#utility.yul\":2544:2550   */\n      dup3\n        /* \"#utility.yul\":2533:2542   */\n      dup9\n        /* \"#utility.yul\":2529:2551   */\n      add\n        /* \"#utility.yul\":2508:2561   */\n      tag_223\n      jump\t// in\n    tag_324:\n        /* \"#utility.yul\":2498:2561   */\n      swap3\n      pop\n        /* \"#utility.yul\":2453:2571   */\n      pop\n        /* \"#utility.yul\":2610:2612   */\n      0x60\n        /* \"#utility.yul\":2636:2689   */\n      tag_325\n        /* \"#utility.yul\":2681:2688   */\n      dup8\n        /* \"#utility.yul\":2672:2678   */\n      dup3\n        /* \"#utility.yul\":2661:2670   */\n      dup9\n        /* \"#utility.yul\":2657:2679   */\n      add\n        /* \"#utility.yul\":2636:2689   */\n      tag_223\n      jump\t// in\n    tag_325:\n        /* \"#utility.yul\":2626:2689   */\n      swap2\n      pop\n        /* \"#utility.yul\":2581:2699   */\n      pop\n        /* \"#utility.yul\":1945:2706   */\n      swap3\n      swap6\n      swap2\n      swap5\n      pop\n      swap3\n      pop\n      jump\t// out\n        /* \"#utility.yul\":2712:2808   */\n    tag_227:\n        /* \"#utility.yul\":2749:2756   */\n      0x00\n        /* \"#utility.yul\":2778:2802   */\n      tag_327\n        /* \"#utility.yul\":2796:2801   */\n      dup3\n        /* \"#utility.yul\":2778:2802   */\n      tag_217\n      jump\t// in\n    tag_327:\n        /* \"#utility.yul\":2767:2802   */\n      swap1\n      pop\n        /* \"#utility.yul\":2712:2808   */\n      swap2\n      swap1\n      pop\n      jump\t// out\n        /* \"#utility.yul\":2814:2932   */\n    tag_228:\n        /* \"#utility.yul\":2901:2925   */\n      tag_329\n        /* \"#utility.yul\":2919:2924   */\n      dup2\n        /* \"#utility.yul\":2901:2925   */\n      tag_227\n      jump\t// in\n    tag_329:\n        /* \"#utility.yul\":2896:2899   */\n      dup3\n        /* \"#utility.yul\":2889:2926   */\n      mstore\n        /* \"#utility.yul\":2814:2932   */\n      pop\n      pop\n      jump\t// out\n        /* \"#utility.yul\":2938:3160   */\n    tag_31:\n        /* \"#utility.yul\":3031:3035   */\n      0x00\n        /* \"#utility.yul\":3069:3071   */\n      0x20\n        /* \"#utility.yul\":3058:3067   */\n      dup3\n        /* \"#utility.yul\":3054:3072   */\n      add\n        /* \"#utility.yul\":3046:3072   */\n      swap1\n      pop\n        /* \"#utility.yul\":3082:3153   */\n      tag_331\n        /* \"#utility.yul\":3150:3151   */\n      0x00\n        /* \"#utility.yul\":3139:3148   */\n      dup4\n        /* \"#utility.yul\":3135:3152   */\n      add\n        /* \"#utility.yul\":3126:3132   */\n      dup5\n        /* \"#utility.yul\":3082:3153   */\n      tag_228\n      jump\t// in\n    tag_331:\n        /* \"#utility.yul\":2938:3160   */\n      swap3\n      swap2\n      pop\n      pop\n      jump\t// out\n        /* \"#utility.yul\":3166:3283   */\n    tag_229:\n        /* \"#utility.yul\":3275:3276   */\n      0x00\n        /* \"#utility.yul\":3272:3273   */\n      dup1\n        /* \"#utility.yul\":3265:3277   */\n      revert\n        /* \"#utility.yul\":3289:3391   */\n    tag_230:\n        /* \"#utility.yul\":3330:3336   */\n      0x00\n        /* \"#utility.yul\":3381:3383   */\n      0x1f\n        /* \"#utility.yul\":3377:3384   */\n      not\n        /* \"#utility.yul\":3372:3374   */\n      0x1f\n        /* \"#utility.yul\":3365:3370   */\n      dup4\n        /* \"#utility.yul\":3361:3375   */\n      add\n        /* \"#utility.yul\":3357:3385   */\n      and\n        /* \"#utility.yul\":3347:3385   */\n      swap1\n      pop\n        /* \"#utility.yul\":3289:3391   */\n      swap2\n      swap1\n      pop\n      jump\t// out\n        /* \"#utility.yul\":3397:3577   */\n    tag_231:\n        /* \"#utility.yul\":3445:3522   */\n      0x4e487b7100000000000000000000000000000000000000000000000000000000\n        /* \"#utility.yul\":3442:3443   */\n      0x00\n        /* \"#utility.yul\":3435:3523   */\n      mstore\n        /* \"#utility.yul\":3542:3546   */\n      0x41\n        /* \"#utility.yul\":3539:3540   */\n      0x04\n        /* \"#utility.yul\":3532:3547   */\n      mstore\n        /* \"#utility.yul\":3566:3570   */\n      0x24\n        /* \"#utility.yul\":3563:3564   */\n      0x00\n        /* \"#utility.yul\":3556:3571   */\n      revert\n        /* \"#utility.yul\":3583:3864   */\n    tag_232:\n        /* \"#utility.yul\":3666:3693   */\n      tag_336\n        /* \"#utility.yul\":3688:3692   */\n      dup3\n        /* \"#utility.yul\":3666:3693   */\n      tag_230\n      jump\t// in\n    tag_336:\n        /* \"#utility.yul\":3658:3664   */\n      dup2\n        /* \"#utility.yul\":3654:3694   */\n      add\n        /* \"#utility.yul\":3796:3802   */\n      dup2\n        /* \"#utility.yul\":3784:3794   */\n      dup2\n        /* \"#utility.yul\":3781:3803   */\n      lt\n        /* \"#utility.yul\":3760:3778   */\n      0xffffffffffffffff\n        /* \"#utility.yul\":3748:3758   */\n      dup3\n        /* \"#utility.yul\":3745:3779   */\n      gt\n        /* \"#utility.yul\":3742:3804   */\n      or\n        /* \"#utility.yul\":3739:3827   */\n      iszero\n      tag_337\n      jumpi\n        /* \"#utility.yul\":3807:3825   */\n      tag_338\n      tag_231\n      jump\t// in\n    tag_338:\n        /* \"#utility.yul\":3739:3827   */\n    tag_337:\n        /* \"#utility.yul\":3847:3857   */\n      dup1\n        /* \"#utility.yul\":3843:3845   */\n      0x40\n        /* \"#utility.yul\":3836:3858   */\n      mstore\n        /* \"#utility.yul\":3626:3864   */\n      pop\n        /* \"#utility.yul\":3583:3864   */\n      pop\n      pop\n      jump\t// out\n        /* \"#utility.yul\":3870:3999   */\n    tag_233:\n        /* \"#utility.yul\":3904:3910   */\n      0x00\n        /* \"#utility.yul\":3931:3951   */\n      tag_340\n      tag_214\n      jump\t// in\n    tag_340:\n        /* \"#utility.yul\":3921:3951   */\n      swap1\n      pop\n        /* \"#utility.yul\":3960:3993   */\n      tag_341\n        /* \"#utility.yul\":3988:3992   */\n      dup3\n        /* \"#utility.yul\":3980:3986   */\n      dup3\n        /* \"#utility.yul\":3960:3993   */\n      tag_232\n      jump\t// in\n    tag_341:\n        /* \"#utility.yul\":3870:3999   */\n      swap2\n      swap1\n      pop\n      jump\t// out\n        /* \"#utility.yul\":4005:4316   */\n    tag_234:\n        /* \"#utility.yul\":4082:4086   */\n      0x00\n        /* \"#utility.yul\":4172:4190   */\n      0xffffffffffffffff\n        /* \"#utility.yul\":4164:4170   */\n      dup3\n        /* \"#utility.yul\":4161:4191   */\n      gt\n        /* \"#utility.yul\":4158:4214   */\n      iszero\n      tag_343\n      jumpi\n        /* \"#utility.yul\":4194:4212   */\n      tag_344\n      tag_231\n      jump\t// in\n    tag_344:\n        /* \"#utility.yul\":4158:4214   */\n    tag_343:\n        /* \"#utility.yul\":4244:4248   */\n      0x20\n        /* \"#utility.yul\":4236:4242   */\n      dup3\n        /* \"#utility.yul\":4232:4249   */\n      mul\n        /* \"#utility.yul\":4224:4249   */\n      swap1\n      pop\n        /* \"#utility.yul\":4304:4308   */\n      0x20\n        /* \"#utility.yul\":4298:4302   */\n      dup2\n        /* \"#utility.yul\":4294:4309   */\n      add\n        /* \"#utility.yul\":4286:4309   */\n      swap1\n      pop\n        /* \"#utility.yul\":4005:4316   */\n      swap2\n      swap1\n      pop\n      jump\t// out\n        /* \"#utility.yul\":4322:4439   */\n    tag_235:\n        /* \"#utility.yul\":4431:4432   */\n      0x00\n        /* \"#utility.yul\":4428:4429   */\n      dup1\n        /* \"#utility.yul\":4421:4433   */\n      revert\n        /* \"#utility.yul\":4445:4567   */\n    tag_236:\n        /* \"#utility.yul\":4518:4542   */\n      tag_347\n        /* \"#utility.yul\":4536:4541   */\n      dup2\n        /* \"#utility.yul\":4518:4542   */\n      tag_227\n      jump\t// in\n    tag_347:\n        /* \"#utility.yul\":4511:4516   */\n      dup2\n        /* \"#utility.yul\":4508:4543   */\n      eq\n        /* \"#utility.yul\":4498:4561   */\n      tag_348\n      jumpi\n        /* \"#utility.yul\":4557:4558   */\n      0x00\n        /* \"#utility.yul\":4554:4555   */\n      dup1\n        /* \"#utility.yul\":4547:4559   */\n      revert\n        /* \"#utility.yul\":4498:4561   */\n    tag_348:\n        /* \"#utility.yul\":4445:4567   */\n      pop\n      jump\t// out\n        /* \"#utility.yul\":4573:4712   */\n    tag_237:\n        /* \"#utility.yul\":4619:4624   */\n      0x00\n        /* \"#utility.yul\":4657:4663   */\n      dup2\n        /* \"#utility.yul\":4644:4664   */\n      calldataload\n        /* \"#utility.yul\":4635:4664   */\n      swap1\n      pop\n        /* \"#utility.yul\":4673:4706   */\n      tag_350\n        /* \"#utility.yul\":4700:4705   */\n      dup2\n        /* \"#utility.yul\":4673:4706   */\n      tag_236\n      jump\t// in\n    tag_350:\n        /* \"#utility.yul\":4573:4712   */\n      swap3\n      swap2\n      pop\n      pop\n      jump\t// out\n        /* \"#utility.yul\":4735:5445   */\n    tag_238:\n        /* \"#utility.yul\":4831:4836   */\n      0x00\n        /* \"#utility.yul\":4856:4937   */\n      tag_352\n        /* \"#utility.yul\":4872:4936   */\n      tag_353\n        /* \"#utility.yul\":4929:4935   */\n      dup5\n        /* \"#utility.yul\":4872:4936   */\n      tag_234\n      jump\t// in\n    tag_353:\n        /* \"#utility.yul\":4856:4937   */\n      tag_233\n      jump\t// in\n    tag_352:\n        /* \"#utility.yul\":4847:4937   */\n      swap1\n      pop\n        /* \"#utility.yul\":4957:4962   */\n      dup1\n        /* \"#utility.yul\":4986:4992   */\n      dup4\n        /* \"#utility.yul\":4979:4984   */\n      dup3\n        /* \"#utility.yul\":4972:4993   */\n      mstore\n        /* \"#utility.yul\":5020:5024   */\n      0x20\n        /* \"#utility.yul\":5013:5018   */\n      dup3\n        /* \"#utility.yul\":5009:5025   */\n      add\n        /* \"#utility.yul\":5002:5025   */\n      swap1\n      pop\n        /* \"#utility.yul\":5073:5077   */\n      0x20\n        /* \"#utility.yul\":5065:5071   */\n      dup5\n        /* \"#utility.yul\":5061:5078   */\n      mul\n        /* \"#utility.yul\":5053:5059   */\n      dup4\n        /* \"#utility.yul\":5049:5079   */\n      add\n        /* \"#utility.yul\":5102:5105   */\n      dup6\n        /* \"#utility.yul\":5094:5100   */\n      dup2\n        /* \"#utility.yul\":5091:5106   */\n      gt\n        /* \"#utility.yul\":5088:5210   */\n      iszero\n      tag_354\n      jumpi\n        /* \"#utility.yul\":5121:5200   */\n      tag_355\n      tag_235\n      jump\t// in\n    tag_355:\n        /* \"#utility.yul\":5088:5210   */\n    tag_354:\n        /* \"#utility.yul\":5236:5242   */\n      dup4\n        /* \"#utility.yul\":5219:5439   */\n    tag_356:\n        /* \"#utility.yul\":5253:5259   */\n      dup2\n        /* \"#utility.yul\":5248:5251   */\n      dup2\n        /* \"#utility.yul\":5245:5260   */\n      lt\n        /* \"#utility.yul\":5219:5439   */\n      iszero\n      tag_358\n      jumpi\n        /* \"#utility.yul\":5328:5331   */\n      dup1\n        /* \"#utility.yul\":5357:5394   */\n      tag_359\n        /* \"#utility.yul\":5390:5393   */\n      dup9\n        /* \"#utility.yul\":5378:5388   */\n      dup3\n        /* \"#utility.yul\":5357:5394   */\n      tag_237\n      jump\t// in\n    tag_359:\n        /* \"#utility.yul\":5352:5355   */\n      dup5\n        /* \"#utility.yul\":5345:5395   */\n      mstore\n        /* \"#utility.yul\":5424:5428   */\n      0x20\n        /* \"#utility.yul\":5419:5422   */\n      dup5\n        /* \"#utility.yul\":5415:5429   */\n      add\n        /* \"#utility.yul\":5408:5429   */\n      swap4\n      pop\n        /* \"#utility.yul\":5295:5439   */\n      pop\n        /* \"#utility.yul\":5279:5283   */\n      0x20\n        /* \"#utility.yul\":5274:5277   */\n      dup2\n        /* \"#utility.yul\":5270:5284   */\n      add\n        /* \"#utility.yul\":5263:5284   */\n      swap1\n      pop\n        /* \"#utility.yul\":5219:5439   */\n      jump(tag_356)\n    tag_358:\n        /* \"#utility.yul\":5223:5244   */\n      pop\n        /* \"#utility.yul\":4837:5445   */\n      pop\n      pop\n        /* \"#utility.yul\":4735:5445   */\n      swap4\n      swap3\n      pop\n      pop\n      pop\n      jump\t// out\n        /* \"#utility.yul\":5468:5838   */\n    tag_239:\n        /* \"#utility.yul\":5539:5544   */\n      0x00\n        /* \"#utility.yul\":5588:5591   */\n      dup3\n        /* \"#utility.yul\":5581:5585   */\n      0x1f\n        /* \"#utility.yul\":5573:5579   */\n      dup4\n        /* \"#utility.yul\":5569:5586   */\n      add\n        /* \"#utility.yul\":5565:5592   */\n      slt\n        /* \"#utility.yul\":5555:5677   */\n      tag_361\n      jumpi\n        /* \"#utility.yul\":5596:5675   */\n      tag_362\n      tag_229\n      jump\t// in\n    tag_362:\n        /* \"#utility.yul\":5555:5677   */\n    tag_361:\n        /* \"#utility.yul\":5713:5719   */\n      dup2\n        /* \"#utility.yul\":5700:5720   */\n      calldataload\n        /* \"#utility.yul\":5738:5832   */\n      tag_363\n        /* \"#utility.yul\":5828:5831   */\n      dup5\n        /* \"#utility.yul\":5820:5826   */\n      dup3\n        /* \"#utility.yul\":5813:5817   */\n      0x20\n        /* \"#utility.yul\":5805:5811   */\n      dup7\n        /* \"#utility.yul\":5801:5818   */\n      add\n        /* \"#utility.yul\":5738:5832   */\n      tag_238\n      jump\t// in\n    tag_363:\n        /* \"#utility.yul\":5729:5832   */\n      swap2\n      pop\n        /* \"#utility.yul\":5545:5838   */\n      pop\n        /* \"#utility.yul\":5468:5838   */\n      swap3\n      swap2\n      pop\n      pop\n      jump\t// out\n        /* \"#utility.yul\":5844:6383   */\n    tag_44:\n        /* \"#utility.yul\":5928:5934   */\n      0x00\n        /* \"#utility.yul\":5977:5979   */\n      0x20\n        /* \"#utility.yul\":5965:5974   */\n      dup3\n        /* \"#utility.yul\":5956:5963   */\n      dup5\n        /* \"#utility.yul\":5952:5975   */\n      sub\n        /* \"#utility.yul\":5948:5980   */\n      slt\n        /* \"#utility.yul\":5945:6064   */\n      iszero\n      tag_365\n      jumpi\n        /* \"#utility.yul\":5983:6062   */\n      tag_366\n      tag_215\n      jump\t// in\n    tag_366:\n        /* \"#utility.yul\":5945:6064   */\n    tag_365:\n        /* \"#utility.yul\":6131:6132   */\n      0x00\n        /* \"#utility.yul\":6120:6129   */\n      dup3\n        /* \"#utility.yul\":6116:6133   */\n      add\n        /* \"#utility.yul\":6103:6134   */\n      calldataload\n        /* \"#utility.yul\":6161:6179   */\n      0xffffffffffffffff\n        /* \"#utility.yul\":6153:6159   */\n      dup2\n        /* \"#utility.yul\":6150:6180   */\n      gt\n        /* \"#utility.yul\":6147:6264   */\n      iszero\n      tag_367\n      jumpi\n        /* \"#utility.yul\":6183:6262   */\n      tag_368\n      tag_216\n      jump\t// in\n    tag_368:\n        /* \"#utility.yul\":6147:6264   */\n    tag_367:\n        /* \"#utility.yul\":6288:6366   */\n      tag_369\n        /* \"#utility.yul\":6358:6365   */\n      dup5\n        /* \"#utility.yul\":6349:6355   */\n      dup3\n        /* \"#utility.yul\":6338:6347   */\n      dup6\n        /* \"#utility.yul\":6334:6356   */\n      add\n        /* \"#utility.yul\":6288:6366   */\n      tag_239\n      jump\t// in\n    tag_369:\n        /* \"#utility.yul\":6278:6366   */\n      swap2\n      pop\n        /* \"#utility.yul\":6074:6376   */\n      pop\n        /* \"#utility.yul\":5844:6383   */\n      swap3\n      swap2\n      pop\n      pop\n      jump\t// out\n        /* \"#utility.yul\":6389:7004   */\n    tag_48:\n        /* \"#utility.yul\":6464:6470   */\n      0x00\n        /* \"#utility.yul\":6472:6478   */\n      dup1\n        /* \"#utility.yul\":6480:6486   */\n      0x00\n        /* \"#utility.yul\":6529:6531   */\n      0x60\n        /* \"#utility.yul\":6517:6526   */\n      dup5\n        /* \"#utility.yul\":6508:6515   */\n      dup7\n        /* \"#utility.yul\":6504:6527   */\n      sub\n        /* \"#utility.yul\":6500:6532   */\n      slt\n        /* \"#utility.yul\":6497:6616   */\n      iszero\n      tag_371\n      jumpi\n        /* \"#utility.yul\":6535:6614   */\n      tag_372\n      tag_215\n      jump\t// in\n    tag_372:\n        /* \"#utility.yul\":6497:6616   */\n    tag_371:\n        /* \"#utility.yul\":6655:6656   */\n      0x00\n        /* \"#utility.yul\":6680:6731   */\n      tag_373\n        /* \"#utility.yul\":6723:6730   */\n      dup7\n        /* \"#utility.yul\":6714:6720   */\n      dup3\n        /* \"#utility.yul\":6703:6712   */\n      dup8\n        /* \"#utility.yul\":6699:6721   */\n      add\n        /* \"#utility.yul\":6680:6731   */\n      tag_226\n      jump\t// in\n    tag_373:\n        /* \"#utility.yul\":6670:6731   */\n      swap4\n      pop\n        /* \"#utility.yul\":6626:6741   */\n      pop\n        /* \"#utility.yul\":6780:6782   */\n      0x20\n        /* \"#utility.yul\":6806:6859   */\n      tag_374\n        /* \"#utility.yul\":6851:6858   */\n      dup7\n        /* \"#utility.yul\":6842:6848   */\n      dup3\n        /* \"#utility.yul\":6831:6840   */\n      dup8\n        /* \"#utility.yul\":6827:6849   */\n      add\n        /* \"#utility.yul\":6806:6859   */\n      tag_223\n      jump\t// in\n    tag_374:\n        /* \"#utility.yul\":6796:6859   */\n      swap3\n      pop\n        /* \"#utility.yul\":6751:6869   */\n      pop\n        /* \"#utility.yul\":6908:6910   */\n      0x40\n        /* \"#utility.yul\":6934:6987   */\n      tag_375\n        /* \"#utility.yul\":6979:6986   */\n      dup7\n        /* \"#utility.yul\":6970:6976   */\n      dup3\n        /* \"#utility.yul\":6959:6968   */\n      dup8\n        /* \"#utility.yul\":6955:6977   */\n      add\n        /* \"#utility.yul\":6934:6987   */\n      tag_223\n      jump\t// in\n    tag_375:\n        /* \"#utility.yul\":6924:6987   */\n      swap2\n      pop\n        /* \"#utility.yul\":6879:6997   */\n      pop\n        /* \"#utility.yul\":6389:7004   */\n      swap3\n      pop\n      swap3\n      pop\n      swap3\n      jump\t// out\n        /* \"#utility.yul\":7010:7100   */\n    tag_240:\n        /* \"#utility.yul\":7044:7051   */\n      0x00\n        /* \"#utility.yul\":7087:7092   */\n      dup2\n        /* \"#utility.yul\":7080:7093   */\n      iszero\n        /* \"#utility.yul\":7073:7094   */\n      iszero\n        /* \"#utility.yul\":7062:7094   */\n      swap1\n      pop\n        /* \"#utility.yul\":7010:7100   */\n      swap2\n      swap1\n      pop\n      jump\t// out\n        /* \"#utility.yul\":7106:7215   */\n    tag_241:\n        /* \"#utility.yul\":7187:7208   */\n      tag_378\n        /* \"#utility.yul\":7202:7207   */\n      dup2\n        /* \"#utility.yul\":7187:7208   */\n      tag_240\n      jump\t// in\n    tag_378:\n        /* \"#utility.yul\":7182:7185   */\n      dup3\n        /* \"#utility.yul\":7175:7209   */\n      mstore\n        /* \"#utility.yul\":7106:7215   */\n      pop\n      pop\n      jump\t// out\n        /* \"#utility.yul\":7221:7431   */\n    tag_51:\n        /* \"#utility.yul\":7308:7312   */\n      0x00\n        /* \"#utility.yul\":7346:7348   */\n      0x20\n        /* \"#utility.yul\":7335:7344   */\n      dup3\n        /* \"#utility.yul\":7331:7349   */\n      add\n        /* \"#utility.yul\":7323:7349   */\n      swap1\n      pop\n        /* \"#utility.yul\":7359:7424   */\n      tag_380\n        /* \"#utility.yul\":7421:7422   */\n      0x00\n        /* \"#utility.yul\":7410:7419   */\n      dup4\n        /* \"#utility.yul\":7406:7423   */\n      add\n        /* \"#utility.yul\":7397:7403   */\n      dup5\n        /* \"#utility.yul\":7359:7424   */\n      tag_241\n      jump\t// in\n    tag_380:\n        /* \"#utility.yul\":7221:7431   */\n      swap3\n      swap2\n      pop\n      pop\n      jump\t// out\n        /* \"#utility.yul\":7437:7555   */\n    tag_242:\n        /* \"#utility.yul\":7524:7548   */\n      tag_382\n        /* \"#utility.yul\":7542:7547   */\n      dup2\n        /* \"#utility.yul\":7524:7548   */\n      tag_221\n      jump\t// in\n    tag_382:\n        /* \"#utility.yul\":7519:7522   */\n      dup3\n        /* \"#utility.yul\":7512:7549   */\n      mstore\n        /* \"#utility.yul\":7437:7555   */\n      pop\n      pop\n      jump\t// out\n        /* \"#utility.yul\":7561:7783   */\n    tag_56:\n        /* \"#utility.yul\":7654:7658   */\n      0x00\n        /* \"#utility.yul\":7692:7694   */\n      0x20\n        /* \"#utility.yul\":7681:7690   */\n      dup3\n        /* \"#utility.yul\":7677:7695   */\n      add\n        /* \"#utility.yul\":7669:7695   */\n      swap1\n      pop\n        /* \"#utility.yul\":7705:7776   */\n      tag_384\n        /* \"#utility.yul\":7773:7774   */\n      0x00\n        /* \"#utility.yul\":7762:7771   */\n      dup4\n        /* \"#utility.yul\":7758:7775   */\n      add\n        /* \"#utility.yul\":7749:7755   */\n      dup5\n        /* \"#utility.yul\":7705:7776   */\n      tag_242\n      jump\t// in\n    tag_384:\n        /* \"#utility.yul\":7561:7783   */\n      swap3\n      swap2\n      pop\n      pop\n      jump\t// out\n        /* \"#utility.yul\":7789:7958   */\n    tag_243:\n        /* \"#utility.yul\":7873:7884   */\n      0x00\n        /* \"#utility.yul\":7907:7913   */\n      dup3\n        /* \"#utility.yul\":7902:7905   */\n      dup3\n        /* \"#utility.yul\":7895:7914   */\n      mstore\n        /* \"#utility.yul\":7947:7951   */\n      0x20\n        /* \"#utility.yul\":7942:7945   */\n      dup3\n        /* \"#utility.yul\":7938:7952   */\n      add\n        /* \"#utility.yul\":7923:7952   */\n      swap1\n      pop\n        /* \"#utility.yul\":7789:7958   */\n      swap3\n      swap2\n      pop\n      pop\n      jump\t// out\n        /* \"#utility.yul\":7964:8125   */\n    tag_244:\n        /* \"#utility.yul\":8104:8117   */\n      0x4c6f772042616c616e6365000000000000000000000000000000000000000000\n        /* \"#utility.yul\":8100:8101   */\n      0x00\n        /* \"#utility.yul\":8092:8098   */\n      dup3\n        /* \"#utility.yul\":8088:8102   */\n      add\n        /* \"#utility.yul\":8081:8118   */\n      mstore\n        /* \"#utility.yul\":7964:8125   */\n      pop\n      jump\t// out\n        /* \"#utility.yul\":8131:8497   */\n    tag_245:\n        /* \"#utility.yul\":8273:8276   */\n      0x00\n        /* \"#utility.yul\":8294:8361   */\n      tag_388\n        /* \"#utility.yul\":8358:8360   */\n      0x0b\n        /* \"#utility.yul\":8353:8356   */\n      dup4\n        /* \"#utility.yul\":8294:8361   */\n      tag_243\n      jump\t// in\n    tag_388:\n        /* \"#utility.yul\":8287:8361   */\n      swap2\n      pop\n        /* \"#utility.yul\":8370:8463   */\n      tag_389\n        /* \"#utility.yul\":8459:8462   */\n      dup3\n        /* \"#utility.yul\":8370:8463   */\n      tag_244\n      jump\t// in\n    tag_389:\n        /* \"#utility.yul\":8488:8490   */\n      0x20\n        /* \"#utility.yul\":8483:8486   */\n      dup3\n        /* \"#utility.yul\":8479:8491   */\n      add\n        /* \"#utility.yul\":8472:8491   */\n      swap1\n      pop\n        /* \"#utility.yul\":8131:8497   */\n      swap2\n      swap1\n      pop\n      jump\t// out\n        /* \"#utility.yul\":8503:8922   */\n    tag_85:\n        /* \"#utility.yul\":8669:8673   */\n      0x00\n        /* \"#utility.yul\":8707:8709   */\n      0x20\n        /* \"#utility.yul\":8696:8705   */\n      dup3\n        /* \"#utility.yul\":8692:8710   */\n      add\n        /* \"#utility.yul\":8684:8710   */\n      swap1\n      pop\n        /* \"#utility.yul\":8756:8765   */\n      dup2\n        /* \"#utility.yul\":8750:8754   */\n      dup2\n        /* \"#utility.yul\":8746:8766   */\n      sub\n        /* \"#utility.yul\":8742:8743   */\n      0x00\n        /* \"#utility.yul\":8731:8740   */\n      dup4\n        /* \"#utility.yul\":8727:8744   */\n      add\n        /* \"#utility.yul\":8720:8767   */\n      mstore\n        /* \"#utility.yul\":8784:8915   */\n      tag_391\n        /* \"#utility.yul\":8910:8914   */\n      dup2\n        /* \"#utility.yul\":8784:8915   */\n      tag_245\n      jump\t// in\n    tag_391:\n        /* \"#utility.yul\":8776:8915   */\n      swap1\n      pop\n        /* \"#utility.yul\":8503:8922   */\n      swap2\n      swap1\n      pop\n      jump\t// out\n        /* \"#utility.yul\":8928:9026   */\n    tag_246:\n        /* \"#utility.yul\":8979:8985   */\n      0x00\n        /* \"#utility.yul\":9013:9018   */\n      dup2\n        /* \"#utility.yul\":9007:9019   */\n      mload\n        /* \"#utility.yul\":8997:9019   */\n      swap1\n      pop\n        /* \"#utility.yul\":8928:9026   */\n      swap2\n      swap1\n      pop\n      jump\t// out\n        /* \"#utility.yul\":9032:9179   */\n    tag_247:\n        /* \"#utility.yul\":9133:9144   */\n      0x00\n        /* \"#utility.yul\":9170:9173   */\n      dup2\n        /* \"#utility.yul\":9155:9173   */\n      swap1\n      pop\n        /* \"#utility.yul\":9032:9179   */\n      swap3\n      swap2\n      pop\n      pop\n      jump\t// out\n        /* \"#utility.yul\":9185:9492   */\n    tag_248:\n        /* \"#utility.yul\":9253:9254   */\n      0x00\n        /* \"#utility.yul\":9263:9376   */\n    tag_395:\n        /* \"#utility.yul\":9277:9283   */\n      dup4\n        /* \"#utility.yul\":9274:9275   */\n      dup2\n        /* \"#utility.yul\":9271:9284   */\n      lt\n        /* \"#utility.yul\":9263:9376   */\n      iszero\n      tag_397\n      jumpi\n        /* \"#utility.yul\":9362:9363   */\n      dup1\n        /* \"#utility.yul\":9357:9360   */\n      dup3\n        /* \"#utility.yul\":9353:9364   */\n      add\n        /* \"#utility.yul\":9347:9365   */\n      mload\n        /* \"#utility.yul\":9343:9344   */\n      dup2\n        /* \"#utility.yul\":9338:9341   */\n      dup5\n        /* \"#utility.yul\":9334:9345   */\n      add\n        /* \"#utility.yul\":9327:9366   */\n      mstore\n        /* \"#utility.yul\":9299:9301   */\n      0x20\n        /* \"#utility.yul\":9296:9297   */\n      dup2\n        /* \"#utility.yul\":9292:9302   */\n      add\n        /* \"#utility.yul\":9287:9302   */\n      swap1\n      pop\n        /* \"#utility.yul\":9263:9376   */\n      jump(tag_395)\n    tag_397:\n        /* \"#utility.yul\":9394:9400   */\n      dup4\n        /* \"#utility.yul\":9391:9392   */\n      dup2\n        /* \"#utility.yul\":9388:9401   */\n      gt\n        /* \"#utility.yul\":9385:9486   */\n      iszero\n      tag_398\n      jumpi\n        /* \"#utility.yul\":9474:9475   */\n      0x00\n        /* \"#utility.yul\":9465:9471   */\n      dup5\n        /* \"#utility.yul\":9460:9463   */\n      dup5\n        /* \"#utility.yul\":9456:9472   */\n      add\n        /* \"#utility.yul\":9449:9476   */\n      mstore\n        /* \"#utility.yul\":9385:9486   */\n    tag_398:\n        /* \"#utility.yul\":9234:9492   */\n      pop\n        /* \"#utility.yul\":9185:9492   */\n      pop\n      pop\n      pop\n      jump\t// out\n        /* \"#utility.yul\":9498:9871   */\n    tag_249:\n        /* \"#utility.yul\":9602:9605   */\n      0x00\n        /* \"#utility.yul\":9630:9668   */\n      tag_400\n        /* \"#utility.yul\":9662:9667   */\n      dup3\n        /* \"#utility.yul\":9630:9668   */\n      tag_246\n      jump\t// in\n    tag_400:\n        /* \"#utility.yul\":9684:9772   */\n      tag_401\n        /* \"#utility.yul\":9765:9771   */\n      dup2\n        /* \"#utility.yul\":9760:9763   */\n      dup6\n        /* \"#utility.yul\":9684:9772   */\n      tag_247\n      jump\t// in\n    tag_401:\n        /* \"#utility.yul\":9677:9772   */\n      swap4\n      pop\n        /* \"#utility.yul\":9781:9833   */\n      tag_402\n        /* \"#utility.yul\":9826:9832   */\n      dup2\n        /* \"#utility.yul\":9821:9824   */\n      dup6\n        /* \"#utility.yul\":9814:9818   */\n      0x20\n        /* \"#utility.yul\":9807:9812   */\n      dup7\n        /* \"#utility.yul\":9803:9819   */\n      add\n        /* \"#utility.yul\":9781:9833   */\n      tag_248\n      jump\t// in\n    tag_402:\n        /* \"#utility.yul\":9858:9864   */\n      dup1\n        /* \"#utility.yul\":9853:9856   */\n      dup5\n        /* \"#utility.yul\":9849:9865   */\n      add\n        /* \"#utility.yul\":9842:9865   */\n      swap2\n      pop\n        /* \"#utility.yul\":9606:9871   */\n      pop\n        /* \"#utility.yul\":9498:9871   */\n      swap3\n      swap2\n      pop\n      pop\n      jump\t// out\n        /* \"#utility.yul\":9877:9956   */\n    tag_250:\n        /* \"#utility.yul\":9916:9923   */\n      0x00\n        /* \"#utility.yul\":9945:9950   */\n      dup2\n        /* \"#utility.yul\":9934:9950   */\n      swap1\n      pop\n        /* \"#utility.yul\":9877:9956   */\n      swap2\n      swap1\n      pop\n      jump\t// out\n        /* \"#utility.yul\":9962:10119   */\n    tag_251:\n        /* \"#utility.yul\":10067:10112   */\n      tag_405\n        /* \"#utility.yul\":10087:10111   */\n      tag_406\n        /* \"#utility.yul\":10105:10110   */\n      dup3\n        /* \"#utility.yul\":10087:10111   */\n      tag_221\n      jump\t// in\n    tag_406:\n        /* \"#utility.yul\":10067:10112   */\n      tag_250\n      jump\t// in\n    tag_405:\n        /* \"#utility.yul\":10062:10065   */\n      dup3\n        /* \"#utility.yul\":10055:10113   */\n      mstore\n        /* \"#utility.yul\":9962:10119   */\n      pop\n      pop\n      jump\t// out\n        /* \"#utility.yul\":10125:10537   */\n    tag_90:\n        /* \"#utility.yul\":10283:10286   */\n      0x00\n        /* \"#utility.yul\":10305:10398   */\n      tag_408\n        /* \"#utility.yul\":10394:10397   */\n      dup3\n        /* \"#utility.yul\":10385:10391   */\n      dup6\n        /* \"#utility.yul\":10305:10398   */\n      tag_249\n      jump\t// in\n    tag_408:\n        /* \"#utility.yul\":10298:10398   */\n      swap2\n      pop\n        /* \"#utility.yul\":10408:10483   */\n      tag_409\n        /* \"#utility.yul\":10479:10482   */\n      dup3\n        /* \"#utility.yul\":10470:10476   */\n      dup5\n        /* \"#utility.yul\":10408:10483   */\n      tag_251\n      jump\t// in\n    tag_409:\n        /* \"#utility.yul\":10508:10510   */\n      0x20\n        /* \"#utility.yul\":10503:10506   */\n      dup3\n        /* \"#utility.yul\":10499:10511   */\n      add\n        /* \"#utility.yul\":10492:10511   */\n      swap2\n      pop\n        /* \"#utility.yul\":10528:10531   */\n      dup2\n        /* \"#utility.yul\":10521:10531   */\n      swap1\n      pop\n        /* \"#utility.yul\":10125:10537   */\n      swap4\n      swap3\n      pop\n      pop\n      pop\n      jump\t// out\n        /* \"#utility.yul\":10543:10655   */\n    tag_252:\n        /* \"#utility.yul\":10626:10648   */\n      tag_411\n        /* \"#utility.yul\":10642:10647   */\n      dup2\n        /* \"#utility.yul\":10626:10648   */\n      tag_224\n      jump\t// in\n    tag_411:\n        /* \"#utility.yul\":10621:10624   */\n      dup3\n        /* \"#utility.yul\":10614:10649   */\n      mstore\n        /* \"#utility.yul\":10543:10655   */\n      pop\n      pop\n      jump\t// out\n        /* \"#utility.yul\":10661:11206   */\n    tag_92:\n        /* \"#utility.yul\":10834:10838   */\n      0x00\n        /* \"#utility.yul\":10872:10875   */\n      0x80\n        /* \"#utility.yul\":10861:10870   */\n      dup3\n        /* \"#utility.yul\":10857:10876   */\n      add\n        /* \"#utility.yul\":10849:10876   */\n      swap1\n      pop\n        /* \"#utility.yul\":10886:10957   */\n      tag_413\n        /* \"#utility.yul\":10954:10955   */\n      0x00\n        /* \"#utility.yul\":10943:10952   */\n      dup4\n        /* \"#utility.yul\":10939:10956   */\n      add\n        /* \"#utility.yul\":10930:10936   */\n      dup8\n        /* \"#utility.yul\":10886:10957   */\n      tag_242\n      jump\t// in\n    tag_413:\n        /* \"#utility.yul\":10967:11035   */\n      tag_414\n        /* \"#utility.yul\":11031:11033   */\n      0x20\n        /* \"#utility.yul\":11020:11029   */\n      dup4\n        /* \"#utility.yul\":11016:11034   */\n      add\n        /* \"#utility.yul\":11007:11013   */\n      dup7\n        /* \"#utility.yul\":10967:11035   */\n      tag_252\n      jump\t// in\n    tag_414:\n        /* \"#utility.yul\":11045:11117   */\n      tag_415\n        /* \"#utility.yul\":11113:11115   */\n      0x40\n        /* \"#utility.yul\":11102:11111   */\n      dup4\n        /* \"#utility.yul\":11098:11116   */\n      add\n        /* \"#utility.yul\":11089:11095   */\n      dup6\n        /* \"#utility.yul\":11045:11117   */\n      tag_242\n      jump\t// in\n    tag_415:\n        /* \"#utility.yul\":11127:11199   */\n      tag_416\n        /* \"#utility.yul\":11195:11197   */\n      0x60\n        /* \"#utility.yul\":11184:11193   */\n      dup4\n        /* \"#utility.yul\":11180:11198   */\n      add\n        /* \"#utility.yul\":11171:11177   */\n      dup5\n        /* \"#utility.yul\":11127:11199   */\n      tag_242\n      jump\t// in\n    tag_416:\n        /* \"#utility.yul\":10661:11206   */\n      swap6\n      swap5\n      pop\n      pop\n      pop\n      pop\n      pop\n      jump\t// out\n        /* \"#utility.yul\":11212:11377   */\n    tag_253:\n        /* \"#utility.yul\":11352:11369   */\n      0x41637469766520436f6e74726163740000000000000000000000000000000000\n        /* \"#utility.yul\":11348:11349   */\n      0x00\n        /* \"#utility.yul\":11340:11346   */\n      dup3\n        /* \"#utility.yul\":11336:11350   */\n      add\n        /* \"#utility.yul\":11329:11370   */\n      mstore\n        /* \"#utility.yul\":11212:11377   */\n      pop\n      jump\t// out\n        /* \"#utility.yul\":11383:11749   */\n    tag_254:\n        /* \"#utility.yul\":11525:11528   */\n      0x00\n        /* \"#utility.yul\":11546:11613   */\n      tag_419\n        /* \"#utility.yul\":11610:11612   */\n      0x0f\n        /* \"#utility.yul\":11605:11608   */\n      dup4\n        /* \"#utility.yul\":11546:11613   */\n      tag_243\n      jump\t// in\n    tag_419:\n        /* \"#utility.yul\":11539:11613   */\n      swap2\n      pop\n        /* \"#utility.yul\":11622:11715   */\n      tag_420\n        /* \"#utility.yul\":11711:11714   */\n      dup3\n        /* \"#utility.yul\":11622:11715   */\n      tag_253\n      jump\t// in\n    tag_420:\n        /* \"#utility.yul\":11740:11742   */\n      0x20\n        /* \"#utility.yul\":11735:11738   */\n      dup3\n        /* \"#utility.yul\":11731:11743   */\n      add\n        /* \"#utility.yul\":11724:11743   */\n      swap1\n      pop\n        /* \"#utility.yul\":11383:11749   */\n      swap2\n      swap1\n      pop\n      jump\t// out\n        /* \"#utility.yul\":11755:12174   */\n    tag_100:\n        /* \"#utility.yul\":11921:11925   */\n      0x00\n        /* \"#utility.yul\":11959:11961   */\n      0x20\n        /* \"#utility.yul\":11948:11957   */\n      dup3\n        /* \"#utility.yul\":11944:11962   */\n      add\n        /* \"#utility.yul\":11936:11962   */\n      swap1\n      pop\n        /* \"#utility.yul\":12008:12017   */\n      dup2\n        /* \"#utility.yul\":12002:12006   */\n      dup2\n        /* \"#utility.yul\":11998:12018   */\n      sub\n        /* \"#utility.yul\":11994:11995   */\n      0x00\n        /* \"#utility.yul\":11983:11992   */\n      dup4\n        /* \"#utility.yul\":11979:11996   */\n      add\n        /* \"#utility.yul\":11972:12019   */\n      mstore\n        /* \"#utility.yul\":12036:12167   */\n      tag_422\n        /* \"#utility.yul\":12162:12166   */\n      dup2\n        /* \"#utility.yul\":12036:12167   */\n      tag_254\n      jump\t// in\n    tag_422:\n        /* \"#utility.yul\":12028:12167   */\n      swap1\n      pop\n        /* \"#utility.yul\":11755:12174   */\n      swap2\n      swap1\n      pop\n      jump\t// out\n        /* \"#utility.yul\":12180:12352   */\n    tag_255:\n        /* \"#utility.yul\":12320:12344   */\n      0x4e6f20646973707574657320746f207265736f6c766500000000000000000000\n        /* \"#utility.yul\":12316:12317   */\n      0x00\n        /* \"#utility.yul\":12308:12314   */\n      dup3\n        /* \"#utility.yul\":12304:12318   */\n      add\n        /* \"#utility.yul\":12297:12345   */\n      mstore\n        /* \"#utility.yul\":12180:12352   */\n      pop\n      jump\t// out\n        /* \"#utility.yul\":12358:12724   */\n    tag_256:\n        /* \"#utility.yul\":12500:12503   */\n      0x00\n        /* \"#utility.yul\":12521:12588   */\n      tag_425\n        /* \"#utility.yul\":12585:12587   */\n      0x16\n        /* \"#utility.yul\":12580:12583   */\n      dup4\n        /* \"#utility.yul\":12521:12588   */\n      tag_243\n      jump\t// in\n    tag_425:\n        /* \"#utility.yul\":12514:12588   */\n      swap2\n      pop\n        /* \"#utility.yul\":12597:12690   */\n      tag_426\n        /* \"#utility.yul\":12686:12689   */\n      dup3\n        /* \"#utility.yul\":12597:12690   */\n      tag_255\n      jump\t// in\n    tag_426:\n        /* \"#utility.yul\":12715:12717   */\n      0x20\n        /* \"#utility.yul\":12710:12713   */\n      dup3\n        /* \"#utility.yul\":12706:12718   */\n      add\n        /* \"#utility.yul\":12699:12718   */\n      swap1\n      pop\n        /* \"#utility.yul\":12358:12724   */\n      swap2\n      swap1\n      pop\n      jump\t// out\n        /* \"#utility.yul\":12730:13149   */\n    tag_104:\n        /* \"#utility.yul\":12896:12900   */\n      0x00\n        /* \"#utility.yul\":12934:12936   */\n      0x20\n        /* \"#utility.yul\":12923:12932   */\n      dup3\n        /* \"#utility.yul\":12919:12937   */\n      add\n        /* \"#utility.yul\":12911:12937   */\n      swap1\n      pop\n        /* \"#utility.yul\":12983:12992   */\n      dup2\n        /* \"#utility.yul\":12977:12981   */\n      dup2\n        /* \"#utility.yul\":12973:12993   */\n      sub\n        /* \"#utility.yul\":12969:12970   */\n      0x00\n        /* \"#utility.yul\":12958:12967   */\n      dup4\n        /* \"#utility.yul\":12954:12971   */\n      add\n        /* \"#utility.yul\":12947:12994   */\n      mstore\n        /* \"#utility.yul\":13011:13142   */\n      tag_428\n        /* \"#utility.yul\":13137:13141   */\n      dup2\n        /* \"#utility.yul\":13011:13142   */\n      tag_256\n      jump\t// in\n    tag_428:\n        /* \"#utility.yul\":13003:13142   */\n      swap1\n      pop\n        /* \"#utility.yul\":12730:13149   */\n      swap2\n      swap1\n      pop\n      jump\t// out\n        /* \"#utility.yul\":13155:13335   */\n    tag_112:\n        /* \"#utility.yul\":13203:13280   */\n      0x4e487b7100000000000000000000000000000000000000000000000000000000\n        /* \"#utility.yul\":13200:13201   */\n      0x00\n        /* \"#utility.yul\":13193:13281   */\n      mstore\n        /* \"#utility.yul\":13300:13304   */\n      0x32\n        /* \"#utility.yul\":13297:13298   */\n      0x04\n        /* \"#utility.yul\":13290:13305   */\n      mstore\n        /* \"#utility.yul\":13324:13328   */\n      0x24\n        /* \"#utility.yul\":13321:13322   */\n      0x00\n        /* \"#utility.yul\":13314:13329   */\n      revert\n        /* \"#utility.yul\":13341:13521   */\n    tag_257:\n        /* \"#utility.yul\":13389:13466   */\n      0x4e487b7100000000000000000000000000000000000000000000000000000000\n        /* \"#utility.yul\":13386:13387   */\n      0x00\n        /* \"#utility.yul\":13379:13467   */\n      mstore\n        /* \"#utility.yul\":13486:13490   */\n      0x11\n        /* \"#utility.yul\":13483:13484   */\n      0x04\n        /* \"#utility.yul\":13476:13491   */\n      mstore\n        /* \"#utility.yul\":13510:13514   */\n      0x24\n        /* \"#utility.yul\":13507:13508   */\n      0x00\n        /* \"#utility.yul\":13500:13515   */\n      revert\n        /* \"#utility.yul\":13527:13694   */\n    tag_116:\n        /* \"#utility.yul\":13564:13567   */\n      0x00\n        /* \"#utility.yul\":13587:13609   */\n      tag_432\n        /* \"#utility.yul\":13603:13608   */\n      dup3\n        /* \"#utility.yul\":13587:13609   */\n      tag_224\n      jump\t// in\n    tag_432:\n        /* \"#utility.yul\":13578:13609   */\n      swap2\n      pop\n        /* \"#utility.yul\":13631:13635   */\n      0xff\n        /* \"#utility.yul\":13624:13629   */\n      dup3\n        /* \"#utility.yul\":13621:13636   */\n      sub\n        /* \"#utility.yul\":13618:13659   */\n      tag_433\n      jumpi\n        /* \"#utility.yul\":13639:13657   */\n      tag_434\n      tag_257\n      jump\t// in\n    tag_434:\n        /* \"#utility.yul\":13618:13659   */\n    tag_433:\n        /* \"#utility.yul\":13686:13687   */\n      0x01\n        /* \"#utility.yul\":13679:13684   */\n      dup3\n        /* \"#utility.yul\":13675:13688   */\n      add\n        /* \"#utility.yul\":13668:13688   */\n      swap1\n      pop\n        /* \"#utility.yul\":13527:13694   */\n      swap2\n      swap1\n      pop\n      jump\t// out\n        /* \"#utility.yul\":13700:13882   */\n    tag_258:\n        /* \"#utility.yul\":13840:13874   */\n      0x416c6c2061726269747261746f727320686176656e2774207265736f6c766564\n        /* \"#utility.yul\":13836:13837   */\n      0x00\n        /* \"#utility.yul\":13828:13834   */\n      dup3\n        /* \"#utility.yul\":13824:13838   */\n      add\n        /* \"#utility.yul\":13817:13875   */\n      mstore\n        /* \"#utility.yul\":13700:13882   */\n      pop\n      jump\t// out\n        /* \"#utility.yul\":13888:14254   */\n    tag_259:\n        /* \"#utility.yul\":14030:14033   */\n      0x00\n        /* \"#utility.yul\":14051:14118   */\n      tag_437\n        /* \"#utility.yul\":14115:14117   */\n      0x20\n        /* \"#utility.yul\":14110:14113   */\n      dup4\n        /* \"#utility.yul\":14051:14118   */\n      tag_243\n      jump\t// in\n    tag_437:\n        /* \"#utility.yul\":14044:14118   */\n      swap2\n      pop\n        /* \"#utility.yul\":14127:14220   */\n      tag_438\n        /* \"#utility.yul\":14216:14219   */\n      dup3\n        /* \"#utility.yul\":14127:14220   */\n      tag_258\n      jump\t// in\n    tag_438:\n        /* \"#utility.yul\":14245:14247   */\n      0x20\n        /* \"#utility.yul\":14240:14243   */\n      dup3\n        /* \"#utility.yul\":14236:14248   */\n      add\n        /* \"#utility.yul\":14229:14248   */\n      swap1\n      pop\n        /* \"#utility.yul\":13888:14254   */\n      swap2\n      swap1\n      pop\n      jump\t// out\n        /* \"#utility.yul\":14260:14679   */\n    tag_119:\n        /* \"#utility.yul\":14426:14430   */\n      0x00\n        /* \"#utility.yul\":14464:14466   */\n      0x20\n        /* \"#utility.yul\":14453:14462   */\n      dup3\n        /* \"#utility.yul\":14449:14467   */\n      add\n        /* \"#utility.yul\":14441:14467   */\n      swap1\n      pop\n        /* \"#utility.yul\":14513:14522   */\n      dup2\n        /* \"#utility.yul\":14507:14511   */\n      dup2\n        /* \"#utility.yul\":14503:14523   */\n      sub\n        /* \"#utility.yul\":14499:14500   */\n      0x00\n        /* \"#utility.yul\":14488:14497   */\n      dup4\n        /* \"#utility.yul\":14484:14501   */\n      add\n        /* \"#utility.yul\":14477:14524   */\n      mstore\n        /* \"#utility.yul\":14541:14672   */\n      tag_440\n        /* \"#utility.yul\":14667:14671   */\n      dup2\n        /* \"#utility.yul\":14541:14672   */\n      tag_259\n      jump\t// in\n    tag_440:\n        /* \"#utility.yul\":14533:14672   */\n      swap1\n      pop\n        /* \"#utility.yul\":14260:14679   */\n      swap2\n      swap1\n      pop\n      jump\t// out\n        /* \"#utility.yul\":14685:14848   */\n    tag_260:\n        /* \"#utility.yul\":14825:14840   */\n      0x4f6e6c7920456d706c6f79656500000000000000000000000000000000000000\n        /* \"#utility.yul\":14821:14822   */\n      0x00\n        /* \"#utility.yul\":14813:14819   */\n      dup3\n        /* \"#utility.yul\":14809:14823   */\n      add\n        /* \"#utility.yul\":14802:14841   */\n      mstore\n        /* \"#utility.yul\":14685:14848   */\n      pop\n      jump\t// out\n        /* \"#utility.yul\":14854:15220   */\n    tag_261:\n        /* \"#utility.yul\":14996:14999   */\n      0x00\n        /* \"#utility.yul\":15017:15084   */\n      tag_443\n        /* \"#utility.yul\":15081:15083   */\n      0x0d\n        /* \"#utility.yul\":15076:15079   */\n      dup4\n        /* \"#utility.yul\":15017:15084   */\n      tag_243\n      jump\t// in\n    tag_443:\n        /* \"#utility.yul\":15010:15084   */\n      swap2\n      pop\n        /* \"#utility.yul\":15093:15186   */\n      tag_444\n        /* \"#utility.yul\":15182:15185   */\n      dup3\n        /* \"#utility.yul\":15093:15186   */\n      tag_260\n      jump\t// in\n    tag_444:\n        /* \"#utility.yul\":15211:15213   */\n      0x20\n        /* \"#utility.yul\":15206:15209   */\n      dup3\n        /* \"#utility.yul\":15202:15214   */\n      add\n        /* \"#utility.yul\":15195:15214   */\n      swap1\n      pop\n        /* \"#utility.yul\":14854:15220   */\n      swap2\n      swap1\n      pop\n      jump\t// out\n        /* \"#utility.yul\":15226:15645   */\n    tag_127:\n        /* \"#utility.yul\":15392:15396   */\n      0x00\n        /* \"#utility.yul\":15430:15432   */\n      0x20\n        /* \"#utility.yul\":15419:15428   */\n      dup3\n        /* \"#utility.yul\":15415:15433   */\n      add\n        /* \"#utility.yul\":15407:15433   */\n      swap1\n      pop\n        /* \"#utility.yul\":15479:15488   */\n      dup2\n        /* \"#utility.yul\":15473:15477   */\n      dup2\n        /* \"#utility.yul\":15469:15489   */\n      sub\n        /* \"#utility.yul\":15465:15466   */\n      0x00\n        /* \"#utility.yul\":15454:15463   */\n      dup4\n        /* \"#utility.yul\":15450:15467   */\n      add\n        /* \"#utility.yul\":15443:15490   */\n      mstore\n        /* \"#utility.yul\":15507:15638   */\n      tag_446\n        /* \"#utility.yul\":15633:15637   */\n      dup2\n        /* \"#utility.yul\":15507:15638   */\n      tag_261\n      jump\t// in\n    tag_446:\n        /* \"#utility.yul\":15499:15638   */\n      swap1\n      pop\n        /* \"#utility.yul\":15226:15645   */\n      swap2\n      swap1\n      pop\n      jump\t// out\n        /* \"#utility.yul\":15651:15825   */\n    tag_262:\n        /* \"#utility.yul\":15791:15817   */\n      0x4e6f206d6f7265207468616e203520617070726f766572730000000000000000\n        /* \"#utility.yul\":15787:15788   */\n      0x00\n        /* \"#utility.yul\":15779:15785   */\n      dup3\n        /* \"#utility.yul\":15775:15789   */\n      add\n        /* \"#utility.yul\":15768:15818   */\n      mstore\n        /* \"#utility.yul\":15651:15825   */\n      pop\n      jump\t// out\n        /* \"#utility.yul\":15831:16197   */\n    tag_263:\n        /* \"#utility.yul\":15973:15976   */\n      0x00\n        /* \"#utility.yul\":15994:16061   */\n      tag_449\n        /* \"#utility.yul\":16058:16060   */\n      0x18\n        /* \"#utility.yul\":16053:16056   */\n      dup4\n        /* \"#utility.yul\":15994:16061   */\n      tag_243\n      jump\t// in\n    tag_449:\n        /* \"#utility.yul\":15987:16061   */\n      swap2\n      pop\n        /* \"#utility.yul\":16070:16163   */\n      tag_450\n        /* \"#utility.yul\":16159:16162   */\n      dup3\n        /* \"#utility.yul\":16070:16163   */\n      tag_262\n      jump\t// in\n    tag_450:\n        /* \"#utility.yul\":16188:16190   */\n      0x20\n        /* \"#utility.yul\":16183:16186   */\n      dup3\n        /* \"#utility.yul\":16179:16191   */\n      add\n        /* \"#utility.yul\":16172:16191   */\n      swap1\n      pop\n        /* \"#utility.yul\":15831:16197   */\n      swap2\n      swap1\n      pop\n      jump\t// out\n        /* \"#utility.yul\":16203:16622   */\n    tag_131:\n        /* \"#utility.yul\":16369:16373   */\n      0x00\n        /* \"#utility.yul\":16407:16409   */\n      0x20\n        /* \"#utility.yul\":16396:16405   */\n      dup3\n        /* \"#utility.yul\":16392:16410   */\n      add\n        /* \"#utility.yul\":16384:16410   */\n      swap1\n      pop\n        /* \"#utility.yul\":16456:16465   */\n      dup2\n        /* \"#utility.yul\":16450:16454   */\n      dup2\n        /* \"#utility.yul\":16446:16466   */\n      sub\n        /* \"#utility.yul\":16442:16443   */\n      0x00\n        /* \"#utility.yul\":16431:16440   */\n      dup4\n        /* \"#utility.yul\":16427:16444   */\n      add\n        /* \"#utility.yul\":16420:16467   */\n      mstore\n        /* \"#utility.yul\":16484:16615   */\n      tag_452\n        /* \"#utility.yul\":16610:16614   */\n      dup2\n        /* \"#utility.yul\":16484:16615   */\n      tag_263\n      jump\t// in\n    tag_452:\n        /* \"#utility.yul\":16476:16615   */\n      swap1\n      pop\n        /* \"#utility.yul\":16203:16622   */\n      swap2\n      swap1\n      pop\n      jump\t// out\n        /* \"#utility.yul\":16628:16799   */\n    tag_264:\n        /* \"#utility.yul\":16768:16791   */\n      0x43616e27742068617665207a65726f207374616b650000000000000000000000\n        /* \"#utility.yul\":16764:16765   */\n      0x00\n        /* \"#utility.yul\":16756:16762   */\n      dup3\n        /* \"#utility.yul\":16752:16766   */\n      add\n        /* \"#utility.yul\":16745:16792   */\n      mstore\n        /* \"#utility.yul\":16628:16799   */\n      pop\n      jump\t// out\n        /* \"#utility.yul\":16805:17171   */\n    tag_265:\n        /* \"#utility.yul\":16947:16950   */\n      0x00\n        /* \"#utility.yul\":16968:17035   */\n      tag_455\n        /* \"#utility.yul\":17032:17034   */\n      0x15\n        /* \"#utility.yul\":17027:17030   */\n      dup4\n        /* \"#utility.yul\":16968:17035   */\n      tag_243\n      jump\t// in\n    tag_455:\n        /* \"#utility.yul\":16961:17035   */\n      swap2\n      pop\n        /* \"#utility.yul\":17044:17137   */\n      tag_456\n        /* \"#utility.yul\":17133:17136   */\n      dup3\n        /* \"#utility.yul\":17044:17137   */\n      tag_264\n      jump\t// in\n    tag_456:\n        /* \"#utility.yul\":17162:17164   */\n      0x20\n        /* \"#utility.yul\":17157:17160   */\n      dup3\n        /* \"#utility.yul\":17153:17165   */\n      add\n        /* \"#utility.yul\":17146:17165   */\n      swap1\n      pop\n        /* \"#utility.yul\":16805:17171   */\n      swap2\n      swap1\n      pop\n      jump\t// out\n        /* \"#utility.yul\":17177:17596   */\n    tag_141:\n        /* \"#utility.yul\":17343:17347   */\n      0x00\n        /* \"#utility.yul\":17381:17383   */\n      0x20\n        /* \"#utility.yul\":17370:17379   */\n      dup3\n        /* \"#utility.yul\":17366:17384   */\n      add\n        /* \"#utility.yul\":17358:17384   */\n      swap1\n      pop\n        /* \"#utility.yul\":17430:17439   */\n      dup2\n        /* \"#utility.yul\":17424:17428   */\n      dup2\n        /* \"#utility.yul\":17420:17440   */\n      sub\n        /* \"#utility.yul\":17416:17417   */\n      0x00\n        /* \"#utility.yul\":17405:17414   */\n      dup4\n        /* \"#utility.yul\":17401:17418   */\n      add\n        /* \"#utility.yul\":17394:17441   */\n      mstore\n        /* \"#utility.yul\":17458:17589   */\n      tag_458\n        /* \"#utility.yul\":17584:17588   */\n      dup2\n        /* \"#utility.yul\":17458:17589   */\n      tag_265\n      jump\t// in\n    tag_458:\n        /* \"#utility.yul\":17450:17589   */\n      swap1\n      pop\n        /* \"#utility.yul\":17177:17596   */\n      swap2\n      swap1\n      pop\n      jump\t// out\n        /* \"#utility.yul\":17602:17773   */\n    tag_266:\n        /* \"#utility.yul\":17742:17765   */\n      0x456d706c6f796572205369676e20496e76616c69640000000000000000000000\n        /* \"#utility.yul\":17738:17739   */\n      0x00\n        /* \"#utility.yul\":17730:17736   */\n      dup3\n        /* \"#utility.yul\":17726:17740   */\n      add\n        /* \"#utility.yul\":17719:17766   */\n      mstore\n        /* \"#utility.yul\":17602:17773   */\n      pop\n      jump\t// out\n        /* \"#utility.yul\":17779:18145   */\n    tag_267:\n        /* \"#utility.yul\":17921:17924   */\n      0x00\n        /* \"#utility.yul\":17942:18009   */\n      tag_461\n        /* \"#utility.yul\":18006:18008   */\n      0x15\n        /* \"#utility.yul\":18001:18004   */\n      dup4\n        /* \"#utility.yul\":17942:18009   */\n      tag_243\n      jump\t// in\n    tag_461:\n        /* \"#utility.yul\":17935:18009   */\n      swap2\n      pop\n        /* \"#utility.yul\":18018:18111   */\n      tag_462\n        /* \"#utility.yul\":18107:18110   */\n      dup3\n        /* \"#utility.yul\":18018:18111   */\n      tag_266\n      jump\t// in\n    tag_462:\n        /* \"#utility.yul\":18136:18138   */\n      0x20\n        /* \"#utility.yul\":18131:18134   */\n      dup3\n        /* \"#utility.yul\":18127:18139   */\n      add\n        /* \"#utility.yul\":18120:18139   */\n      swap1\n      pop\n        /* \"#utility.yul\":17779:18145   */\n      swap2\n      swap1\n      pop\n      jump\t// out\n        /* \"#utility.yul\":18151:18570   */\n    tag_146:\n        /* \"#utility.yul\":18317:18321   */\n      0x00\n        /* \"#utility.yul\":18355:18357   */\n      0x20\n        /* \"#utility.yul\":18344:18353   */\n      dup3\n        /* \"#utility.yul\":18340:18358   */\n      add\n        /* \"#utility.yul\":18332:18358   */\n      swap1\n      pop\n        /* \"#utility.yul\":18404:18413   */\n      dup2\n        /* \"#utility.yul\":18398:18402   */\n      dup2\n        /* \"#utility.yul\":18394:18414   */\n      sub\n        /* \"#utility.yul\":18390:18391   */\n      0x00\n        /* \"#utility.yul\":18379:18388   */\n      dup4\n        /* \"#utility.yul\":18375:18392   */\n      add\n        /* \"#utility.yul\":18368:18415   */\n      mstore\n        /* \"#utility.yul\":18432:18563   */\n      tag_464\n        /* \"#utility.yul\":18558:18562   */\n      dup2\n        /* \"#utility.yul\":18432:18563   */\n      tag_267\n      jump\t// in\n    tag_464:\n        /* \"#utility.yul\":18424:18563   */\n      swap1\n      pop\n        /* \"#utility.yul\":18151:18570   */\n      swap2\n      swap1\n      pop\n      jump\t// out\n        /* \"#utility.yul\":18576:18670   */\n    tag_268:\n        /* \"#utility.yul\":18609:18617   */\n      0x00\n        /* \"#utility.yul\":18657:18662   */\n      dup2\n        /* \"#utility.yul\":18653:18655   */\n      0x60\n        /* \"#utility.yul\":18649:18663   */\n      shl\n        /* \"#utility.yul\":18628:18663   */\n      swap1\n      pop\n        /* \"#utility.yul\":18576:18670   */\n      swap2\n      swap1\n      pop\n      jump\t// out\n        /* \"#utility.yul\":18676:18770   */\n    tag_269:\n        /* \"#utility.yul\":18715:18722   */\n      0x00\n        /* \"#utility.yul\":18744:18764   */\n      tag_467\n        /* \"#utility.yul\":18758:18763   */\n      dup3\n        /* \"#utility.yul\":18744:18764   */\n      tag_268\n      jump\t// in\n    tag_467:\n        /* \"#utility.yul\":18733:18764   */\n      swap1\n      pop\n        /* \"#utility.yul\":18676:18770   */\n      swap2\n      swap1\n      pop\n      jump\t// out\n        /* \"#utility.yul\":18776:18876   */\n    tag_270:\n        /* \"#utility.yul\":18815:18822   */\n      0x00\n        /* \"#utility.yul\":18844:18870   */\n      tag_469\n        /* \"#utility.yul\":18864:18869   */\n      dup3\n        /* \"#utility.yul\":18844:18870   */\n      tag_269\n      jump\t// in\n    tag_469:\n        /* \"#utility.yul\":18833:18870   */\n      swap1\n      pop\n        /* \"#utility.yul\":18776:18876   */\n      swap2\n      swap1\n      pop\n      jump\t// out\n        /* \"#utility.yul\":18882:19039   */\n    tag_271:\n        /* \"#utility.yul\":18987:19032   */\n      tag_471\n        /* \"#utility.yul\":19007:19031   */\n      tag_472\n        /* \"#utility.yul\":19025:19030   */\n      dup3\n        /* \"#utility.yul\":19007:19031   */\n      tag_227\n      jump\t// in\n    tag_472:\n        /* \"#utility.yul\":18987:19032   */\n      tag_270\n      jump\t// in\n    tag_471:\n        /* \"#utility.yul\":18982:18985   */\n      dup3\n        /* \"#utility.yul\":18975:19033   */\n      mstore\n        /* \"#utility.yul\":18882:19039   */\n      pop\n      pop\n      jump\t// out\n        /* \"#utility.yul\":19045:19122   */\n    tag_272:\n        /* \"#utility.yul\":19082:19089   */\n      0x00\n        /* \"#utility.yul\":19111:19116   */\n      dup2\n        /* \"#utility.yul\":19100:19116   */\n      swap1\n      pop\n        /* \"#utility.yul\":19045:19122   */\n      swap2\n      swap1\n      pop\n      jump\t// out\n        /* \"#utility.yul\":19128:19207   */\n    tag_273:\n        /* \"#utility.yul\":19167:19174   */\n      0x00\n        /* \"#utility.yul\":19196:19201   */\n      dup2\n        /* \"#utility.yul\":19185:19201   */\n      swap1\n      pop\n        /* \"#utility.yul\":19128:19207   */\n      swap2\n      swap1\n      pop\n      jump\t// out\n        /* \"#utility.yul\":19213:19370   */\n    tag_274:\n        /* \"#utility.yul\":19318:19363   */\n      tag_476\n        /* \"#utility.yul\":19338:19362   */\n      tag_477\n        /* \"#utility.yul\":19356:19361   */\n      dup3\n        /* \"#utility.yul\":19338:19362   */\n      tag_272\n      jump\t// in\n    tag_477:\n        /* \"#utility.yul\":19318:19363   */\n      tag_273\n      jump\t// in\n    tag_476:\n        /* \"#utility.yul\":19313:19316   */\n      dup3\n        /* \"#utility.yul\":19306:19364   */\n      mstore\n        /* \"#utility.yul\":19213:19370   */\n      pop\n      pop\n      jump\t// out\n        /* \"#utility.yul\":19376:20055   */\n    tag_149:\n        /* \"#utility.yul\":19572:19575   */\n      0x00\n        /* \"#utility.yul\":19587:19662   */\n      tag_479\n        /* \"#utility.yul\":19658:19661   */\n      dup3\n        /* \"#utility.yul\":19649:19655   */\n      dup8\n        /* \"#utility.yul\":19587:19662   */\n      tag_271\n      jump\t// in\n    tag_479:\n        /* \"#utility.yul\":19687:19689   */\n      0x14\n        /* \"#utility.yul\":19682:19685   */\n      dup3\n        /* \"#utility.yul\":19678:19690   */\n      add\n        /* \"#utility.yul\":19671:19690   */\n      swap2\n      pop\n        /* \"#utility.yul\":19700:19775   */\n      tag_480\n        /* \"#utility.yul\":19771:19774   */\n      dup3\n        /* \"#utility.yul\":19762:19768   */\n      dup7\n        /* \"#utility.yul\":19700:19775   */\n      tag_271\n      jump\t// in\n    tag_480:\n        /* \"#utility.yul\":19800:19802   */\n      0x14\n        /* \"#utility.yul\":19795:19798   */\n      dup3\n        /* \"#utility.yul\":19791:19803   */\n      add\n        /* \"#utility.yul\":19784:19803   */\n      swap2\n      pop\n        /* \"#utility.yul\":19813:19888   */\n      tag_481\n        /* \"#utility.yul\":19884:19887   */\n      dup3\n        /* \"#utility.yul\":19875:19881   */\n      dup6\n        /* \"#utility.yul\":19813:19888   */\n      tag_274\n      jump\t// in\n    tag_481:\n        /* \"#utility.yul\":19913:19915   */\n      0x20\n        /* \"#utility.yul\":19908:19911   */\n      dup3\n        /* \"#utility.yul\":19904:19916   */\n      add\n        /* \"#utility.yul\":19897:19916   */\n      swap2\n      pop\n        /* \"#utility.yul\":19926:20001   */\n      tag_482\n        /* \"#utility.yul\":19997:20000   */\n      dup3\n        /* \"#utility.yul\":19988:19994   */\n      dup5\n        /* \"#utility.yul\":19926:20001   */\n      tag_274\n      jump\t// in\n    tag_482:\n        /* \"#utility.yul\":20026:20028   */\n      0x20\n        /* \"#utility.yul\":20021:20024   */\n      dup3\n        /* \"#utility.yul\":20017:20029   */\n      add\n        /* \"#utility.yul\":20010:20029   */\n      swap2\n      pop\n        /* \"#utility.yul\":20046:20049   */\n      dup2\n        /* \"#utility.yul\":20039:20049   */\n      swap1\n      pop\n        /* \"#utility.yul\":19376:20055   */\n      swap6\n      swap5\n      pop\n      pop\n      pop\n      pop\n      pop\n      jump\t// out\n        /* \"#utility.yul\":20061:20234   */\n    tag_275:\n        /* \"#utility.yul\":20201:20226   */\n      0x436f6e747261637420616c7265616479207369676e6564000000000000000000\n        /* \"#utility.yul\":20197:20198   */\n      0x00\n        /* \"#utility.yul\":20189:20195   */\n      dup3\n        /* \"#utility.yul\":20185:20199   */\n      add\n        /* \"#utility.yul\":20178:20227   */\n      mstore\n        /* \"#utility.yul\":20061:20234   */\n      pop\n      jump\t// out\n        /* \"#utility.yul\":20240:20606   */\n    tag_276:\n        /* \"#utility.yul\":20382:20385   */\n      0x00\n        /* \"#utility.yul\":20403:20470   */\n      tag_485\n        /* \"#utility.yul\":20467:20469   */\n      0x17\n        /* \"#utility.yul\":20462:20465   */\n      dup4\n        /* \"#utility.yul\":20403:20470   */\n      tag_243\n      jump\t// in\n    tag_485:\n        /* \"#utility.yul\":20396:20470   */\n      swap2\n      pop\n        /* \"#utility.yul\":20479:20572   */\n      tag_486\n        /* \"#utility.yul\":20568:20571   */\n      dup3\n        /* \"#utility.yul\":20479:20572   */\n      tag_275\n      jump\t// in\n    tag_486:\n        /* \"#utility.yul\":20597:20599   */\n      0x20\n        /* \"#utility.yul\":20592:20595   */\n      dup3\n        /* \"#utility.yul\":20588:20600   */\n      add\n        /* \"#utility.yul\":20581:20600   */\n      swap1\n      pop\n        /* \"#utility.yul\":20240:20606   */\n      swap2\n      swap1\n      pop\n      jump\t// out\n        /* \"#utility.yul\":20612:21031   */\n    tag_153:\n        /* \"#utility.yul\":20778:20782   */\n      0x00\n        /* \"#utility.yul\":20816:20818   */\n      0x20\n        /* \"#utility.yul\":20805:20814   */\n      dup3\n        /* \"#utility.yul\":20801:20819   */\n      add\n        /* \"#utility.yul\":20793:20819   */\n      swap1\n      pop\n        /* \"#utility.yul\":20865:20874   */\n      dup2\n        /* \"#utility.yul\":20859:20863   */\n      dup2\n        /* \"#utility.yul\":20855:20875   */\n      sub\n        /* \"#utility.yul\":20851:20852   */\n      0x00\n        /* \"#utility.yul\":20840:20849   */\n      dup4\n        /* \"#utility.yul\":20836:20853   */\n      add\n        /* \"#utility.yul\":20829:20876   */\n      mstore\n        /* \"#utility.yul\":20893:21024   */\n      tag_488\n        /* \"#utility.yul\":21019:21023   */\n      dup2\n        /* \"#utility.yul\":20893:21024   */\n      tag_276\n      jump\t// in\n    tag_488:\n        /* \"#utility.yul\":20885:21024   */\n      swap1\n      pop\n        /* \"#utility.yul\":20612:21031   */\n      swap2\n      swap1\n      pop\n      jump\t// out\n        /* \"#utility.yul\":21037:21205   */\n    tag_277:\n        /* \"#utility.yul\":21177:21197   */\n      0x4e6f7468696e6720746f20446f20686572650000000000000000000000000000\n        /* \"#utility.yul\":21173:21174   */\n      0x00\n        /* \"#utility.yul\":21165:21171   */\n      dup3\n        /* \"#utility.yul\":21161:21175   */\n      add\n        /* \"#utility.yul\":21154:21198   */\n      mstore\n        /* \"#utility.yul\":21037:21205   */\n      pop\n      jump\t// out\n        /* \"#utility.yul\":21211:21577   */\n    tag_278:\n        /* \"#utility.yul\":21353:21356   */\n      0x00\n        /* \"#utility.yul\":21374:21441   */\n      tag_491\n        /* \"#utility.yul\":21438:21440   */\n      0x12\n        /* \"#utility.yul\":21433:21436   */\n      dup4\n        /* \"#utility.yul\":21374:21441   */\n      tag_243\n      jump\t// in\n    tag_491:\n        /* \"#utility.yul\":21367:21441   */\n      swap2\n      pop\n        /* \"#utility.yul\":21450:21543   */\n      tag_492\n        /* \"#utility.yul\":21539:21542   */\n      dup3\n        /* \"#utility.yul\":21450:21543   */\n      tag_277\n      jump\t// in\n    tag_492:\n        /* \"#utility.yul\":21568:21570   */\n      0x20\n        /* \"#utility.yul\":21563:21566   */\n      dup3\n        /* \"#utility.yul\":21559:21571   */\n      add\n        /* \"#utility.yul\":21552:21571   */\n      swap1\n      pop\n        /* \"#utility.yul\":21211:21577   */\n      swap2\n      swap1\n      pop\n      jump\t// out\n        /* \"#utility.yul\":21583:22002   */\n    tag_157:\n        /* \"#utility.yul\":21749:21753   */\n      0x00\n        /* \"#utility.yul\":21787:21789   */\n      0x20\n        /* \"#utility.yul\":21776:21785   */\n      dup3\n        /* \"#utility.yul\":21772:21790   */\n      add\n        /* \"#utility.yul\":21764:21790   */\n      swap1\n      pop\n        /* \"#utility.yul\":21836:21845   */\n      dup2\n        /* \"#utility.yul\":21830:21834   */\n      dup2\n        /* \"#utility.yul\":21826:21846   */\n      sub\n        /* \"#utility.yul\":21822:21823   */\n      0x00\n        /* \"#utility.yul\":21811:21820   */\n      dup4\n        /* \"#utility.yul\":21807:21824   */\n      add\n        /* \"#utility.yul\":21800:21847   */\n      mstore\n        /* \"#utility.yul\":21864:21995   */\n      tag_494\n        /* \"#utility.yul\":21990:21994   */\n      dup2\n        /* \"#utility.yul\":21864:21995   */\n      tag_278\n      jump\t// in\n    tag_494:\n        /* \"#utility.yul\":21856:21995   */\n      swap1\n      pop\n        /* \"#utility.yul\":21583:22002   */\n      swap2\n      swap1\n      pop\n      jump\t// out\n        /* \"#utility.yul\":22008:22170   */\n    tag_279:\n        /* \"#utility.yul\":22148:22162   */\n      0x43726561746f72206f6e6c790000000000000000000000000000000000000000\n        /* \"#utility.yul\":22144:22145   */\n      0x00\n        /* \"#utility.yul\":22136:22142   */\n      dup3\n        /* \"#utility.yul\":22132:22146   */\n      add\n        /* \"#utility.yul\":22125:22163   */\n      mstore\n        /* \"#utility.yul\":22008:22170   */\n      pop\n      jump\t// out\n        /* \"#utility.yul\":22176:22542   */\n    tag_280:\n        /* \"#utility.yul\":22318:22321   */\n      0x00\n        /* \"#utility.yul\":22339:22406   */\n      tag_497\n        /* \"#utility.yul\":22403:22405   */\n      0x0c\n        /* \"#utility.yul\":22398:22401   */\n      dup4\n        /* \"#utility.yul\":22339:22406   */\n      tag_243\n      jump\t// in\n    tag_497:\n        /* \"#utility.yul\":22332:22406   */\n      swap2\n      pop\n        /* \"#utility.yul\":22415:22508   */\n      tag_498\n        /* \"#utility.yul\":22504:22507   */\n      dup3\n        /* \"#utility.yul\":22415:22508   */\n      tag_279\n      jump\t// in\n    tag_498:\n        /* \"#utility.yul\":22533:22535   */\n      0x20\n        /* \"#utility.yul\":22528:22531   */\n      dup3\n        /* \"#utility.yul\":22524:22536   */\n      add\n        /* \"#utility.yul\":22517:22536   */\n      swap1\n      pop\n        /* \"#utility.yul\":22176:22542   */\n      swap2\n      swap1\n      pop\n      jump\t// out\n        /* \"#utility.yul\":22548:22967   */\n    tag_165:\n        /* \"#utility.yul\":22714:22718   */\n      0x00\n        /* \"#utility.yul\":22752:22754   */\n      0x20\n        /* \"#utility.yul\":22741:22750   */\n      dup3\n        /* \"#utility.yul\":22737:22755   */\n      add\n        /* \"#utility.yul\":22729:22755   */\n      swap1\n      pop\n        /* \"#utility.yul\":22801:22810   */\n      dup2\n        /* \"#utility.yul\":22795:22799   */\n      dup2\n        /* \"#utility.yul\":22791:22811   */\n      sub\n        /* \"#utility.yul\":22787:22788   */\n      0x00\n        /* \"#utility.yul\":22776:22785   */\n      dup4\n        /* \"#utility.yul\":22772:22789   */\n      add\n        /* \"#utility.yul\":22765:22812   */\n      mstore\n        /* \"#utility.yul\":22829:22960   */\n      tag_500\n        /* \"#utility.yul\":22955:22959   */\n      dup2\n        /* \"#utility.yul\":22829:22960   */\n      tag_280\n      jump\t// in\n    tag_500:\n        /* \"#utility.yul\":22821:22960   */\n      swap1\n      pop\n        /* \"#utility.yul\":22548:22967   */\n      swap2\n      swap1\n      pop\n      jump\t// out\n        /* \"#utility.yul\":22973:23149   */\n    tag_281:\n        /* \"#utility.yul\":23113:23141   */\n      0x456d706c6f796565206f7220417070726f76657273206f6e6c79000000000000\n        /* \"#utility.yul\":23109:23110   */\n      0x00\n        /* \"#utility.yul\":23101:23107   */\n      dup3\n        /* \"#utility.yul\":23097:23111   */\n      add\n        /* \"#utility.yul\":23090:23142   */\n      mstore\n        /* \"#utility.yul\":22973:23149   */\n      pop\n      jump\t// out\n        /* \"#utility.yul\":23155:23521   */\n    tag_282:\n        /* \"#utility.yul\":23297:23300   */\n      0x00\n        /* \"#utility.yul\":23318:23385   */\n      tag_503\n        /* \"#utility.yul\":23382:23384   */\n      0x1a\n        /* \"#utility.yul\":23377:23380   */\n      dup4\n        /* \"#utility.yul\":23318:23385   */\n      tag_243\n      jump\t// in\n    tag_503:\n        /* \"#utility.yul\":23311:23385   */\n      swap2\n      pop\n        /* \"#utility.yul\":23394:23487   */\n      tag_504\n        /* \"#utility.yul\":23483:23486   */\n      dup3\n        /* \"#utility.yul\":23394:23487   */\n      tag_281\n      jump\t// in\n    tag_504:\n        /* \"#utility.yul\":23512:23514   */\n      0x20\n        /* \"#utility.yul\":23507:23510   */\n      dup3\n        /* \"#utility.yul\":23503:23515   */\n      add\n        /* \"#utility.yul\":23496:23515   */\n      swap1\n      pop\n        /* \"#utility.yul\":23155:23521   */\n      swap2\n      swap1\n      pop\n      jump\t// out\n        /* \"#utility.yul\":23527:23946   */\n    tag_170:\n        /* \"#utility.yul\":23693:23697   */\n      0x00\n        /* \"#utility.yul\":23731:23733   */\n      0x20\n        /* \"#utility.yul\":23720:23729   */\n      dup3\n        /* \"#utility.yul\":23716:23734   */\n      add\n        /* \"#utility.yul\":23708:23734   */\n      swap1\n      pop\n        /* \"#utility.yul\":23780:23789   */\n      dup2\n        /* \"#utility.yul\":23774:23778   */\n      dup2\n        /* \"#utility.yul\":23770:23790   */\n      sub\n        /* \"#utility.yul\":23766:23767   */\n      0x00\n        /* \"#utility.yul\":23755:23764   */\n      dup4\n        /* \"#utility.yul\":23751:23768   */\n      add\n        /* \"#utility.yul\":23744:23791   */\n      mstore\n        /* \"#utility.yul\":23808:23939   */\n      tag_506\n        /* \"#utility.yul\":23934:23938   */\n      dup2\n        /* \"#utility.yul\":23808:23939   */\n      tag_282\n      jump\t// in\n    tag_506:\n        /* \"#utility.yul\":23800:23939   */\n      swap1\n      pop\n        /* \"#utility.yul\":23527:23946   */\n      swap2\n      swap1\n      pop\n      jump\t// out\n        /* \"#utility.yul\":23952:24127   */\n    tag_283:\n        /* \"#utility.yul\":24092:24119   */\n      0x416d6f756e74206c657373207468616e20636f6e747261637400000000000000\n        /* \"#utility.yul\":24088:24089   */\n      0x00\n        /* \"#utility.yul\":24080:24086   */\n      dup3\n        /* \"#utility.yul\":24076:24090   */\n      add\n        /* \"#utility.yul\":24069:24120   */\n      mstore\n        /* \"#utility.yul\":23952:24127   */\n      pop\n      jump\t// out\n        /* \"#utility.yul\":24133:24499   */\n    tag_284:\n        /* \"#utility.yul\":24275:24278   */\n      0x00\n        /* \"#utility.yul\":24296:24363   */\n      tag_509\n        /* \"#utility.yul\":24360:24362   */\n      0x19\n        /* \"#utility.yul\":24355:24358   */\n      dup4\n        /* \"#utility.yul\":24296:24363   */\n      tag_243\n      jump\t// in\n    tag_509:\n        /* \"#utility.yul\":24289:24363   */\n      swap2\n      pop\n        /* \"#utility.yul\":24372:24465   */\n      tag_510\n        /* \"#utility.yul\":24461:24464   */\n      dup3\n        /* \"#utility.yul\":24372:24465   */\n      tag_283\n      jump\t// in\n    tag_510:\n        /* \"#utility.yul\":24490:24492   */\n      0x20\n        /* \"#utility.yul\":24485:24488   */\n      dup3\n        /* \"#utility.yul\":24481:24493   */\n      add\n        /* \"#utility.yul\":24474:24493   */\n      swap1\n      pop\n        /* \"#utility.yul\":24133:24499   */\n      swap2\n      swap1\n      pop\n      jump\t// out\n        /* \"#utility.yul\":24505:24924   */\n    tag_187:\n        /* \"#utility.yul\":24671:24675   */\n      0x00\n        /* \"#utility.yul\":24709:24711   */\n      0x20\n        /* \"#utility.yul\":24698:24707   */\n      dup3\n        /* \"#utility.yul\":24694:24712   */\n      add\n        /* \"#utility.yul\":24686:24712   */\n      swap1\n      pop\n        /* \"#utility.yul\":24758:24767   */\n      dup2\n        /* \"#utility.yul\":24752:24756   */\n      dup2\n        /* \"#utility.yul\":24748:24768   */\n      sub\n        /* \"#utility.yul\":24744:24745   */\n      0x00\n        /* \"#utility.yul\":24733:24742   */\n      dup4\n        /* \"#utility.yul\":24729:24746   */\n      add\n        /* \"#utility.yul\":24722:24769   */\n      mstore\n        /* \"#utility.yul\":24786:24917   */\n      tag_512\n        /* \"#utility.yul\":24912:24916   */\n      dup2\n        /* \"#utility.yul\":24786:24917   */\n      tag_284\n      jump\t// in\n    tag_512:\n        /* \"#utility.yul\":24778:24917   */\n      swap1\n      pop\n        /* \"#utility.yul\":24505:24924   */\n      swap2\n      swap1\n      pop\n      jump\t// out\n        /* \"#utility.yul\":24930:25235   */\n    tag_189:\n        /* \"#utility.yul\":24970:24973   */\n      0x00\n        /* \"#utility.yul\":24989:25009   */\n      tag_514\n        /* \"#utility.yul\":25007:25008   */\n      dup3\n        /* \"#utility.yul\":24989:25009   */\n      tag_272\n      jump\t// in\n    tag_514:\n        /* \"#utility.yul\":24984:25009   */\n      swap2\n      pop\n        /* \"#utility.yul\":25023:25043   */\n      tag_515\n        /* \"#utility.yul\":25041:25042   */\n      dup4\n        /* \"#utility.yul\":25023:25043   */\n      tag_272\n      jump\t// in\n    tag_515:\n        /* \"#utility.yul\":25018:25043   */\n      swap3\n      pop\n        /* \"#utility.yul\":25177:25178   */\n      dup3\n        /* \"#utility.yul\":25109:25175   */\n      0xffffffffffffffffffffffffffffffffffffffffffffffffffffffffffffffff\n        /* \"#utility.yul\":25105:25179   */\n      sub\n        /* \"#utility.yul\":25102:25103   */\n      dup3\n        /* \"#utility.yul\":25099:25180   */\n      gt\n        /* \"#utility.yul\":25096:25203   */\n      iszero\n      tag_516\n      jumpi\n        /* \"#utility.yul\":25183:25201   */\n      tag_517\n      tag_257\n      jump\t// in\n    tag_517:\n        /* \"#utility.yul\":25096:25203   */\n    tag_516:\n        /* \"#utility.yul\":25227:25228   */\n      dup3\n        /* \"#utility.yul\":25224:25225   */\n      dup3\n        /* \"#utility.yul\":25220:25229   */\n      add\n        /* \"#utility.yul\":25213:25229   */\n      swap1\n      pop\n        /* \"#utility.yul\":24930:25235   */\n      swap3\n      swap2\n      pop\n      pop\n      jump\t// out\n        /* \"#utility.yul\":25241:25416   */\n    tag_285:\n        /* \"#utility.yul\":25381:25408   */\n      0x546f6f20736f6f6e2070657220706179207363686564756c6500000000000000\n        /* \"#utility.yul\":25377:25378   */\n      0x00\n        /* \"#utility.yul\":25369:25375   */\n      dup3\n        /* \"#utility.yul\":25365:25379   */\n      add\n        /* \"#utility.yul\":25358:25409   */\n      mstore\n        /* \"#utility.yul\":25241:25416   */\n      pop\n      jump\t// out\n        /* \"#utility.yul\":25422:25788   */\n    tag_286:\n        /* \"#utility.yul\":25564:25567   */\n      0x00\n        /* \"#utility.yul\":25585:25652   */\n      tag_520\n        /* \"#utility.yul\":25649:25651   */\n      0x19\n        /* \"#utility.yul\":25644:25647   */\n      dup4\n        /* \"#utility.yul\":25585:25652   */\n      tag_243\n      jump\t// in\n    tag_520:\n        /* \"#utility.yul\":25578:25652   */\n      swap2\n      pop\n        /* \"#utility.yul\":25661:25754   */\n      tag_521\n        /* \"#utility.yul\":25750:25753   */\n      dup3\n        /* \"#utility.yul\":25661:25754   */\n      tag_285\n      jump\t// in\n    tag_521:\n        /* \"#utility.yul\":25779:25781   */\n      0x20\n        /* \"#utility.yul\":25774:25777   */\n      dup3\n        /* \"#utility.yul\":25770:25782   */\n      add\n        /* \"#utility.yul\":25763:25782   */\n      swap1\n      pop\n        /* \"#utility.yul\":25422:25788   */\n      swap2\n      swap1\n      pop\n      jump\t// out\n        /* \"#utility.yul\":25794:26213   */\n    tag_192:\n        /* \"#utility.yul\":25960:25964   */\n      0x00\n        /* \"#utility.yul\":25998:26000   */\n      0x20\n        /* \"#utility.yul\":25987:25996   */\n      dup3\n        /* \"#utility.yul\":25983:26001   */\n      add\n        /* \"#utility.yul\":25975:26001   */\n      swap1\n      pop\n        /* \"#utility.yul\":26047:26056   */\n      dup2\n        /* \"#utility.yul\":26041:26045   */\n      dup2\n        /* \"#utility.yul\":26037:26057   */\n      sub\n        /* \"#utility.yul\":26033:26034   */\n      0x00\n        /* \"#utility.yul\":26022:26031   */\n      dup4\n        /* \"#utility.yul\":26018:26035   */\n      add\n        /* \"#utility.yul\":26011:26058   */\n      mstore\n        /* \"#utility.yul\":26075:26206   */\n      tag_523\n        /* \"#utility.yul\":26201:26205   */\n      dup2\n        /* \"#utility.yul\":26075:26206   */\n      tag_286\n      jump\t// in\n    tag_523:\n        /* \"#utility.yul\":26067:26206   */\n      swap1\n      pop\n        /* \"#utility.yul\":25794:26213   */\n      swap2\n      swap1\n      pop\n      jump\t// out\n        /* \"#utility.yul\":26219:26393   */\n    tag_287:\n        /* \"#utility.yul\":26359:26385   */\n      0x436865636b2052657369676e6174696f6e207374617475730000000000000000\n        /* \"#utility.yul\":26355:26356   */\n      0x00\n        /* \"#utility.yul\":26347:26353   */\n      dup3\n        /* \"#utility.yul\":26343:26357   */\n      add\n        /* \"#utility.yul\":26336:26386   */\n      mstore\n        /* \"#utility.yul\":26219:26393   */\n      pop\n      jump\t// out\n        /* \"#utility.yul\":26399:26765   */\n    tag_288:\n        /* \"#utility.yul\":26541:26544   */\n      0x00\n        /* \"#utility.yul\":26562:26629   */\n      tag_526\n        /* \"#utility.yul\":26626:26628   */\n      0x18\n        /* \"#utility.yul\":26621:26624   */\n      dup4\n        /* \"#utility.yul\":26562:26629   */\n      tag_243\n      jump\t// in\n    tag_526:\n        /* \"#utility.yul\":26555:26629   */\n      swap2\n      pop\n        /* \"#utility.yul\":26638:26731   */\n      tag_527\n        /* \"#utility.yul\":26727:26730   */\n      dup3\n        /* \"#utility.yul\":26638:26731   */\n      tag_287\n      jump\t// in\n    tag_527:\n        /* \"#utility.yul\":26756:26758   */\n      0x20\n        /* \"#utility.yul\":26751:26754   */\n      dup3\n        /* \"#utility.yul\":26747:26759   */\n      add\n        /* \"#utility.yul\":26740:26759   */\n      swap1\n      pop\n        /* \"#utility.yul\":26399:26765   */\n      swap2\n      swap1\n      pop\n      jump\t// out\n        /* \"#utility.yul\":26771:27190   */\n    tag_205:\n        /* \"#utility.yul\":26937:26941   */\n      0x00\n        /* \"#utility.yul\":26975:26977   */\n      0x20\n        /* \"#utility.yul\":26964:26973   */\n      dup3\n        /* \"#utility.yul\":26960:26978   */\n      add\n        /* \"#utility.yul\":26952:26978   */\n      swap1\n      pop\n        /* \"#utility.yul\":27024:27033   */\n      dup2\n        /* \"#utility.yul\":27018:27022   */\n      dup2\n        /* \"#utility.yul\":27014:27034   */\n      sub\n        /* \"#utility.yul\":27010:27011   */\n      0x00\n        /* \"#utility.yul\":26999:27008   */\n      dup4\n        /* \"#utility.yul\":26995:27012   */\n      add\n        /* \"#utility.yul\":26988:27035   */\n      mstore\n        /* \"#utility.yul\":27052:27183   */\n      tag_529\n        /* \"#utility.yul\":27178:27182   */\n      dup2\n        /* \"#utility.yul\":27052:27183   */\n      tag_288\n      jump\t// in\n    tag_529:\n        /* \"#utility.yul\":27044:27183   */\n      swap1\n      pop\n        /* \"#utility.yul\":26771:27190   */\n      swap2\n      swap1\n      pop\n      jump\t// out\n        /* \"#utility.yul\":27196:27367   */\n    tag_289:\n        /* \"#utility.yul\":27336:27359   */\n      0x456d706c6f796565205369676e20496e76616c69640000000000000000000000\n        /* \"#utility.yul\":27332:27333   */\n      0x00\n        /* \"#utility.yul\":27324:27330   */\n      dup3\n        /* \"#utility.yul\":27320:27334   */\n      add\n        /* \"#utility.yul\":27313:27360   */\n      mstore\n        /* \"#utility.yul\":27196:27367   */\n      pop\n      jump\t// out\n        /* \"#utility.yul\":27373:27739   */\n    tag_290:\n        /* \"#utility.yul\":27515:27518   */\n      0x00\n        /* \"#utility.yul\":27536:27603   */\n      tag_532\n        /* \"#utility.yul\":27600:27602   */\n      0x15\n        /* \"#utility.yul\":27595:27598   */\n      dup4\n        /* \"#utility.yul\":27536:27603   */\n      tag_243\n      jump\t// in\n    tag_532:\n        /* \"#utility.yul\":27529:27603   */\n      swap2\n      pop\n        /* \"#utility.yul\":27612:27705   */\n      tag_533\n        /* \"#utility.yul\":27701:27704   */\n      dup3\n        /* \"#utility.yul\":27612:27705   */\n      tag_289\n      jump\t// in\n    tag_533:\n        /* \"#utility.yul\":27730:27732   */\n      0x20\n        /* \"#utility.yul\":27725:27728   */\n      dup3\n        /* \"#utility.yul\":27721:27733   */\n      add\n        /* \"#utility.yul\":27714:27733   */\n      swap1\n      pop\n        /* \"#utility.yul\":27373:27739   */\n      swap2\n      swap1\n      pop\n      jump\t// out\n        /* \"#utility.yul\":27745:28164   */\n    tag_213:\n        /* \"#utility.yul\":27911:27915   */\n      0x00\n        /* \"#utility.yul\":27949:27951   */\n      0x20\n        /* \"#utility.yul\":27938:27947   */\n      dup3\n        /* \"#utility.yul\":27934:27952   */\n      add\n        /* \"#utility.yul\":27926:27952   */\n      swap1\n      pop\n        /* \"#utility.yul\":27998:28007   */\n      dup2\n        /* \"#utility.yul\":27992:27996   */\n      dup2\n        /* \"#utility.yul\":27988:28008   */\n      sub\n        /* \"#utility.yul\":27984:27985   */\n      0x00\n        /* \"#utility.yul\":27973:27982   */\n      dup4\n        /* \"#utility.yul\":27969:27986   */\n      add\n        /* \"#utility.yul\":27962:28009   */\n      mstore\n        /* \"#utility.yul\":28026:28157   */\n      tag_535\n        /* \"#utility.yul\":28152:28156   */\n      dup2\n        /* \"#utility.yul\":28026:28157   */\n      tag_290\n      jump\t// in\n    tag_535:\n        /* \"#utility.yul\":28018:28157   */\n      swap1\n      pop\n        /* \"#utility.yul\":27745:28164   */\n      swap2\n      swap1\n      pop\n      jump\t// out\n\n    auxdata: 0xa2646970667358221220ecda9b251af1337af8f8c4ee8a8481f046ef9e506ddda20692cfd410a113d44464736f6c634300080e0033\n}\n",
				"bytecode": {
					"linkReferences": {},
					"object": "60806040523480156200001157600080fd5b50604051620023fe380380620023fe8339818101604052810190620000379190620001f6565b836000806101000a81548173ffffffffffffffffffffffffffffffffffffffff021916908373ffffffffffffffffffffffffffffffffffffffff16021790555082600160006101000a81548173ffffffffffffffffffffffffffffffffffffffff021916908373ffffffffffffffffffffffffffffffffffffffff1602179055508160028190555080600381905550600160056000600160009054906101000a900473ffffffffffffffffffffffffffffffffffffffff1673ffffffffffffffffffffffffffffffffffffffff1673ffffffffffffffffffffffffffffffffffffffff16815260200190815260200160002060006101000a81548160ff021916908315150217905550426008819055505050505062000268565b600080fd5b600073ffffffffffffffffffffffffffffffffffffffff82169050919050565b6000620001838262000156565b9050919050565b620001958162000176565b8114620001a157600080fd5b50565b600081519050620001b5816200018a565b92915050565b6000819050919050565b620001d081620001bb565b8114620001dc57600080fd5b50565b600081519050620001f081620001c5565b92915050565b6000806000806080858703121562000213576200021262000151565b5b60006200022387828801620001a4565b94505060206200023687828801620001a4565b93505060406200024987828801620001df565b92505060606200025c87828801620001df565b91505092959194509250565b61218680620002786000396000f3fe6080604052600436106100e85760003560e01c80637233f3d51161008a57806396fd34091161005957806396fd340914610287578063be9a655514610291578063cf3514a5146102a8578063f6e809b4146102b2576100e8565b80637233f3d5146101f1578063802635a91461021c57806383197ef01461024757806394b841c91461025e576100e8565b80635b39a33f116100c65780635b39a33f1461016a57806369652fcf146101815780636a882d51146101985780636bd1925c146101c1576100e8565b80631b203a21146100ed5780632bfd91d414610116578063371a5fa014610153575b600080fd5b3480156100f957600080fd5b50610114600480360381019061010f919061140a565b6102ef565b005b34801561012257600080fd5b5061013d600480360381019061013891906114a6565b6103d6565b60405161014a919061152e565b60405180910390f35b34801561015f57600080fd5b5061016861049f565b005b34801561017657600080fd5b5061017f610525565b005b34801561018d57600080fd5b506101966107b9565b005b3480156101a457600080fd5b506101bf60048036038101906101ba91906116ce565b610896565b005b6101db60048036038101906101d69190611717565b610976565b6040516101e89190611785565b60405180910390f35b3480156101fd57600080fd5b50610206610a6a565b60405161021391906117af565b60405180910390f35b34801561022857600080fd5b50610231610ae5565b60405161023e9190611785565b60405180910390f35b34801561025357600080fd5b5061025c610c8d565b005b34801561026a57600080fd5b50610285600480360381019061028091906116ce565b610dae565b005b61028f610f51565b005b34801561029d57600080fd5b506102a66110e1565b005b6102b061116d565b005b3480156102be57600080fd5b506102d960048036038101906102d49190611717565b611256565b6040516102e69190611785565b60405180910390f35b600560003373ffffffffffffffffffffffffffffffffffffffff1673ffffffffffffffffffffffffffffffffffffffff16815260200190815260200160002060009054906101000a900460ff1661034557600080fd5b47600454111561038a576040517f08c379a000000000000000000000000000000000000000000000000000000000815260040161038190611827565b60405180910390fd5b8073ffffffffffffffffffffffffffffffffffffffff166108fc6004549081150290604051600060405180830381858888f193505050501580156103d2573d6000803e3d6000fd5b5050565b6000806040518060400160405280601c81526020017f19457468657265756d205369676e6564204d6573736167653a0a3332000000008152509050600081876040516020016104269291906118e2565b6040516020818303038152906040528051906020012090506000600182888888604051600081526020016040526040516104639493929190611919565b6020604051602081039080840390855afa158015610485573d6000803e3d6000fd5b505050602060405103519050809350505050949350505050565b600760019054906101000a900460ff166104b857600080fd5b600760009054906101000a900460ff1615610508576040517f08c379a00000000000000000000000000000000000000000000000000000000081526004016104ff906119aa565b60405180910390fd5b6000600760026101000a81548160ff021916908315150217905550565b600760039054906101000a900460ff16610574576040517f08c379a000000000000000000000000000000000000000000000000000000000815260040161056b90611a16565b60405180910390fd5b6001600a60003373ffffffffffffffffffffffffffffffffffffffff1673ffffffffffffffffffffffffffffffffffffffff16815260200190815260200160002060006101000a81548160ff021916908315150217905550600a60008060009054906101000a900473ffffffffffffffffffffffffffffffffffffffff1673ffffffffffffffffffffffffffffffffffffffff1673ffffffffffffffffffffffffffffffffffffffff16815260200190815260200160002060009054906101000a900460ff16801561068f5750600560003373ffffffffffffffffffffffffffffffffffffffff1673ffffffffffffffffffffffffffffffffffffffff16815260200190815260200160002060009054906101000a900460ff165b1561079c5760006001905060005b6009805490508160ff16101561075957600a600060098360ff16815481106106c8576106c7611a36565b5b9060005260206000200160009054906101000a900473ffffffffffffffffffffffffffffffffffffffff1673ffffffffffffffffffffffffffffffffffffffff1673ffffffffffffffffffffffffffffffffffffffff16815260200190815260200160002060009054906101000a900460ff1680156107445750815b9150808061075190611a94565b91505061069d565b508061079a576040517f08c379a000000000000000000000000000000000000000000000000000000000815260040161079190611b09565b60405180910390fd5b505b6000600760036101000a81548160ff021916908315150217905550565b600760009054906101000a900460ff166107d257600080fd5b600760019054906101000a900460ff166107eb57600080fd5b60008054906101000a900473ffffffffffffffffffffffffffffffffffffffff1673ffffffffffffffffffffffffffffffffffffffff163373ffffffffffffffffffffffffffffffffffffffff1614610879576040517f08c379a000000000000000000000000000000000000000000000000000000000815260040161087090611b75565b60405180910390fd5b6000600760006101000a81548160ff021916908315150217905550565b6005815111156108db576040517f08c379a00000000000000000000000000000000000000000000000000000000081526004016108d290611be1565b60405180910390fd5b60005b81518160ff16101561097257600160056000848460ff168151811061090657610905611a36565b5b602002602001015173ffffffffffffffffffffffffffffffffffffffff1673ffffffffffffffffffffffffffffffffffffffff16815260200190815260200160002060006101000a81548160ff021916908315150217905550808061096a90611a94565b9150506108de565b5050565b60008034116109ba576040517f08c379a00000000000000000000000000000000000000000000000000000000081526004016109b190611c4d565b60405180910390fd5b600160009054906101000a900473ffffffffffffffffffffffffffffffffffffffff1673ffffffffffffffffffffffffffffffffffffffff16610a066109fe610a6a565b8686866103d6565b73ffffffffffffffffffffffffffffffffffffffff1614610a5c576040517f08c379a0000000000000000000000000000000000000000000000000000000008152600401610a5390611cb9565b60405180910390fd5b346004819055509392505050565b60008060009054906101000a900473ffffffffffffffffffffffffffffffffffffffff16600160009054906101000a900473ffffffffffffffffffffffffffffffffffffffff16600254600354604051602001610aca9493929190611d4c565b60405160208183030381529060405280519060200120905090565b600060011515600660008060009054906101000a900473ffffffffffffffffffffffffffffffffffffffff1673ffffffffffffffffffffffffffffffffffffffff1673ffffffffffffffffffffffffffffffffffffffff16815260200190815260200160002060009054906101000a900460ff16151503610b9b576040517f08c379a0000000000000000000000000000000000000000000000000000000008152600401610b9290611de6565b60405180910390fd5b6000600454118015610bb95750600760009054906101000a900460ff165b610bf8576040517f08c379a0000000000000000000000000000000000000000000000000000000008152600401610bef90611e52565b60405180910390fd5b6000600760006101000a81548160ff0219169083151502179055506000600481905550600160009054906101000a900473ffffffffffffffffffffffffffffffffffffffff1673ffffffffffffffffffffffffffffffffffffffff166108fc6004549081150290604051600060405180830381858888f19350505050158015610c85573d6000803e3d6000fd5b506001905090565b600560003373ffffffffffffffffffffffffffffffffffffffff1673ffffffffffffffffffffffffffffffffffffffff16815260200190815260200160002060009054906101000a900460ff16610ce357600080fd5b600160009054906101000a900473ffffffffffffffffffffffffffffffffffffffff1673ffffffffffffffffffffffffffffffffffffffff163373ffffffffffffffffffffffffffffffffffffffff1614610d73576040517f08c379a0000000000000000000000000000000000000000000000000000000008152600401610d6a90611ebe565b60405180910390fd5b600160009054906101000a900473ffffffffffffffffffffffffffffffffffffffff1673ffffffffffffffffffffffffffffffffffffffff16ff5b60008054906101000a900473ffffffffffffffffffffffffffffffffffffffff1673ffffffffffffffffffffffffffffffffffffffff163373ffffffffffffffffffffffffffffffffffffffff161480610e515750600560003373ffffffffffffffffffffffffffffffffffffffff1673ffffffffffffffffffffffffffffffffffffffff16815260200190815260200160002060009054906101000a900460ff165b610e90576040517f08c379a0000000000000000000000000000000000000000000000000000000008152600401610e8790611f2a565b60405180910390fd5b6001600760036101000a81548160ff02191690831515021790555060005b81518160ff161015610f4d576009828260ff1681518110610ed257610ed1611a36565b5b60200260200101519080600181540180825580915050600190039060005260206000200160009091909190916101000a81548173ffffffffffffffffffffffffffffffffffffffff021916908373ffffffffffffffffffffffffffffffffffffffff1602179055508080610f4590611a94565b915050610eae565b5050565b600760009054906101000a900460ff16610f6a57600080fd5b600760019054906101000a900460ff16610f8357600080fd5b600560003373ffffffffffffffffffffffffffffffffffffffff1673ffffffffffffffffffffffffffffffffffffffff16815260200190815260200160002060009054906101000a900460ff16610fd957600080fd5b60035434101561101e576040517f08c379a000000000000000000000000000000000000000000000000000000000815260040161101590611f96565b60405180910390fd5b621fa40060085461102f9190611fb6565b421015611071576040517f08c379a000000000000000000000000000000000000000000000000000000000815260040161106890612058565b60405180910390fd5b4260088190555060008054906101000a900473ffffffffffffffffffffffffffffffffffffffff1673ffffffffffffffffffffffffffffffffffffffff166108fc349081150290604051600060405180830381858888f193505050501580156110de573d6000803e3d6000fd5b50565b600760009054906101000a900460ff166110fa57600080fd5b600560003373ffffffffffffffffffffffffffffffffffffffff1673ffffffffffffffffffffffffffffffffffffffff16815260200190815260200160002060009054906101000a900460ff1661115057600080fd5b6001600760016101000a81548160ff021916908315150217905550565b600760019054906101000a900460ff1680156111955750600760029054906101000a900460ff165b80156111ae5750600760009054906101000a900460ff16155b6111ed576040517f08c379a00000000000000000000000000000000000000000000000000000000081526004016111e4906120c4565b60405180910390fd5b60008054906101000a900473ffffffffffffffffffffffffffffffffffffffff1673ffffffffffffffffffffffffffffffffffffffff166108fc349081150290604051600060405180830381858888f19350505050158015611253573d6000803e3d6000fd5b50565b60008060009054906101000a900473ffffffffffffffffffffffffffffffffffffffff1673ffffffffffffffffffffffffffffffffffffffff166112a361129b610a6a565b8686866103d6565b73ffffffffffffffffffffffffffffffffffffffff16146112f9576040517f08c379a00000000000000000000000000000000000000000000000000000000081526004016112f090612130565b60405180910390fd5b6001600660008060009054906101000a900473ffffffffffffffffffffffffffffffffffffffff1673ffffffffffffffffffffffffffffffffffffffff1673ffffffffffffffffffffffffffffffffffffffff16815260200190815260200160002060006101000a81548160ff0219169083151502179055506001600760006101000a81548160ff021916908315150217905550600190509392505050565b6000604051905090565b600080fd5b600080fd5b600073ffffffffffffffffffffffffffffffffffffffff82169050919050565b60006113d7826113ac565b9050919050565b6113e7816113cc565b81146113f257600080fd5b50565b600081359050611404816113de565b92915050565b6000602082840312156114205761141f6113a2565b5b600061142e848285016113f5565b91505092915050565b6000819050919050565b61144a81611437565b811461145557600080fd5b50565b60008135905061146781611441565b92915050565b600060ff82169050919050565b6114838161146d565b811461148e57600080fd5b50565b6000813590506114a08161147a565b92915050565b600080600080608085870312156114c0576114bf6113a2565b5b60006114ce87828801611458565b94505060206114df87828801611491565b93505060406114f087828801611458565b925050606061150187828801611458565b91505092959194509250565b6000611518826113ac565b9050919050565b6115288161150d565b82525050565b6000602082019050611543600083018461151f565b92915050565b600080fd5b6000601f19601f8301169050919050565b7f4e487b7100000000000000000000000000000000000000000000000000000000600052604160045260246000fd5b6115978261154e565b810181811067ffffffffffffffff821117156115b6576115b561155f565b5b80604052505050565b60006115c9611398565b90506115d5828261158e565b919050565b600067ffffffffffffffff8211156115f5576115f461155f565b5b602082029050602081019050919050565b600080fd5b6116148161150d565b811461161f57600080fd5b50565b6000813590506116318161160b565b92915050565b600061164a611645846115da565b6115bf565b9050808382526020820190506020840283018581111561166d5761166c611606565b5b835b8181101561169657806116828882611622565b84526020840193505060208101905061166f565b5050509392505050565b600082601f8301126116b5576116b4611549565b5b81356116c5848260208601611637565b91505092915050565b6000602082840312156116e4576116e36113a2565b5b600082013567ffffffffffffffff811115611702576117016113a7565b5b61170e848285016116a0565b91505092915050565b6000806000606084860312156117305761172f6113a2565b5b600061173e86828701611491565b935050602061174f86828701611458565b925050604061176086828701611458565b9150509250925092565b60008115159050919050565b61177f8161176a565b82525050565b600060208201905061179a6000830184611776565b92915050565b6117a981611437565b82525050565b60006020820190506117c460008301846117a0565b92915050565b600082825260208201905092915050565b7f4c6f772042616c616e6365000000000000000000000000000000000000000000600082015250565b6000611811600b836117ca565b915061181c826117db565b602082019050919050565b6000602082019050818103600083015261184081611804565b9050919050565b600081519050919050565b600081905092915050565b60005b8381101561187b578082015181840152602081019050611860565b8381111561188a576000848401525b50505050565b600061189b82611847565b6118a58185611852565b93506118b581856020860161185d565b80840191505092915050565b6000819050919050565b6118dc6118d782611437565b6118c1565b82525050565b60006118ee8285611890565b91506118fa82846118cb565b6020820191508190509392505050565b6119138161146d565b82525050565b600060808201905061192e60008301876117a0565b61193b602083018661190a565b61194860408301856117a0565b61195560608301846117a0565b95945050505050565b7f41637469766520436f6e74726163740000000000000000000000000000000000600082015250565b6000611994600f836117ca565b915061199f8261195e565b602082019050919050565b600060208201905081810360008301526119c381611987565b9050919050565b7f4e6f20646973707574657320746f207265736f6c766500000000000000000000600082015250565b6000611a006016836117ca565b9150611a0b826119ca565b602082019050919050565b60006020820190508181036000830152611a2f816119f3565b9050919050565b7f4e487b7100000000000000000000000000000000000000000000000000000000600052603260045260246000fd5b7f4e487b7100000000000000000000000000000000000000000000000000000000600052601160045260246000fd5b6000611a9f8261146d565b915060ff8203611ab257611ab1611a65565b5b600182019050919050565b7f416c6c2061726269747261746f727320686176656e2774207265736f6c766564600082015250565b6000611af36020836117ca565b9150611afe82611abd565b602082019050919050565b60006020820190508181036000830152611b2281611ae6565b9050919050565b7f4f6e6c7920456d706c6f79656500000000000000000000000000000000000000600082015250565b6000611b5f600d836117ca565b9150611b6a82611b29565b602082019050919050565b60006020820190508181036000830152611b8e81611b52565b9050919050565b7f4e6f206d6f7265207468616e203520617070726f766572730000000000000000600082015250565b6000611bcb6018836117ca565b9150611bd682611b95565b602082019050919050565b60006020820190508181036000830152611bfa81611bbe565b9050919050565b7f43616e27742068617665207a65726f207374616b650000000000000000000000600082015250565b6000611c376015836117ca565b9150611c4282611c01565b602082019050919050565b60006020820190508181036000830152611c6681611c2a565b9050919050565b7f456d706c6f796572205369676e20496e76616c69640000000000000000000000600082015250565b6000611ca36015836117ca565b9150611cae82611c6d565b602082019050919050565b60006020820190508181036000830152611cd281611c96565b9050919050565b60008160601b9050919050565b6000611cf182611cd9565b9050919050565b6000611d0382611ce6565b9050919050565b611d1b611d168261150d565b611cf8565b82525050565b6000819050919050565b6000819050919050565b611d46611d4182611d21565b611d2b565b82525050565b6000611d588287611d0a565b601482019150611d688286611d0a565b601482019150611d788285611d35565b602082019150611d888284611d35565b60208201915081905095945050505050565b7f436f6e747261637420616c7265616479207369676e6564000000000000000000600082015250565b6000611dd06017836117ca565b9150611ddb82611d9a565b602082019050919050565b60006020820190508181036000830152611dff81611dc3565b9050919050565b7f4e6f7468696e6720746f20446f20686572650000000000000000000000000000600082015250565b6000611e3c6012836117ca565b9150611e4782611e06565b602082019050919050565b60006020820190508181036000830152611e6b81611e2f565b9050919050565b7f43726561746f72206f6e6c790000000000000000000000000000000000000000600082015250565b6000611ea8600c836117ca565b9150611eb382611e72565b602082019050919050565b60006020820190508181036000830152611ed781611e9b565b9050919050565b7f456d706c6f796565206f7220417070726f76657273206f6e6c79000000000000600082015250565b6000611f14601a836117ca565b9150611f1f82611ede565b602082019050919050565b60006020820190508181036000830152611f4381611f07565b9050919050565b7f416d6f756e74206c657373207468616e20636f6e747261637400000000000000600082015250565b6000611f806019836117ca565b9150611f8b82611f4a565b602082019050919050565b60006020820190508181036000830152611faf81611f73565b9050919050565b6000611fc182611d21565b9150611fcc83611d21565b9250827fffffffffffffffffffffffffffffffffffffffffffffffffffffffffffffffff0382111561200157612000611a65565b5b828201905092915050565b7f546f6f20736f6f6e2070657220706179207363686564756c6500000000000000600082015250565b60006120426019836117ca565b915061204d8261200c565b602082019050919050565b6000602082019050818103600083015261207181612035565b9050919050565b7f436865636b2052657369676e6174696f6e207374617475730000000000000000600082015250565b60006120ae6018836117ca565b91506120b982612078565b602082019050919050565b600060208201905081810360008301526120dd816120a1565b9050919050565b7f456d706c6f796565205369676e20496e76616c69640000000000000000000000600082015250565b600061211a6015836117ca565b9150612125826120e4565b602082019050919050565b600060208201905081810360008301526121498161210d565b905091905056fea2646970667358221220ecda9b251af1337af8f8c4ee8a8481f046ef9e506ddda20692cfd410a113d44464736f6c634300080e0033",
					"opcodes": "PUSH1 0x80 PUSH1 0x40 MSTORE CALLVALUE DUP1 ISZERO PUSH3 0x11 JUMPI PUSH1 0x0 DUP1 REVERT JUMPDEST POP PUSH1 0x40 MLOAD PUSH3 0x23FE CODESIZE SUB DUP1 PUSH3 0x23FE DUP4 CODECOPY DUP2 DUP2 ADD PUSH1 0x40 MSTORE DUP2 ADD SWAP1 PUSH3 0x37 SWAP2 SWAP1 PUSH3 0x1F6 JUMP JUMPDEST DUP4 PUSH1 0x0 DUP1 PUSH2 0x100 EXP DUP2 SLOAD DUP2 PUSH20 0xFFFFFFFFFFFFFFFFFFFFFFFFFFFFFFFFFFFFFFFF MUL NOT AND SWAP1 DUP4 PUSH20 0xFFFFFFFFFFFFFFFFFFFFFFFFFFFFFFFFFFFFFFFF AND MUL OR SWAP1 SSTORE POP DUP3 PUSH1 0x1 PUSH1 0x0 PUSH2 0x100 EXP DUP2 SLOAD DUP2 PUSH20 0xFFFFFFFFFFFFFFFFFFFFFFFFFFFFFFFFFFFFFFFF MUL NOT AND SWAP1 DUP4 PUSH20 0xFFFFFFFFFFFFFFFFFFFFFFFFFFFFFFFFFFFFFFFF AND MUL OR SWAP1 SSTORE POP DUP2 PUSH1 0x2 DUP2 SWAP1 SSTORE POP DUP1 PUSH1 0x3 DUP2 SWAP1 SSTORE POP PUSH1 0x1 PUSH1 0x5 PUSH1 0x0 PUSH1 0x1 PUSH1 0x0 SWAP1 SLOAD SWAP1 PUSH2 0x100 EXP SWAP1 DIV PUSH20 0xFFFFFFFFFFFFFFFFFFFFFFFFFFFFFFFFFFFFFFFF AND PUSH20 0xFFFFFFFFFFFFFFFFFFFFFFFFFFFFFFFFFFFFFFFF AND PUSH20 0xFFFFFFFFFFFFFFFFFFFFFFFFFFFFFFFFFFFFFFFF AND DUP2 MSTORE PUSH1 0x20 ADD SWAP1 DUP2 MSTORE PUSH1 0x20 ADD PUSH1 0x0 KECCAK256 PUSH1 0x0 PUSH2 0x100 EXP DUP2 SLOAD DUP2 PUSH1 0xFF MUL NOT AND SWAP1 DUP4 ISZERO ISZERO MUL OR SWAP1 SSTORE POP TIMESTAMP PUSH1 0x8 DUP2 SWAP1 SSTORE POP POP POP POP POP PUSH3 0x268 JUMP JUMPDEST PUSH1 0x0 DUP1 REVERT JUMPDEST PUSH1 0x0 PUSH20 0xFFFFFFFFFFFFFFFFFFFFFFFFFFFFFFFFFFFFFFFF DUP3 AND SWAP1 POP SWAP2 SWAP1 POP JUMP JUMPDEST PUSH1 0x0 PUSH3 0x183 DUP3 PUSH3 0x156 JUMP JUMPDEST SWAP1 POP SWAP2 SWAP1 POP JUMP JUMPDEST PUSH3 0x195 DUP2 PUSH3 0x176 JUMP JUMPDEST DUP2 EQ PUSH3 0x1A1 JUMPI PUSH1 0x0 DUP1 REVERT JUMPDEST POP JUMP JUMPDEST PUSH1 0x0 DUP2 MLOAD SWAP1 POP PUSH3 0x1B5 DUP2 PUSH3 0x18A JUMP JUMPDEST SWAP3 SWAP2 POP POP JUMP JUMPDEST PUSH1 0x0 DUP2 SWAP1 POP SWAP2 SWAP1 POP JUMP JUMPDEST PUSH3 0x1D0 DUP2 PUSH3 0x1BB JUMP JUMPDEST DUP2 EQ PUSH3 0x1DC JUMPI PUSH1 0x0 DUP1 REVERT JUMPDEST POP JUMP JUMPDEST PUSH1 0x0 DUP2 MLOAD SWAP1 POP PUSH3 0x1F0 DUP2 PUSH3 0x1C5 JUMP JUMPDEST SWAP3 SWAP2 POP POP JUMP JUMPDEST PUSH1 0x0 DUP1 PUSH1 0x0 DUP1 PUSH1 0x80 DUP6 DUP8 SUB SLT ISZERO PUSH3 0x213 JUMPI PUSH3 0x212 PUSH3 0x151 JUMP JUMPDEST JUMPDEST PUSH1 0x0 PUSH3 0x223 DUP8 DUP3 DUP9 ADD PUSH3 0x1A4 JUMP JUMPDEST SWAP5 POP POP PUSH1 0x20 PUSH3 0x236 DUP8 DUP3 DUP9 ADD PUSH3 0x1A4 JUMP JUMPDEST SWAP4 POP POP PUSH1 0x40 PUSH3 0x249 DUP8 DUP3 DUP9 ADD PUSH3 0x1DF JUMP JUMPDEST SWAP3 POP POP PUSH1 0x60 PUSH3 0x25C DUP8 DUP3 DUP9 ADD PUSH3 0x1DF JUMP JUMPDEST SWAP2 POP POP SWAP3 SWAP6 SWAP2 SWAP5 POP SWAP3 POP JUMP JUMPDEST PUSH2 0x2186 DUP1 PUSH3 0x278 PUSH1 0x0 CODECOPY PUSH1 0x0 RETURN INVALID PUSH1 0x80 PUSH1 0x40 MSTORE PUSH1 0x4 CALLDATASIZE LT PUSH2 0xE8 JUMPI PUSH1 0x0 CALLDATALOAD PUSH1 0xE0 SHR DUP1 PUSH4 0x7233F3D5 GT PUSH2 0x8A JUMPI DUP1 PUSH4 0x96FD3409 GT PUSH2 0x59 JUMPI DUP1 PUSH4 0x96FD3409 EQ PUSH2 0x287 JUMPI DUP1 PUSH4 0xBE9A6555 EQ PUSH2 0x291 JUMPI DUP1 PUSH4 0xCF3514A5 EQ PUSH2 0x2A8 JUMPI DUP1 PUSH4 0xF6E809B4 EQ PUSH2 0x2B2 JUMPI PUSH2 0xE8 JUMP JUMPDEST DUP1 PUSH4 0x7233F3D5 EQ PUSH2 0x1F1 JUMPI DUP1 PUSH4 0x802635A9 EQ PUSH2 0x21C JUMPI DUP1 PUSH4 0x83197EF0 EQ PUSH2 0x247 JUMPI DUP1 PUSH4 0x94B841C9 EQ PUSH2 0x25E JUMPI PUSH2 0xE8 JUMP JUMPDEST DUP1 PUSH4 0x5B39A33F GT PUSH2 0xC6 JUMPI DUP1 PUSH4 0x5B39A33F EQ PUSH2 0x16A JUMPI DUP1 PUSH4 0x69652FCF EQ PUSH2 0x181 JUMPI DUP1 PUSH4 0x6A882D51 EQ PUSH2 0x198 JUMPI DUP1 PUSH4 0x6BD1925C EQ PUSH2 0x1C1 JUMPI PUSH2 0xE8 JUMP JUMPDEST DUP1 PUSH4 0x1B203A21 EQ PUSH2 0xED JUMPI DUP1 PUSH4 0x2BFD91D4 EQ PUSH2 0x116 JUMPI DUP1 PUSH4 0x371A5FA0 EQ PUSH2 0x153 JUMPI JUMPDEST PUSH1 0x0 DUP1 REVERT JUMPDEST CALLVALUE DUP1 ISZERO PUSH2 0xF9 JUMPI PUSH1 0x0 DUP1 REVERT JUMPDEST POP PUSH2 0x114 PUSH1 0x4 DUP1 CALLDATASIZE SUB DUP2 ADD SWAP1 PUSH2 0x10F SWAP2 SWAP1 PUSH2 0x140A JUMP JUMPDEST PUSH2 0x2EF JUMP JUMPDEST STOP JUMPDEST CALLVALUE DUP1 ISZERO PUSH2 0x122 JUMPI PUSH1 0x0 DUP1 REVERT JUMPDEST POP PUSH2 0x13D PUSH1 0x4 DUP1 CALLDATASIZE SUB DUP2 ADD SWAP1 PUSH2 0x138 SWAP2 SWAP1 PUSH2 0x14A6 JUMP JUMPDEST PUSH2 0x3D6 JUMP JUMPDEST PUSH1 0x40 MLOAD PUSH2 0x14A SWAP2 SWAP1 PUSH2 0x152E JUMP JUMPDEST PUSH1 0x40 MLOAD DUP1 SWAP2 SUB SWAP1 RETURN JUMPDEST CALLVALUE DUP1 ISZERO PUSH2 0x15F JUMPI PUSH1 0x0 DUP1 REVERT JUMPDEST POP PUSH2 0x168 PUSH2 0x49F JUMP JUMPDEST STOP JUMPDEST CALLVALUE DUP1 ISZERO PUSH2 0x176 JUMPI PUSH1 0x0 DUP1 REVERT JUMPDEST POP PUSH2 0x17F PUSH2 0x525 JUMP JUMPDEST STOP JUMPDEST CALLVALUE DUP1 ISZERO PUSH2 0x18D JUMPI PUSH1 0x0 DUP1 REVERT JUMPDEST POP PUSH2 0x196 PUSH2 0x7B9 JUMP JUMPDEST STOP JUMPDEST CALLVALUE DUP1 ISZERO PUSH2 0x1A4 JUMPI PUSH1 0x0 DUP1 REVERT JUMPDEST POP PUSH2 0x1BF PUSH1 0x4 DUP1 CALLDATASIZE SUB DUP2 ADD SWAP1 PUSH2 0x1BA SWAP2 SWAP1 PUSH2 0x16CE JUMP JUMPDEST PUSH2 0x896 JUMP JUMPDEST STOP JUMPDEST PUSH2 0x1DB PUSH1 0x4 DUP1 CALLDATASIZE SUB DUP2 ADD SWAP1 PUSH2 0x1D6 SWAP2 SWAP1 PUSH2 0x1717 JUMP JUMPDEST PUSH2 0x976 JUMP JUMPDEST PUSH1 0x40 MLOAD PUSH2 0x1E8 SWAP2 SWAP1 PUSH2 0x1785 JUMP JUMPDEST PUSH1 0x40 MLOAD DUP1 SWAP2 SUB SWAP1 RETURN JUMPDEST CALLVALUE DUP1 ISZERO PUSH2 0x1FD JUMPI PUSH1 0x0 DUP1 REVERT JUMPDEST POP PUSH2 0x206 PUSH2 0xA6A JUMP JUMPDEST PUSH1 0x40 MLOAD PUSH2 0x213 SWAP2 SWAP1 PUSH2 0x17AF JUMP JUMPDEST PUSH1 0x40 MLOAD DUP1 SWAP2 SUB SWAP1 RETURN JUMPDEST CALLVALUE DUP1 ISZERO PUSH2 0x228 JUMPI PUSH1 0x0 DUP1 REVERT JUMPDEST POP PUSH2 0x231 PUSH2 0xAE5 JUMP JUMPDEST PUSH1 0x40 MLOAD PUSH2 0x23E SWAP2 SWAP1 PUSH2 0x1785 JUMP JUMPDEST PUSH1 0x40 MLOAD DUP1 SWAP2 SUB SWAP1 RETURN JUMPDEST CALLVALUE DUP1 ISZERO PUSH2 0x253 JUMPI PUSH1 0x0 DUP1 REVERT JUMPDEST POP PUSH2 0x25C PUSH2 0xC8D JUMP JUMPDEST STOP JUMPDEST CALLVALUE DUP1 ISZERO PUSH2 0x26A JUMPI PUSH1 0x0 DUP1 REVERT JUMPDEST POP PUSH2 0x285 PUSH1 0x4 DUP1 CALLDATASIZE SUB DUP2 ADD SWAP1 PUSH2 0x280 SWAP2 SWAP1 PUSH2 0x16CE JUMP JUMPDEST PUSH2 0xDAE JUMP JUMPDEST STOP JUMPDEST PUSH2 0x28F PUSH2 0xF51 JUMP JUMPDEST STOP JUMPDEST CALLVALUE DUP1 ISZERO PUSH2 0x29D JUMPI PUSH1 0x0 DUP1 REVERT JUMPDEST POP PUSH2 0x2A6 PUSH2 0x10E1 JUMP JUMPDEST STOP JUMPDEST PUSH2 0x2B0 PUSH2 0x116D JUMP JUMPDEST STOP JUMPDEST CALLVALUE DUP1 ISZERO PUSH2 0x2BE JUMPI PUSH1 0x0 DUP1 REVERT JUMPDEST POP PUSH2 0x2D9 PUSH1 0x4 DUP1 CALLDATASIZE SUB DUP2 ADD SWAP1 PUSH2 0x2D4 SWAP2 SWAP1 PUSH2 0x1717 JUMP JUMPDEST PUSH2 0x1256 JUMP JUMPDEST PUSH1 0x40 MLOAD PUSH2 0x2E6 SWAP2 SWAP1 PUSH2 0x1785 JUMP JUMPDEST PUSH1 0x40 MLOAD DUP1 SWAP2 SUB SWAP1 RETURN JUMPDEST PUSH1 0x5 PUSH1 0x0 CALLER PUSH20 0xFFFFFFFFFFFFFFFFFFFFFFFFFFFFFFFFFFFFFFFF AND PUSH20 0xFFFFFFFFFFFFFFFFFFFFFFFFFFFFFFFFFFFFFFFF AND DUP2 MSTORE PUSH1 0x20 ADD SWAP1 DUP2 MSTORE PUSH1 0x20 ADD PUSH1 0x0 KECCAK256 PUSH1 0x0 SWAP1 SLOAD SWAP1 PUSH2 0x100 EXP SWAP1 DIV PUSH1 0xFF AND PUSH2 0x345 JUMPI PUSH1 0x0 DUP1 REVERT JUMPDEST SELFBALANCE PUSH1 0x4 SLOAD GT ISZERO PUSH2 0x38A JUMPI PUSH1 0x40 MLOAD PUSH32 0x8C379A000000000000000000000000000000000000000000000000000000000 DUP2 MSTORE PUSH1 0x4 ADD PUSH2 0x381 SWAP1 PUSH2 0x1827 JUMP JUMPDEST PUSH1 0x40 MLOAD DUP1 SWAP2 SUB SWAP1 REVERT JUMPDEST DUP1 PUSH20 0xFFFFFFFFFFFFFFFFFFFFFFFFFFFFFFFFFFFFFFFF AND PUSH2 0x8FC PUSH1 0x4 SLOAD SWAP1 DUP2 ISZERO MUL SWAP1 PUSH1 0x40 MLOAD PUSH1 0x0 PUSH1 0x40 MLOAD DUP1 DUP4 SUB DUP2 DUP6 DUP9 DUP9 CALL SWAP4 POP POP POP POP ISZERO DUP1 ISZERO PUSH2 0x3D2 JUMPI RETURNDATASIZE PUSH1 0x0 DUP1 RETURNDATACOPY RETURNDATASIZE PUSH1 0x0 REVERT JUMPDEST POP POP JUMP JUMPDEST PUSH1 0x0 DUP1 PUSH1 0x40 MLOAD DUP1 PUSH1 0x40 ADD PUSH1 0x40 MSTORE DUP1 PUSH1 0x1C DUP2 MSTORE PUSH1 0x20 ADD PUSH32 0x19457468657265756D205369676E6564204D6573736167653A0A333200000000 DUP2 MSTORE POP SWAP1 POP PUSH1 0x0 DUP2 DUP8 PUSH1 0x40 MLOAD PUSH1 0x20 ADD PUSH2 0x426 SWAP3 SWAP2 SWAP1 PUSH2 0x18E2 JUMP JUMPDEST PUSH1 0x40 MLOAD PUSH1 0x20 DUP2 DUP4 SUB SUB DUP2 MSTORE SWAP1 PUSH1 0x40 MSTORE DUP1 MLOAD SWAP1 PUSH1 0x20 ADD KECCAK256 SWAP1 POP PUSH1 0x0 PUSH1 0x1 DUP3 DUP9 DUP9 DUP9 PUSH1 0x40 MLOAD PUSH1 0x0 DUP2 MSTORE PUSH1 0x20 ADD PUSH1 0x40 MSTORE PUSH1 0x40 MLOAD PUSH2 0x463 SWAP5 SWAP4 SWAP3 SWAP2 SWAP1 PUSH2 0x1919 JUMP JUMPDEST PUSH1 0x20 PUSH1 0x40 MLOAD PUSH1 0x20 DUP2 SUB SWAP1 DUP1 DUP5 SUB SWAP1 DUP6 GAS STATICCALL ISZERO DUP1 ISZERO PUSH2 0x485 JUMPI RETURNDATASIZE PUSH1 0x0 DUP1 RETURNDATACOPY RETURNDATASIZE PUSH1 0x0 REVERT JUMPDEST POP POP POP PUSH1 0x20 PUSH1 0x40 MLOAD SUB MLOAD SWAP1 POP DUP1 SWAP4 POP POP POP POP SWAP5 SWAP4 POP POP POP POP JUMP JUMPDEST PUSH1 0x7 PUSH1 0x1 SWAP1 SLOAD SWAP1 PUSH2 0x100 EXP SWAP1 DIV PUSH1 0xFF AND PUSH2 0x4B8 JUMPI PUSH1 0x0 DUP1 REVERT JUMPDEST PUSH1 0x7 PUSH1 0x0 SWAP1 SLOAD SWAP1 PUSH2 0x100 EXP SWAP1 DIV PUSH1 0xFF AND ISZERO PUSH2 0x508 JUMPI PUSH1 0x40 MLOAD PUSH32 0x8C379A000000000000000000000000000000000000000000000000000000000 DUP2 MSTORE PUSH1 0x4 ADD PUSH2 0x4FF SWAP1 PUSH2 0x19AA JUMP JUMPDEST PUSH1 0x40 MLOAD DUP1 SWAP2 SUB SWAP1 REVERT JUMPDEST PUSH1 0x0 PUSH1 0x7 PUSH1 0x2 PUSH2 0x100 EXP DUP2 SLOAD DUP2 PUSH1 0xFF MUL NOT AND SWAP1 DUP4 ISZERO ISZERO MUL OR SWAP1 SSTORE POP JUMP JUMPDEST PUSH1 0x7 PUSH1 0x3 SWAP1 SLOAD SWAP1 PUSH2 0x100 EXP SWAP1 DIV PUSH1 0xFF AND PUSH2 0x574 JUMPI PUSH1 0x40 MLOAD PUSH32 0x8C379A000000000000000000000000000000000000000000000000000000000 DUP2 MSTORE PUSH1 0x4 ADD PUSH2 0x56B SWAP1 PUSH2 0x1A16 JUMP JUMPDEST PUSH1 0x40 MLOAD DUP1 SWAP2 SUB SWAP1 REVERT JUMPDEST PUSH1 0x1 PUSH1 0xA PUSH1 0x0 CALLER PUSH20 0xFFFFFFFFFFFFFFFFFFFFFFFFFFFFFFFFFFFFFFFF AND PUSH20 0xFFFFFFFFFFFFFFFFFFFFFFFFFFFFFFFFFFFFFFFF AND DUP2 MSTORE PUSH1 0x20 ADD SWAP1 DUP2 MSTORE PUSH1 0x20 ADD PUSH1 0x0 KECCAK256 PUSH1 0x0 PUSH2 0x100 EXP DUP2 SLOAD DUP2 PUSH1 0xFF MUL NOT AND SWAP1 DUP4 ISZERO ISZERO MUL OR SWAP1 SSTORE POP PUSH1 0xA PUSH1 0x0 DUP1 PUSH1 0x0 SWAP1 SLOAD SWAP1 PUSH2 0x100 EXP SWAP1 DIV PUSH20 0xFFFFFFFFFFFFFFFFFFFFFFFFFFFFFFFFFFFFFFFF AND PUSH20 0xFFFFFFFFFFFFFFFFFFFFFFFFFFFFFFFFFFFFFFFF AND PUSH20 0xFFFFFFFFFFFFFFFFFFFFFFFFFFFFFFFFFFFFFFFF AND DUP2 MSTORE PUSH1 0x20 ADD SWAP1 DUP2 MSTORE PUSH1 0x20 ADD PUSH1 0x0 KECCAK256 PUSH1 0x0 SWAP1 SLOAD SWAP1 PUSH2 0x100 EXP SWAP1 DIV PUSH1 0xFF AND DUP1 ISZERO PUSH2 0x68F JUMPI POP PUSH1 0x5 PUSH1 0x0 CALLER PUSH20 0xFFFFFFFFFFFFFFFFFFFFFFFFFFFFFFFFFFFFFFFF AND PUSH20 0xFFFFFFFFFFFFFFFFFFFFFFFFFFFFFFFFFFFFFFFF AND DUP2 MSTORE PUSH1 0x20 ADD SWAP1 DUP2 MSTORE PUSH1 0x20 ADD PUSH1 0x0 KECCAK256 PUSH1 0x0 SWAP1 SLOAD SWAP1 PUSH2 0x100 EXP SWAP1 DIV PUSH1 0xFF AND JUMPDEST ISZERO PUSH2 0x79C JUMPI PUSH1 0x0 PUSH1 0x1 SWAP1 POP PUSH1 0x0 JUMPDEST PUSH1 0x9 DUP1 SLOAD SWAP1 POP DUP2 PUSH1 0xFF AND LT ISZERO PUSH2 0x759 JUMPI PUSH1 0xA PUSH1 0x0 PUSH1 0x9 DUP4 PUSH1 0xFF AND DUP2 SLOAD DUP2 LT PUSH2 0x6C8 JUMPI PUSH2 0x6C7 PUSH2 0x1A36 JUMP JUMPDEST JUMPDEST SWAP1 PUSH1 0x0 MSTORE PUSH1 0x20 PUSH1 0x0 KECCAK256 ADD PUSH1 0x0 SWAP1 SLOAD SWAP1 PUSH2 0x100 EXP SWAP1 DIV PUSH20 0xFFFFFFFFFFFFFFFFFFFFFFFFFFFFFFFFFFFFFFFF AND PUSH20 0xFFFFFFFFFFFFFFFFFFFFFFFFFFFFFFFFFFFFFFFF AND PUSH20 0xFFFFFFFFFFFFFFFFFFFFFFFFFFFFFFFFFFFFFFFF AND DUP2 MSTORE PUSH1 0x20 ADD SWAP1 DUP2 MSTORE PUSH1 0x20 ADD PUSH1 0x0 KECCAK256 PUSH1 0x0 SWAP1 SLOAD SWAP1 PUSH2 0x100 EXP SWAP1 DIV PUSH1 0xFF AND DUP1 ISZERO PUSH2 0x744 JUMPI POP DUP2 JUMPDEST SWAP2 POP DUP1 DUP1 PUSH2 0x751 SWAP1 PUSH2 0x1A94 JUMP JUMPDEST SWAP2 POP POP PUSH2 0x69D JUMP JUMPDEST POP DUP1 PUSH2 0x79A JUMPI PUSH1 0x40 MLOAD PUSH32 0x8C379A000000000000000000000000000000000000000000000000000000000 DUP2 MSTORE PUSH1 0x4 ADD PUSH2 0x791 SWAP1 PUSH2 0x1B09 JUMP JUMPDEST PUSH1 0x40 MLOAD DUP1 SWAP2 SUB SWAP1 REVERT JUMPDEST POP JUMPDEST PUSH1 0x0 PUSH1 0x7 PUSH1 0x3 PUSH2 0x100 EXP DUP2 SLOAD DUP2 PUSH1 0xFF MUL NOT AND SWAP1 DUP4 ISZERO ISZERO MUL OR SWAP1 SSTORE POP JUMP JUMPDEST PUSH1 0x7 PUSH1 0x0 SWAP1 SLOAD SWAP1 PUSH2 0x100 EXP SWAP1 DIV PUSH1 0xFF AND PUSH2 0x7D2 JUMPI PUSH1 0x0 DUP1 REVERT JUMPDEST PUSH1 0x7 PUSH1 0x1 SWAP1 SLOAD SWAP1 PUSH2 0x100 EXP SWAP1 DIV PUSH1 0xFF AND PUSH2 0x7EB JUMPI PUSH1 0x0 DUP1 REVERT JUMPDEST PUSH1 0x0 DUP1 SLOAD SWAP1 PUSH2 0x100 EXP SWAP1 DIV PUSH20 0xFFFFFFFFFFFFFFFFFFFFFFFFFFFFFFFFFFFFFFFF AND PUSH20 0xFFFFFFFFFFFFFFFFFFFFFFFFFFFFFFFFFFFFFFFF AND CALLER PUSH20 0xFFFFFFFFFFFFFFFFFFFFFFFFFFFFFFFFFFFFFFFF AND EQ PUSH2 0x879 JUMPI PUSH1 0x40 MLOAD PUSH32 0x8C379A000000000000000000000000000000000000000000000000000000000 DUP2 MSTORE PUSH1 0x4 ADD PUSH2 0x870 SWAP1 PUSH2 0x1B75 JUMP JUMPDEST PUSH1 0x40 MLOAD DUP1 SWAP2 SUB SWAP1 REVERT JUMPDEST PUSH1 0x0 PUSH1 0x7 PUSH1 0x0 PUSH2 0x100 EXP DUP2 SLOAD DUP2 PUSH1 0xFF MUL NOT AND SWAP1 DUP4 ISZERO ISZERO MUL OR SWAP1 SSTORE POP JUMP JUMPDEST PUSH1 0x5 DUP2 MLOAD GT ISZERO PUSH2 0x8DB JUMPI PUSH1 0x40 MLOAD PUSH32 0x8C379A000000000000000000000000000000000000000000000000000000000 DUP2 MSTORE PUSH1 0x4 ADD PUSH2 0x8D2 SWAP1 PUSH2 0x1BE1 JUMP JUMPDEST PUSH1 0x40 MLOAD DUP1 SWAP2 SUB SWAP1 REVERT JUMPDEST PUSH1 0x0 JUMPDEST DUP2 MLOAD DUP2 PUSH1 0xFF AND LT ISZERO PUSH2 0x972 JUMPI PUSH1 0x1 PUSH1 0x5 PUSH1 0x0 DUP5 DUP5 PUSH1 0xFF AND DUP2 MLOAD DUP2 LT PUSH2 0x906 JUMPI PUSH2 0x905 PUSH2 0x1A36 JUMP JUMPDEST JUMPDEST PUSH1 0x20 MUL PUSH1 0x20 ADD ADD MLOAD PUSH20 0xFFFFFFFFFFFFFFFFFFFFFFFFFFFFFFFFFFFFFFFF AND PUSH20 0xFFFFFFFFFFFFFFFFFFFFFFFFFFFFFFFFFFFFFFFF AND DUP2 MSTORE PUSH1 0x20 ADD SWAP1 DUP2 MSTORE PUSH1 0x20 ADD PUSH1 0x0 KECCAK256 PUSH1 0x0 PUSH2 0x100 EXP DUP2 SLOAD DUP2 PUSH1 0xFF MUL NOT AND SWAP1 DUP4 ISZERO ISZERO MUL OR SWAP1 SSTORE POP DUP1 DUP1 PUSH2 0x96A SWAP1 PUSH2 0x1A94 JUMP JUMPDEST SWAP2 POP POP PUSH2 0x8DE JUMP JUMPDEST POP POP JUMP JUMPDEST PUSH1 0x0 DUP1 CALLVALUE GT PUSH2 0x9BA JUMPI PUSH1 0x40 MLOAD PUSH32 0x8C379A000000000000000000000000000000000000000000000000000000000 DUP2 MSTORE PUSH1 0x4 ADD PUSH2 0x9B1 SWAP1 PUSH2 0x1C4D JUMP JUMPDEST PUSH1 0x40 MLOAD DUP1 SWAP2 SUB SWAP1 REVERT JUMPDEST PUSH1 0x1 PUSH1 0x0 SWAP1 SLOAD SWAP1 PUSH2 0x100 EXP SWAP1 DIV PUSH20 0xFFFFFFFFFFFFFFFFFFFFFFFFFFFFFFFFFFFFFFFF AND PUSH20 0xFFFFFFFFFFFFFFFFFFFFFFFFFFFFFFFFFFFFFFFF AND PUSH2 0xA06 PUSH2 0x9FE PUSH2 0xA6A JUMP JUMPDEST DUP7 DUP7 DUP7 PUSH2 0x3D6 JUMP JUMPDEST PUSH20 0xFFFFFFFFFFFFFFFFFFFFFFFFFFFFFFFFFFFFFFFF AND EQ PUSH2 0xA5C JUMPI PUSH1 0x40 MLOAD PUSH32 0x8C379A000000000000000000000000000000000000000000000000000000000 DUP2 MSTORE PUSH1 0x4 ADD PUSH2 0xA53 SWAP1 PUSH2 0x1CB9 JUMP JUMPDEST PUSH1 0x40 MLOAD DUP1 SWAP2 SUB SWAP1 REVERT JUMPDEST CALLVALUE PUSH1 0x4 DUP2 SWAP1 SSTORE POP SWAP4 SWAP3 POP POP POP JUMP JUMPDEST PUSH1 0x0 DUP1 PUSH1 0x0 SWAP1 SLOAD SWAP1 PUSH2 0x100 EXP SWAP1 DIV PUSH20 0xFFFFFFFFFFFFFFFFFFFFFFFFFFFFFFFFFFFFFFFF AND PUSH1 0x1 PUSH1 0x0 SWAP1 SLOAD SWAP1 PUSH2 0x100 EXP SWAP1 DIV PUSH20 0xFFFFFFFFFFFFFFFFFFFFFFFFFFFFFFFFFFFFFFFF AND PUSH1 0x2 SLOAD PUSH1 0x3 SLOAD PUSH1 0x40 MLOAD PUSH1 0x20 ADD PUSH2 0xACA SWAP5 SWAP4 SWAP3 SWAP2 SWAP1 PUSH2 0x1D4C JUMP JUMPDEST PUSH1 0x40 MLOAD PUSH1 0x20 DUP2 DUP4 SUB SUB DUP2 MSTORE SWAP1 PUSH1 0x40 MSTORE DUP1 MLOAD SWAP1 PUSH1 0x20 ADD KECCAK256 SWAP1 POP SWAP1 JUMP JUMPDEST PUSH1 0x0 PUSH1 0x1 ISZERO ISZERO PUSH1 0x6 PUSH1 0x0 DUP1 PUSH1 0x0 SWAP1 SLOAD SWAP1 PUSH2 0x100 EXP SWAP1 DIV PUSH20 0xFFFFFFFFFFFFFFFFFFFFFFFFFFFFFFFFFFFFFFFF AND PUSH20 0xFFFFFFFFFFFFFFFFFFFFFFFFFFFFFFFFFFFFFFFF AND PUSH20 0xFFFFFFFFFFFFFFFFFFFFFFFFFFFFFFFFFFFFFFFF AND DUP2 MSTORE PUSH1 0x20 ADD SWAP1 DUP2 MSTORE PUSH1 0x20 ADD PUSH1 0x0 KECCAK256 PUSH1 0x0 SWAP1 SLOAD SWAP1 PUSH2 0x100 EXP SWAP1 DIV PUSH1 0xFF AND ISZERO ISZERO SUB PUSH2 0xB9B JUMPI PUSH1 0x40 MLOAD PUSH32 0x8C379A000000000000000000000000000000000000000000000000000000000 DUP2 MSTORE PUSH1 0x4 ADD PUSH2 0xB92 SWAP1 PUSH2 0x1DE6 JUMP JUMPDEST PUSH1 0x40 MLOAD DUP1 SWAP2 SUB SWAP1 REVERT JUMPDEST PUSH1 0x0 PUSH1 0x4 SLOAD GT DUP1 ISZERO PUSH2 0xBB9 JUMPI POP PUSH1 0x7 PUSH1 0x0 SWAP1 SLOAD SWAP1 PUSH2 0x100 EXP SWAP1 DIV PUSH1 0xFF AND JUMPDEST PUSH2 0xBF8 JUMPI PUSH1 0x40 MLOAD PUSH32 0x8C379A000000000000000000000000000000000000000000000000000000000 DUP2 MSTORE PUSH1 0x4 ADD PUSH2 0xBEF SWAP1 PUSH2 0x1E52 JUMP JUMPDEST PUSH1 0x40 MLOAD DUP1 SWAP2 SUB SWAP1 REVERT JUMPDEST PUSH1 0x0 PUSH1 0x7 PUSH1 0x0 PUSH2 0x100 EXP DUP2 SLOAD DUP2 PUSH1 0xFF MUL NOT AND SWAP1 DUP4 ISZERO ISZERO MUL OR SWAP1 SSTORE POP PUSH1 0x0 PUSH1 0x4 DUP2 SWAP1 SSTORE POP PUSH1 0x1 PUSH1 0x0 SWAP1 SLOAD SWAP1 PUSH2 0x100 EXP SWAP1 DIV PUSH20 0xFFFFFFFFFFFFFFFFFFFFFFFFFFFFFFFFFFFFFFFF AND PUSH20 0xFFFFFFFFFFFFFFFFFFFFFFFFFFFFFFFFFFFFFFFF AND PUSH2 0x8FC PUSH1 0x4 SLOAD SWAP1 DUP2 ISZERO MUL SWAP1 PUSH1 0x40 MLOAD PUSH1 0x0 PUSH1 0x40 MLOAD DUP1 DUP4 SUB DUP2 DUP6 DUP9 DUP9 CALL SWAP4 POP POP POP POP ISZERO DUP1 ISZERO PUSH2 0xC85 JUMPI RETURNDATASIZE PUSH1 0x0 DUP1 RETURNDATACOPY RETURNDATASIZE PUSH1 0x0 REVERT JUMPDEST POP PUSH1 0x1 SWAP1 POP SWAP1 JUMP JUMPDEST PUSH1 0x5 PUSH1 0x0 CALLER PUSH20 0xFFFFFFFFFFFFFFFFFFFFFFFFFFFFFFFFFFFFFFFF AND PUSH20 0xFFFFFFFFFFFFFFFFFFFFFFFFFFFFFFFFFFFFFFFF AND DUP2 MSTORE PUSH1 0x20 ADD SWAP1 DUP2 MSTORE PUSH1 0x20 ADD PUSH1 0x0 KECCAK256 PUSH1 0x0 SWAP1 SLOAD SWAP1 PUSH2 0x100 EXP SWAP1 DIV PUSH1 0xFF AND PUSH2 0xCE3 JUMPI PUSH1 0x0 DUP1 REVERT JUMPDEST PUSH1 0x1 PUSH1 0x0 SWAP1 SLOAD SWAP1 PUSH2 0x100 EXP SWAP1 DIV PUSH20 0xFFFFFFFFFFFFFFFFFFFFFFFFFFFFFFFFFFFFFFFF AND PUSH20 0xFFFFFFFFFFFFFFFFFFFFFFFFFFFFFFFFFFFFFFFF AND CALLER PUSH20 0xFFFFFFFFFFFFFFFFFFFFFFFFFFFFFFFFFFFFFFFF AND EQ PUSH2 0xD73 JUMPI PUSH1 0x40 MLOAD PUSH32 0x8C379A000000000000000000000000000000000000000000000000000000000 DUP2 MSTORE PUSH1 0x4 ADD PUSH2 0xD6A SWAP1 PUSH2 0x1EBE JUMP JUMPDEST PUSH1 0x40 MLOAD DUP1 SWAP2 SUB SWAP1 REVERT JUMPDEST PUSH1 0x1 PUSH1 0x0 SWAP1 SLOAD SWAP1 PUSH2 0x100 EXP SWAP1 DIV PUSH20 0xFFFFFFFFFFFFFFFFFFFFFFFFFFFFFFFFFFFFFFFF AND PUSH20 0xFFFFFFFFFFFFFFFFFFFFFFFFFFFFFFFFFFFFFFFF AND SELFDESTRUCT JUMPDEST PUSH1 0x0 DUP1 SLOAD SWAP1 PUSH2 0x100 EXP SWAP1 DIV PUSH20 0xFFFFFFFFFFFFFFFFFFFFFFFFFFFFFFFFFFFFFFFF AND PUSH20 0xFFFFFFFFFFFFFFFFFFFFFFFFFFFFFFFFFFFFFFFF AND CALLER PUSH20 0xFFFFFFFFFFFFFFFFFFFFFFFFFFFFFFFFFFFFFFFF AND EQ DUP1 PUSH2 0xE51 JUMPI POP PUSH1 0x5 PUSH1 0x0 CALLER PUSH20 0xFFFFFFFFFFFFFFFFFFFFFFFFFFFFFFFFFFFFFFFF AND PUSH20 0xFFFFFFFFFFFFFFFFFFFFFFFFFFFFFFFFFFFFFFFF AND DUP2 MSTORE PUSH1 0x20 ADD SWAP1 DUP2 MSTORE PUSH1 0x20 ADD PUSH1 0x0 KECCAK256 PUSH1 0x0 SWAP1 SLOAD SWAP1 PUSH2 0x100 EXP SWAP1 DIV PUSH1 0xFF AND JUMPDEST PUSH2 0xE90 JUMPI PUSH1 0x40 MLOAD PUSH32 0x8C379A000000000000000000000000000000000000000000000000000000000 DUP2 MSTORE PUSH1 0x4 ADD PUSH2 0xE87 SWAP1 PUSH2 0x1F2A JUMP JUMPDEST PUSH1 0x40 MLOAD DUP1 SWAP2 SUB SWAP1 REVERT JUMPDEST PUSH1 0x1 PUSH1 0x7 PUSH1 0x3 PUSH2 0x100 EXP DUP2 SLOAD DUP2 PUSH1 0xFF MUL NOT AND SWAP1 DUP4 ISZERO ISZERO MUL OR SWAP1 SSTORE POP PUSH1 0x0 JUMPDEST DUP2 MLOAD DUP2 PUSH1 0xFF AND LT ISZERO PUSH2 0xF4D JUMPI PUSH1 0x9 DUP3 DUP3 PUSH1 0xFF AND DUP2 MLOAD DUP2 LT PUSH2 0xED2 JUMPI PUSH2 0xED1 PUSH2 0x1A36 JUMP JUMPDEST JUMPDEST PUSH1 0x20 MUL PUSH1 0x20 ADD ADD MLOAD SWAP1 DUP1 PUSH1 0x1 DUP2 SLOAD ADD DUP1 DUP3 SSTORE DUP1 SWAP2 POP POP PUSH1 0x1 SWAP1 SUB SWAP1 PUSH1 0x0 MSTORE PUSH1 0x20 PUSH1 0x0 KECCAK256 ADD PUSH1 0x0 SWAP1 SWAP2 SWAP1 SWAP2 SWAP1 SWAP2 PUSH2 0x100 EXP DUP2 SLOAD DUP2 PUSH20 0xFFFFFFFFFFFFFFFFFFFFFFFFFFFFFFFFFFFFFFFF MUL NOT AND SWAP1 DUP4 PUSH20 0xFFFFFFFFFFFFFFFFFFFFFFFFFFFFFFFFFFFFFFFF AND MUL OR SWAP1 SSTORE POP DUP1 DUP1 PUSH2 0xF45 SWAP1 PUSH2 0x1A94 JUMP JUMPDEST SWAP2 POP POP PUSH2 0xEAE JUMP JUMPDEST POP POP JUMP JUMPDEST PUSH1 0x7 PUSH1 0x0 SWAP1 SLOAD SWAP1 PUSH2 0x100 EXP SWAP1 DIV PUSH1 0xFF AND PUSH2 0xF6A JUMPI PUSH1 0x0 DUP1 REVERT JUMPDEST PUSH1 0x7 PUSH1 0x1 SWAP1 SLOAD SWAP1 PUSH2 0x100 EXP SWAP1 DIV PUSH1 0xFF AND PUSH2 0xF83 JUMPI PUSH1 0x0 DUP1 REVERT JUMPDEST PUSH1 0x5 PUSH1 0x0 CALLER PUSH20 0xFFFFFFFFFFFFFFFFFFFFFFFFFFFFFFFFFFFFFFFF AND PUSH20 0xFFFFFFFFFFFFFFFFFFFFFFFFFFFFFFFFFFFFFFFF AND DUP2 MSTORE PUSH1 0x20 ADD SWAP1 DUP2 MSTORE PUSH1 0x20 ADD PUSH1 0x0 KECCAK256 PUSH1 0x0 SWAP1 SLOAD SWAP1 PUSH2 0x100 EXP SWAP1 DIV PUSH1 0xFF AND PUSH2 0xFD9 JUMPI PUSH1 0x0 DUP1 REVERT JUMPDEST PUSH1 0x3 SLOAD CALLVALUE LT ISZERO PUSH2 0x101E JUMPI PUSH1 0x40 MLOAD PUSH32 0x8C379A000000000000000000000000000000000000000000000000000000000 DUP2 MSTORE PUSH1 0x4 ADD PUSH2 0x1015 SWAP1 PUSH2 0x1F96 JUMP JUMPDEST PUSH1 0x40 MLOAD DUP1 SWAP2 SUB SWAP1 REVERT JUMPDEST PUSH3 0x1FA400 PUSH1 0x8 SLOAD PUSH2 0x102F SWAP2 SWAP1 PUSH2 0x1FB6 JUMP JUMPDEST TIMESTAMP LT ISZERO PUSH2 0x1071 JUMPI PUSH1 0x40 MLOAD PUSH32 0x8C379A000000000000000000000000000000000000000000000000000000000 DUP2 MSTORE PUSH1 0x4 ADD PUSH2 0x1068 SWAP1 PUSH2 0x2058 JUMP JUMPDEST PUSH1 0x40 MLOAD DUP1 SWAP2 SUB SWAP1 REVERT JUMPDEST TIMESTAMP PUSH1 0x8 DUP2 SWAP1 SSTORE POP PUSH1 0x0 DUP1 SLOAD SWAP1 PUSH2 0x100 EXP SWAP1 DIV PUSH20 0xFFFFFFFFFFFFFFFFFFFFFFFFFFFFFFFFFFFFFFFF AND PUSH20 0xFFFFFFFFFFFFFFFFFFFFFFFFFFFFFFFFFFFFFFFF AND PUSH2 0x8FC CALLVALUE SWAP1 DUP2 ISZERO MUL SWAP1 PUSH1 0x40 MLOAD PUSH1 0x0 PUSH1 0x40 MLOAD DUP1 DUP4 SUB DUP2 DUP6 DUP9 DUP9 CALL SWAP4 POP POP POP POP ISZERO DUP1 ISZERO PUSH2 0x10DE JUMPI RETURNDATASIZE PUSH1 0x0 DUP1 RETURNDATACOPY RETURNDATASIZE PUSH1 0x0 REVERT JUMPDEST POP JUMP JUMPDEST PUSH1 0x7 PUSH1 0x0 SWAP1 SLOAD SWAP1 PUSH2 0x100 EXP SWAP1 DIV PUSH1 0xFF AND PUSH2 0x10FA JUMPI PUSH1 0x0 DUP1 REVERT JUMPDEST PUSH1 0x5 PUSH1 0x0 CALLER PUSH20 0xFFFFFFFFFFFFFFFFFFFFFFFFFFFFFFFFFFFFFFFF AND PUSH20 0xFFFFFFFFFFFFFFFFFFFFFFFFFFFFFFFFFFFFFFFF AND DUP2 MSTORE PUSH1 0x20 ADD SWAP1 DUP2 MSTORE PUSH1 0x20 ADD PUSH1 0x0 KECCAK256 PUSH1 0x0 SWAP1 SLOAD SWAP1 PUSH2 0x100 EXP SWAP1 DIV PUSH1 0xFF AND PUSH2 0x1150 JUMPI PUSH1 0x0 DUP1 REVERT JUMPDEST PUSH1 0x1 PUSH1 0x7 PUSH1 0x1 PUSH2 0x100 EXP DUP2 SLOAD DUP2 PUSH1 0xFF MUL NOT AND SWAP1 DUP4 ISZERO ISZERO MUL OR SWAP1 SSTORE POP JUMP JUMPDEST PUSH1 0x7 PUSH1 0x1 SWAP1 SLOAD SWAP1 PUSH2 0x100 EXP SWAP1 DIV PUSH1 0xFF AND DUP1 ISZERO PUSH2 0x1195 JUMPI POP PUSH1 0x7 PUSH1 0x2 SWAP1 SLOAD SWAP1 PUSH2 0x100 EXP SWAP1 DIV PUSH1 0xFF AND JUMPDEST DUP1 ISZERO PUSH2 0x11AE JUMPI POP PUSH1 0x7 PUSH1 0x0 SWAP1 SLOAD SWAP1 PUSH2 0x100 EXP SWAP1 DIV PUSH1 0xFF AND ISZERO JUMPDEST PUSH2 0x11ED JUMPI PUSH1 0x40 MLOAD PUSH32 0x8C379A000000000000000000000000000000000000000000000000000000000 DUP2 MSTORE PUSH1 0x4 ADD PUSH2 0x11E4 SWAP1 PUSH2 0x20C4 JUMP JUMPDEST PUSH1 0x40 MLOAD DUP1 SWAP2 SUB SWAP1 REVERT JUMPDEST PUSH1 0x0 DUP1 SLOAD SWAP1 PUSH2 0x100 EXP SWAP1 DIV PUSH20 0xFFFFFFFFFFFFFFFFFFFFFFFFFFFFFFFFFFFFFFFF AND PUSH20 0xFFFFFFFFFFFFFFFFFFFFFFFFFFFFFFFFFFFFFFFF AND PUSH2 0x8FC CALLVALUE SWAP1 DUP2 ISZERO MUL SWAP1 PUSH1 0x40 MLOAD PUSH1 0x0 PUSH1 0x40 MLOAD DUP1 DUP4 SUB DUP2 DUP6 DUP9 DUP9 CALL SWAP4 POP POP POP POP ISZERO DUP1 ISZERO PUSH2 0x1253 JUMPI RETURNDATASIZE PUSH1 0x0 DUP1 RETURNDATACOPY RETURNDATASIZE PUSH1 0x0 REVERT JUMPDEST POP JUMP JUMPDEST PUSH1 0x0 DUP1 PUSH1 0x0 SWAP1 SLOAD SWAP1 PUSH2 0x100 EXP SWAP1 DIV PUSH20 0xFFFFFFFFFFFFFFFFFFFFFFFFFFFFFFFFFFFFFFFF AND PUSH20 0xFFFFFFFFFFFFFFFFFFFFFFFFFFFFFFFFFFFFFFFF AND PUSH2 0x12A3 PUSH2 0x129B PUSH2 0xA6A JUMP JUMPDEST DUP7 DUP7 DUP7 PUSH2 0x3D6 JUMP JUMPDEST PUSH20 0xFFFFFFFFFFFFFFFFFFFFFFFFFFFFFFFFFFFFFFFF AND EQ PUSH2 0x12F9 JUMPI PUSH1 0x40 MLOAD PUSH32 0x8C379A000000000000000000000000000000000000000000000000000000000 DUP2 MSTORE PUSH1 0x4 ADD PUSH2 0x12F0 SWAP1 PUSH2 0x2130 JUMP JUMPDEST PUSH1 0x40 MLOAD DUP1 SWAP2 SUB SWAP1 REVERT JUMPDEST PUSH1 0x1 PUSH1 0x6 PUSH1 0x0 DUP1 PUSH1 0x0 SWAP1 SLOAD SWAP1 PUSH2 0x100 EXP SWAP1 DIV PUSH20 0xFFFFFFFFFFFFFFFFFFFFFFFFFFFFFFFFFFFFFFFF AND PUSH20 0xFFFFFFFFFFFFFFFFFFFFFFFFFFFFFFFFFFFFFFFF AND PUSH20 0xFFFFFFFFFFFFFFFFFFFFFFFFFFFFFFFFFFFFFFFF AND DUP2 MSTORE PUSH1 0x20 ADD SWAP1 DUP2 MSTORE PUSH1 0x20 ADD PUSH1 0x0 KECCAK256 PUSH1 0x0 PUSH2 0x100 EXP DUP2 SLOAD DUP2 PUSH1 0xFF MUL NOT AND SWAP1 DUP4 ISZERO ISZERO MUL OR SWAP1 SSTORE POP PUSH1 0x1 PUSH1 0x7 PUSH1 0x0 PUSH2 0x100 EXP DUP2 SLOAD DUP2 PUSH1 0xFF MUL NOT AND SWAP1 DUP4 ISZERO ISZERO MUL OR SWAP1 SSTORE POP PUSH1 0x1 SWAP1 POP SWAP4 SWAP3 POP POP POP JUMP JUMPDEST PUSH1 0x0 PUSH1 0x40 MLOAD SWAP1 POP SWAP1 JUMP JUMPDEST PUSH1 0x0 DUP1 REVERT JUMPDEST PUSH1 0x0 DUP1 REVERT JUMPDEST PUSH1 0x0 PUSH20 0xFFFFFFFFFFFFFFFFFFFFFFFFFFFFFFFFFFFFFFFF DUP3 AND SWAP1 POP SWAP2 SWAP1 POP JUMP JUMPDEST PUSH1 0x0 PUSH2 0x13D7 DUP3 PUSH2 0x13AC JUMP JUMPDEST SWAP1 POP SWAP2 SWAP1 POP JUMP JUMPDEST PUSH2 0x13E7 DUP2 PUSH2 0x13CC JUMP JUMPDEST DUP2 EQ PUSH2 0x13F2 JUMPI PUSH1 0x0 DUP1 REVERT JUMPDEST POP JUMP JUMPDEST PUSH1 0x0 DUP2 CALLDATALOAD SWAP1 POP PUSH2 0x1404 DUP2 PUSH2 0x13DE JUMP JUMPDEST SWAP3 SWAP2 POP POP JUMP JUMPDEST PUSH1 0x0 PUSH1 0x20 DUP3 DUP5 SUB SLT ISZERO PUSH2 0x1420 JUMPI PUSH2 0x141F PUSH2 0x13A2 JUMP JUMPDEST JUMPDEST PUSH1 0x0 PUSH2 0x142E DUP5 DUP3 DUP6 ADD PUSH2 0x13F5 JUMP JUMPDEST SWAP2 POP POP SWAP3 SWAP2 POP POP JUMP JUMPDEST PUSH1 0x0 DUP2 SWAP1 POP SWAP2 SWAP1 POP JUMP JUMPDEST PUSH2 0x144A DUP2 PUSH2 0x1437 JUMP JUMPDEST DUP2 EQ PUSH2 0x1455 JUMPI PUSH1 0x0 DUP1 REVERT JUMPDEST POP JUMP JUMPDEST PUSH1 0x0 DUP2 CALLDATALOAD SWAP1 POP PUSH2 0x1467 DUP2 PUSH2 0x1441 JUMP JUMPDEST SWAP3 SWAP2 POP POP JUMP JUMPDEST PUSH1 0x0 PUSH1 0xFF DUP3 AND SWAP1 POP SWAP2 SWAP1 POP JUMP JUMPDEST PUSH2 0x1483 DUP2 PUSH2 0x146D JUMP JUMPDEST DUP2 EQ PUSH2 0x148E JUMPI PUSH1 0x0 DUP1 REVERT JUMPDEST POP JUMP JUMPDEST PUSH1 0x0 DUP2 CALLDATALOAD SWAP1 POP PUSH2 0x14A0 DUP2 PUSH2 0x147A JUMP JUMPDEST SWAP3 SWAP2 POP POP JUMP JUMPDEST PUSH1 0x0 DUP1 PUSH1 0x0 DUP1 PUSH1 0x80 DUP6 DUP8 SUB SLT ISZERO PUSH2 0x14C0 JUMPI PUSH2 0x14BF PUSH2 0x13A2 JUMP JUMPDEST JUMPDEST PUSH1 0x0 PUSH2 0x14CE DUP8 DUP3 DUP9 ADD PUSH2 0x1458 JUMP JUMPDEST SWAP5 POP POP PUSH1 0x20 PUSH2 0x14DF DUP8 DUP3 DUP9 ADD PUSH2 0x1491 JUMP JUMPDEST SWAP4 POP POP PUSH1 0x40 PUSH2 0x14F0 DUP8 DUP3 DUP9 ADD PUSH2 0x1458 JUMP JUMPDEST SWAP3 POP POP PUSH1 0x60 PUSH2 0x1501 DUP8 DUP3 DUP9 ADD PUSH2 0x1458 JUMP JUMPDEST SWAP2 POP POP SWAP3 SWAP6 SWAP2 SWAP5 POP SWAP3 POP JUMP JUMPDEST PUSH1 0x0 PUSH2 0x1518 DUP3 PUSH2 0x13AC JUMP JUMPDEST SWAP1 POP SWAP2 SWAP1 POP JUMP JUMPDEST PUSH2 0x1528 DUP2 PUSH2 0x150D JUMP JUMPDEST DUP3 MSTORE POP POP JUMP JUMPDEST PUSH1 0x0 PUSH1 0x20 DUP3 ADD SWAP1 POP PUSH2 0x1543 PUSH1 0x0 DUP4 ADD DUP5 PUSH2 0x151F JUMP JUMPDEST SWAP3 SWAP2 POP POP JUMP JUMPDEST PUSH1 0x0 DUP1 REVERT JUMPDEST PUSH1 0x0 PUSH1 0x1F NOT PUSH1 0x1F DUP4 ADD AND SWAP1 POP SWAP2 SWAP1 POP JUMP JUMPDEST PUSH32 0x4E487B7100000000000000000000000000000000000000000000000000000000 PUSH1 0x0 MSTORE PUSH1 0x41 PUSH1 0x4 MSTORE PUSH1 0x24 PUSH1 0x0 REVERT JUMPDEST PUSH2 0x1597 DUP3 PUSH2 0x154E JUMP JUMPDEST DUP2 ADD DUP2 DUP2 LT PUSH8 0xFFFFFFFFFFFFFFFF DUP3 GT OR ISZERO PUSH2 0x15B6 JUMPI PUSH2 0x15B5 PUSH2 0x155F JUMP JUMPDEST JUMPDEST DUP1 PUSH1 0x40 MSTORE POP POP POP JUMP JUMPDEST PUSH1 0x0 PUSH2 0x15C9 PUSH2 0x1398 JUMP JUMPDEST SWAP1 POP PUSH2 0x15D5 DUP3 DUP3 PUSH2 0x158E JUMP JUMPDEST SWAP2 SWAP1 POP JUMP JUMPDEST PUSH1 0x0 PUSH8 0xFFFFFFFFFFFFFFFF DUP3 GT ISZERO PUSH2 0x15F5 JUMPI PUSH2 0x15F4 PUSH2 0x155F JUMP JUMPDEST JUMPDEST PUSH1 0x20 DUP3 MUL SWAP1 POP PUSH1 0x20 DUP2 ADD SWAP1 POP SWAP2 SWAP1 POP JUMP JUMPDEST PUSH1 0x0 DUP1 REVERT JUMPDEST PUSH2 0x1614 DUP2 PUSH2 0x150D JUMP JUMPDEST DUP2 EQ PUSH2 0x161F JUMPI PUSH1 0x0 DUP1 REVERT JUMPDEST POP JUMP JUMPDEST PUSH1 0x0 DUP2 CALLDATALOAD SWAP1 POP PUSH2 0x1631 DUP2 PUSH2 0x160B JUMP JUMPDEST SWAP3 SWAP2 POP POP JUMP JUMPDEST PUSH1 0x0 PUSH2 0x164A PUSH2 0x1645 DUP5 PUSH2 0x15DA JUMP JUMPDEST PUSH2 0x15BF JUMP JUMPDEST SWAP1 POP DUP1 DUP4 DUP3 MSTORE PUSH1 0x20 DUP3 ADD SWAP1 POP PUSH1 0x20 DUP5 MUL DUP4 ADD DUP6 DUP2 GT ISZERO PUSH2 0x166D JUMPI PUSH2 0x166C PUSH2 0x1606 JUMP JUMPDEST JUMPDEST DUP4 JUMPDEST DUP2 DUP2 LT ISZERO PUSH2 0x1696 JUMPI DUP1 PUSH2 0x1682 DUP9 DUP3 PUSH2 0x1622 JUMP JUMPDEST DUP5 MSTORE PUSH1 0x20 DUP5 ADD SWAP4 POP POP PUSH1 0x20 DUP2 ADD SWAP1 POP PUSH2 0x166F JUMP JUMPDEST POP POP POP SWAP4 SWAP3 POP POP POP JUMP JUMPDEST PUSH1 0x0 DUP3 PUSH1 0x1F DUP4 ADD SLT PUSH2 0x16B5 JUMPI PUSH2 0x16B4 PUSH2 0x1549 JUMP JUMPDEST JUMPDEST DUP2 CALLDATALOAD PUSH2 0x16C5 DUP5 DUP3 PUSH1 0x20 DUP7 ADD PUSH2 0x1637 JUMP JUMPDEST SWAP2 POP POP SWAP3 SWAP2 POP POP JUMP JUMPDEST PUSH1 0x0 PUSH1 0x20 DUP3 DUP5 SUB SLT ISZERO PUSH2 0x16E4 JUMPI PUSH2 0x16E3 PUSH2 0x13A2 JUMP JUMPDEST JUMPDEST PUSH1 0x0 DUP3 ADD CALLDATALOAD PUSH8 0xFFFFFFFFFFFFFFFF DUP2 GT ISZERO PUSH2 0x1702 JUMPI PUSH2 0x1701 PUSH2 0x13A7 JUMP JUMPDEST JUMPDEST PUSH2 0x170E DUP5 DUP3 DUP6 ADD PUSH2 0x16A0 JUMP JUMPDEST SWAP2 POP POP SWAP3 SWAP2 POP POP JUMP JUMPDEST PUSH1 0x0 DUP1 PUSH1 0x0 PUSH1 0x60 DUP5 DUP7 SUB SLT ISZERO PUSH2 0x1730 JUMPI PUSH2 0x172F PUSH2 0x13A2 JUMP JUMPDEST JUMPDEST PUSH1 0x0 PUSH2 0x173E DUP7 DUP3 DUP8 ADD PUSH2 0x1491 JUMP JUMPDEST SWAP4 POP POP PUSH1 0x20 PUSH2 0x174F DUP7 DUP3 DUP8 ADD PUSH2 0x1458 JUMP JUMPDEST SWAP3 POP POP PUSH1 0x40 PUSH2 0x1760 DUP7 DUP3 DUP8 ADD PUSH2 0x1458 JUMP JUMPDEST SWAP2 POP POP SWAP3 POP SWAP3 POP SWAP3 JUMP JUMPDEST PUSH1 0x0 DUP2 ISZERO ISZERO SWAP1 POP SWAP2 SWAP1 POP JUMP JUMPDEST PUSH2 0x177F DUP2 PUSH2 0x176A JUMP JUMPDEST DUP3 MSTORE POP POP JUMP JUMPDEST PUSH1 0x0 PUSH1 0x20 DUP3 ADD SWAP1 POP PUSH2 0x179A PUSH1 0x0 DUP4 ADD DUP5 PUSH2 0x1776 JUMP JUMPDEST SWAP3 SWAP2 POP POP JUMP JUMPDEST PUSH2 0x17A9 DUP2 PUSH2 0x1437 JUMP JUMPDEST DUP3 MSTORE POP POP JUMP JUMPDEST PUSH1 0x0 PUSH1 0x20 DUP3 ADD SWAP1 POP PUSH2 0x17C4 PUSH1 0x0 DUP4 ADD DUP5 PUSH2 0x17A0 JUMP JUMPDEST SWAP3 SWAP2 POP POP JUMP JUMPDEST PUSH1 0x0 DUP3 DUP3 MSTORE PUSH1 0x20 DUP3 ADD SWAP1 POP SWAP3 SWAP2 POP POP JUMP JUMPDEST PUSH32 0x4C6F772042616C616E6365000000000000000000000000000000000000000000 PUSH1 0x0 DUP3 ADD MSTORE POP JUMP JUMPDEST PUSH1 0x0 PUSH2 0x1811 PUSH1 0xB DUP4 PUSH2 0x17CA JUMP JUMPDEST SWAP2 POP PUSH2 0x181C DUP3 PUSH2 0x17DB JUMP JUMPDEST PUSH1 0x20 DUP3 ADD SWAP1 POP SWAP2 SWAP1 POP JUMP JUMPDEST PUSH1 0x0 PUSH1 0x20 DUP3 ADD SWAP1 POP DUP2 DUP2 SUB PUSH1 0x0 DUP4 ADD MSTORE PUSH2 0x1840 DUP2 PUSH2 0x1804 JUMP JUMPDEST SWAP1 POP SWAP2 SWAP1 POP JUMP JUMPDEST PUSH1 0x0 DUP2 MLOAD SWAP1 POP SWAP2 SWAP1 POP JUMP JUMPDEST PUSH1 0x0 DUP2 SWAP1 POP SWAP3 SWAP2 POP POP JUMP JUMPDEST PUSH1 0x0 JUMPDEST DUP4 DUP2 LT ISZERO PUSH2 0x187B JUMPI DUP1 DUP3 ADD MLOAD DUP2 DUP5 ADD MSTORE PUSH1 0x20 DUP2 ADD SWAP1 POP PUSH2 0x1860 JUMP JUMPDEST DUP4 DUP2 GT ISZERO PUSH2 0x188A JUMPI PUSH1 0x0 DUP5 DUP5 ADD MSTORE JUMPDEST POP POP POP POP JUMP JUMPDEST PUSH1 0x0 PUSH2 0x189B DUP3 PUSH2 0x1847 JUMP JUMPDEST PUSH2 0x18A5 DUP2 DUP6 PUSH2 0x1852 JUMP JUMPDEST SWAP4 POP PUSH2 0x18B5 DUP2 DUP6 PUSH1 0x20 DUP7 ADD PUSH2 0x185D JUMP JUMPDEST DUP1 DUP5 ADD SWAP2 POP POP SWAP3 SWAP2 POP POP JUMP JUMPDEST PUSH1 0x0 DUP2 SWAP1 POP SWAP2 SWAP1 POP JUMP JUMPDEST PUSH2 0x18DC PUSH2 0x18D7 DUP3 PUSH2 0x1437 JUMP JUMPDEST PUSH2 0x18C1 JUMP JUMPDEST DUP3 MSTORE POP POP JUMP JUMPDEST PUSH1 0x0 PUSH2 0x18EE DUP3 DUP6 PUSH2 0x1890 JUMP JUMPDEST SWAP2 POP PUSH2 0x18FA DUP3 DUP5 PUSH2 0x18CB JUMP JUMPDEST PUSH1 0x20 DUP3 ADD SWAP2 POP DUP2 SWAP1 POP SWAP4 SWAP3 POP POP POP JUMP JUMPDEST PUSH2 0x1913 DUP2 PUSH2 0x146D JUMP JUMPDEST DUP3 MSTORE POP POP JUMP JUMPDEST PUSH1 0x0 PUSH1 0x80 DUP3 ADD SWAP1 POP PUSH2 0x192E PUSH1 0x0 DUP4 ADD DUP8 PUSH2 0x17A0 JUMP JUMPDEST PUSH2 0x193B PUSH1 0x20 DUP4 ADD DUP7 PUSH2 0x190A JUMP JUMPDEST PUSH2 0x1948 PUSH1 0x40 DUP4 ADD DUP6 PUSH2 0x17A0 JUMP JUMPDEST PUSH2 0x1955 PUSH1 0x60 DUP4 ADD DUP5 PUSH2 0x17A0 JUMP JUMPDEST SWAP6 SWAP5 POP POP POP POP POP JUMP JUMPDEST PUSH32 0x41637469766520436F6E74726163740000000000000000000000000000000000 PUSH1 0x0 DUP3 ADD MSTORE POP JUMP JUMPDEST PUSH1 0x0 PUSH2 0x1994 PUSH1 0xF DUP4 PUSH2 0x17CA JUMP JUMPDEST SWAP2 POP PUSH2 0x199F DUP3 PUSH2 0x195E JUMP JUMPDEST PUSH1 0x20 DUP3 ADD SWAP1 POP SWAP2 SWAP1 POP JUMP JUMPDEST PUSH1 0x0 PUSH1 0x20 DUP3 ADD SWAP1 POP DUP2 DUP2 SUB PUSH1 0x0 DUP4 ADD MSTORE PUSH2 0x19C3 DUP2 PUSH2 0x1987 JUMP JUMPDEST SWAP1 POP SWAP2 SWAP1 POP JUMP JUMPDEST PUSH32 0x4E6F20646973707574657320746F207265736F6C766500000000000000000000 PUSH1 0x0 DUP3 ADD MSTORE POP JUMP JUMPDEST PUSH1 0x0 PUSH2 0x1A00 PUSH1 0x16 DUP4 PUSH2 0x17CA JUMP JUMPDEST SWAP2 POP PUSH2 0x1A0B DUP3 PUSH2 0x19CA JUMP JUMPDEST PUSH1 0x20 DUP3 ADD SWAP1 POP SWAP2 SWAP1 POP JUMP JUMPDEST PUSH1 0x0 PUSH1 0x20 DUP3 ADD SWAP1 POP DUP2 DUP2 SUB PUSH1 0x0 DUP4 ADD MSTORE PUSH2 0x1A2F DUP2 PUSH2 0x19F3 JUMP JUMPDEST SWAP1 POP SWAP2 SWAP1 POP JUMP JUMPDEST PUSH32 0x4E487B7100000000000000000000000000000000000000000000000000000000 PUSH1 0x0 MSTORE PUSH1 0x32 PUSH1 0x4 MSTORE PUSH1 0x24 PUSH1 0x0 REVERT JUMPDEST PUSH32 0x4E487B7100000000000000000000000000000000000000000000000000000000 PUSH1 0x0 MSTORE PUSH1 0x11 PUSH1 0x4 MSTORE PUSH1 0x24 PUSH1 0x0 REVERT JUMPDEST PUSH1 0x0 PUSH2 0x1A9F DUP3 PUSH2 0x146D JUMP JUMPDEST SWAP2 POP PUSH1 0xFF DUP3 SUB PUSH2 0x1AB2 JUMPI PUSH2 0x1AB1 PUSH2 0x1A65 JUMP JUMPDEST JUMPDEST PUSH1 0x1 DUP3 ADD SWAP1 POP SWAP2 SWAP1 POP JUMP JUMPDEST PUSH32 0x416C6C2061726269747261746F727320686176656E2774207265736F6C766564 PUSH1 0x0 DUP3 ADD MSTORE POP JUMP JUMPDEST PUSH1 0x0 PUSH2 0x1AF3 PUSH1 0x20 DUP4 PUSH2 0x17CA JUMP JUMPDEST SWAP2 POP PUSH2 0x1AFE DUP3 PUSH2 0x1ABD JUMP JUMPDEST PUSH1 0x20 DUP3 ADD SWAP1 POP SWAP2 SWAP1 POP JUMP JUMPDEST PUSH1 0x0 PUSH1 0x20 DUP3 ADD SWAP1 POP DUP2 DUP2 SUB PUSH1 0x0 DUP4 ADD MSTORE PUSH2 0x1B22 DUP2 PUSH2 0x1AE6 JUMP JUMPDEST SWAP1 POP SWAP2 SWAP1 POP JUMP JUMPDEST PUSH32 0x4F6E6C7920456D706C6F79656500000000000000000000000000000000000000 PUSH1 0x0 DUP3 ADD MSTORE POP JUMP JUMPDEST PUSH1 0x0 PUSH2 0x1B5F PUSH1 0xD DUP4 PUSH2 0x17CA JUMP JUMPDEST SWAP2 POP PUSH2 0x1B6A DUP3 PUSH2 0x1B29 JUMP JUMPDEST PUSH1 0x20 DUP3 ADD SWAP1 POP SWAP2 SWAP1 POP JUMP JUMPDEST PUSH1 0x0 PUSH1 0x20 DUP3 ADD SWAP1 POP DUP2 DUP2 SUB PUSH1 0x0 DUP4 ADD MSTORE PUSH2 0x1B8E DUP2 PUSH2 0x1B52 JUMP JUMPDEST SWAP1 POP SWAP2 SWAP1 POP JUMP JUMPDEST PUSH32 0x4E6F206D6F7265207468616E203520617070726F766572730000000000000000 PUSH1 0x0 DUP3 ADD MSTORE POP JUMP JUMPDEST PUSH1 0x0 PUSH2 0x1BCB PUSH1 0x18 DUP4 PUSH2 0x17CA JUMP JUMPDEST SWAP2 POP PUSH2 0x1BD6 DUP3 PUSH2 0x1B95 JUMP JUMPDEST PUSH1 0x20 DUP3 ADD SWAP1 POP SWAP2 SWAP1 POP JUMP JUMPDEST PUSH1 0x0 PUSH1 0x20 DUP3 ADD SWAP1 POP DUP2 DUP2 SUB PUSH1 0x0 DUP4 ADD MSTORE PUSH2 0x1BFA DUP2 PUSH2 0x1BBE JUMP JUMPDEST SWAP1 POP SWAP2 SWAP1 POP JUMP JUMPDEST PUSH32 0x43616E27742068617665207A65726F207374616B650000000000000000000000 PUSH1 0x0 DUP3 ADD MSTORE POP JUMP JUMPDEST PUSH1 0x0 PUSH2 0x1C37 PUSH1 0x15 DUP4 PUSH2 0x17CA JUMP JUMPDEST SWAP2 POP PUSH2 0x1C42 DUP3 PUSH2 0x1C01 JUMP JUMPDEST PUSH1 0x20 DUP3 ADD SWAP1 POP SWAP2 SWAP1 POP JUMP JUMPDEST PUSH1 0x0 PUSH1 0x20 DUP3 ADD SWAP1 POP DUP2 DUP2 SUB PUSH1 0x0 DUP4 ADD MSTORE PUSH2 0x1C66 DUP2 PUSH2 0x1C2A JUMP JUMPDEST SWAP1 POP SWAP2 SWAP1 POP JUMP JUMPDEST PUSH32 0x456D706C6F796572205369676E20496E76616C69640000000000000000000000 PUSH1 0x0 DUP3 ADD MSTORE POP JUMP JUMPDEST PUSH1 0x0 PUSH2 0x1CA3 PUSH1 0x15 DUP4 PUSH2 0x17CA JUMP JUMPDEST SWAP2 POP PUSH2 0x1CAE DUP3 PUSH2 0x1C6D JUMP JUMPDEST PUSH1 0x20 DUP3 ADD SWAP1 POP SWAP2 SWAP1 POP JUMP JUMPDEST PUSH1 0x0 PUSH1 0x20 DUP3 ADD SWAP1 POP DUP2 DUP2 SUB PUSH1 0x0 DUP4 ADD MSTORE PUSH2 0x1CD2 DUP2 PUSH2 0x1C96 JUMP JUMPDEST SWAP1 POP SWAP2 SWAP1 POP JUMP JUMPDEST PUSH1 0x0 DUP2 PUSH1 0x60 SHL SWAP1 POP SWAP2 SWAP1 POP JUMP JUMPDEST PUSH1 0x0 PUSH2 0x1CF1 DUP3 PUSH2 0x1CD9 JUMP JUMPDEST SWAP1 POP SWAP2 SWAP1 POP JUMP JUMPDEST PUSH1 0x0 PUSH2 0x1D03 DUP3 PUSH2 0x1CE6 JUMP JUMPDEST SWAP1 POP SWAP2 SWAP1 POP JUMP JUMPDEST PUSH2 0x1D1B PUSH2 0x1D16 DUP3 PUSH2 0x150D JUMP JUMPDEST PUSH2 0x1CF8 JUMP JUMPDEST DUP3 MSTORE POP POP JUMP JUMPDEST PUSH1 0x0 DUP2 SWAP1 POP SWAP2 SWAP1 POP JUMP JUMPDEST PUSH1 0x0 DUP2 SWAP1 POP SWAP2 SWAP1 POP JUMP JUMPDEST PUSH2 0x1D46 PUSH2 0x1D41 DUP3 PUSH2 0x1D21 JUMP JUMPDEST PUSH2 0x1D2B JUMP JUMPDEST DUP3 MSTORE POP POP JUMP JUMPDEST PUSH1 0x0 PUSH2 0x1D58 DUP3 DUP8 PUSH2 0x1D0A JUMP JUMPDEST PUSH1 0x14 DUP3 ADD SWAP2 POP PUSH2 0x1D68 DUP3 DUP7 PUSH2 0x1D0A JUMP JUMPDEST PUSH1 0x14 DUP3 ADD SWAP2 POP PUSH2 0x1D78 DUP3 DUP6 PUSH2 0x1D35 JUMP JUMPDEST PUSH1 0x20 DUP3 ADD SWAP2 POP PUSH2 0x1D88 DUP3 DUP5 PUSH2 0x1D35 JUMP JUMPDEST PUSH1 0x20 DUP3 ADD SWAP2 POP DUP2 SWAP1 POP SWAP6 SWAP5 POP POP POP POP POP JUMP JUMPDEST PUSH32 0x436F6E747261637420616C7265616479207369676E6564000000000000000000 PUSH1 0x0 DUP3 ADD MSTORE POP JUMP JUMPDEST PUSH1 0x0 PUSH2 0x1DD0 PUSH1 0x17 DUP4 PUSH2 0x17CA JUMP JUMPDEST SWAP2 POP PUSH2 0x1DDB DUP3 PUSH2 0x1D9A JUMP JUMPDEST PUSH1 0x20 DUP3 ADD SWAP1 POP SWAP2 SWAP1 POP JUMP JUMPDEST PUSH1 0x0 PUSH1 0x20 DUP3 ADD SWAP1 POP DUP2 DUP2 SUB PUSH1 0x0 DUP4 ADD MSTORE PUSH2 0x1DFF DUP2 PUSH2 0x1DC3 JUMP JUMPDEST SWAP1 POP SWAP2 SWAP1 POP JUMP JUMPDEST PUSH32 0x4E6F7468696E6720746F20446F20686572650000000000000000000000000000 PUSH1 0x0 DUP3 ADD MSTORE POP JUMP JUMPDEST PUSH1 0x0 PUSH2 0x1E3C PUSH1 0x12 DUP4 PUSH2 0x17CA JUMP JUMPDEST SWAP2 POP PUSH2 0x1E47 DUP3 PUSH2 0x1E06 JUMP JUMPDEST PUSH1 0x20 DUP3 ADD SWAP1 POP SWAP2 SWAP1 POP JUMP JUMPDEST PUSH1 0x0 PUSH1 0x20 DUP3 ADD SWAP1 POP DUP2 DUP2 SUB PUSH1 0x0 DUP4 ADD MSTORE PUSH2 0x1E6B DUP2 PUSH2 0x1E2F JUMP JUMPDEST SWAP1 POP SWAP2 SWAP1 POP JUMP JUMPDEST PUSH32 0x43726561746F72206F6E6C790000000000000000000000000000000000000000 PUSH1 0x0 DUP3 ADD MSTORE POP JUMP JUMPDEST PUSH1 0x0 PUSH2 0x1EA8 PUSH1 0xC DUP4 PUSH2 0x17CA JUMP JUMPDEST SWAP2 POP PUSH2 0x1EB3 DUP3 PUSH2 0x1E72 JUMP JUMPDEST PUSH1 0x20 DUP3 ADD SWAP1 POP SWAP2 SWAP1 POP JUMP JUMPDEST PUSH1 0x0 PUSH1 0x20 DUP3 ADD SWAP1 POP DUP2 DUP2 SUB PUSH1 0x0 DUP4 ADD MSTORE PUSH2 0x1ED7 DUP2 PUSH2 0x1E9B JUMP JUMPDEST SWAP1 POP SWAP2 SWAP1 POP JUMP JUMPDEST PUSH32 0x456D706C6F796565206F7220417070726F76657273206F6E6C79000000000000 PUSH1 0x0 DUP3 ADD MSTORE POP JUMP JUMPDEST PUSH1 0x0 PUSH2 0x1F14 PUSH1 0x1A DUP4 PUSH2 0x17CA JUMP JUMPDEST SWAP2 POP PUSH2 0x1F1F DUP3 PUSH2 0x1EDE JUMP JUMPDEST PUSH1 0x20 DUP3 ADD SWAP1 POP SWAP2 SWAP1 POP JUMP JUMPDEST PUSH1 0x0 PUSH1 0x20 DUP3 ADD SWAP1 POP DUP2 DUP2 SUB PUSH1 0x0 DUP4 ADD MSTORE PUSH2 0x1F43 DUP2 PUSH2 0x1F07 JUMP JUMPDEST SWAP1 POP SWAP2 SWAP1 POP JUMP JUMPDEST PUSH32 0x416D6F756E74206C657373207468616E20636F6E747261637400000000000000 PUSH1 0x0 DUP3 ADD MSTORE POP JUMP JUMPDEST PUSH1 0x0 PUSH2 0x1F80 PUSH1 0x19 DUP4 PUSH2 0x17CA JUMP JUMPDEST SWAP2 POP PUSH2 0x1F8B DUP3 PUSH2 0x1F4A JUMP JUMPDEST PUSH1 0x20 DUP3 ADD SWAP1 POP SWAP2 SWAP1 POP JUMP JUMPDEST PUSH1 0x0 PUSH1 0x20 DUP3 ADD SWAP1 POP DUP2 DUP2 SUB PUSH1 0x0 DUP4 ADD MSTORE PUSH2 0x1FAF DUP2 PUSH2 0x1F73 JUMP JUMPDEST SWAP1 POP SWAP2 SWAP1 POP JUMP JUMPDEST PUSH1 0x0 PUSH2 0x1FC1 DUP3 PUSH2 0x1D21 JUMP JUMPDEST SWAP2 POP PUSH2 0x1FCC DUP4 PUSH2 0x1D21 JUMP JUMPDEST SWAP3 POP DUP3 PUSH32 0xFFFFFFFFFFFFFFFFFFFFFFFFFFFFFFFFFFFFFFFFFFFFFFFFFFFFFFFFFFFFFFFF SUB DUP3 GT ISZERO PUSH2 0x2001 JUMPI PUSH2 0x2000 PUSH2 0x1A65 JUMP JUMPDEST JUMPDEST DUP3 DUP3 ADD SWAP1 POP SWAP3 SWAP2 POP POP JUMP JUMPDEST PUSH32 0x546F6F20736F6F6E2070657220706179207363686564756C6500000000000000 PUSH1 0x0 DUP3 ADD MSTORE POP JUMP JUMPDEST PUSH1 0x0 PUSH2 0x2042 PUSH1 0x19 DUP4 PUSH2 0x17CA JUMP JUMPDEST SWAP2 POP PUSH2 0x204D DUP3 PUSH2 0x200C JUMP JUMPDEST PUSH1 0x20 DUP3 ADD SWAP1 POP SWAP2 SWAP1 POP JUMP JUMPDEST PUSH1 0x0 PUSH1 0x20 DUP3 ADD SWAP1 POP DUP2 DUP2 SUB PUSH1 0x0 DUP4 ADD MSTORE PUSH2 0x2071 DUP2 PUSH2 0x2035 JUMP JUMPDEST SWAP1 POP SWAP2 SWAP1 POP JUMP JUMPDEST PUSH32 0x436865636B2052657369676E6174696F6E207374617475730000000000000000 PUSH1 0x0 DUP3 ADD MSTORE POP JUMP JUMPDEST PUSH1 0x0 PUSH2 0x20AE PUSH1 0x18 DUP4 PUSH2 0x17CA JUMP JUMPDEST SWAP2 POP PUSH2 0x20B9 DUP3 PUSH2 0x2078 JUMP JUMPDEST PUSH1 0x20 DUP3 ADD SWAP1 POP SWAP2 SWAP1 POP JUMP JUMPDEST PUSH1 0x0 PUSH1 0x20 DUP3 ADD SWAP1 POP DUP2 DUP2 SUB PUSH1 0x0 DUP4 ADD MSTORE PUSH2 0x20DD DUP2 PUSH2 0x20A1 JUMP JUMPDEST SWAP1 POP SWAP2 SWAP1 POP JUMP JUMPDEST PUSH32 0x456D706C6F796565205369676E20496E76616C69640000000000000000000000 PUSH1 0x0 DUP3 ADD MSTORE POP JUMP JUMPDEST PUSH1 0x0 PUSH2 0x211A PUSH1 0x15 DUP4 PUSH2 0x17CA JUMP JUMPDEST SWAP2 POP PUSH2 0x2125 DUP3 PUSH2 0x20E4 JUMP JUMPDEST PUSH1 0x20 DUP3 ADD SWAP1 POP SWAP2 SWAP1 POP JUMP JUMPDEST PUSH1 0x0 PUSH1 0x20 DUP3 ADD SWAP1 POP DUP2 DUP2 SUB PUSH1 0x0 DUP4 ADD MSTORE PUSH2 0x2149 DUP2 PUSH2 0x210D JUMP JUMPDEST SWAP1 POP SWAP2 SWAP1 POP JUMP INVALID LOG2 PUSH5 0x6970667358 0x22 SLT KECCAK256 0xEC 0xDA SWAP12 0x25 BYTE CALL CALLER PUSH27 0xF8F8C4EE8A8481F046EF9E506DDDA20692CFD410A113D44464736F PUSH13 0x634300080E0033000000000000 "
				},
				"gasEstimates": {
					"creation": {
						"codeDepositCost": "1716400",
						"executionCost": "infinite",
						"totalCost": "infinite"
					},
					"external": {
						"FnF()": "infinite",
						"addApprovers(address[])": "infinite",
						"approvePayment()": "infinite",
						"approveResign()": "28888",
						"contractDataHash()": "infinite",
						"destroy()": "34359",
						"employeeSign(uint8,bytes32,bytes32)": "infinite",
						"employerSign(uint8,bytes32,bytes32)": "infinite",
						"getMessageSigner(bytes32,uint8,bytes32,bytes32)": "infinite",
						"raiseDispute(address[])": "infinite",
						"reclaimStake(address)": "infinite",
						"resign()": "30979",
						"resolveDispute()": "infinite",
						"retractOffer()": "infinite",
						"start()": "28900"
					}
				},
				"methodIdentifiers": {
					"FnF()": "cf3514a5",
					"addApprovers(address[])": "6a882d51",
					"approvePayment()": "96fd3409",
					"approveResign()": "371a5fa0",
					"contractDataHash()": "7233f3d5",
					"destroy()": "83197ef0",
					"employeeSign(uint8,bytes32,bytes32)": "f6e809b4",
					"employerSign(uint8,bytes32,bytes32)": "6bd1925c",
					"getMessageSigner(bytes32,uint8,bytes32,bytes32)": "2bfd91d4",
					"raiseDispute(address[])": "94b841c9",
					"reclaimStake(address)": "1b203a21",
					"resign()": "69652fcf",
					"resolveDispute()": "5b39a33f",
					"retractOffer()": "802635a9",
					"start()": "be9a6555"
				}
			},
			"storageLayout": {
				"storage": [
					{
						"astId": 3,
						"contract": "n0simple.sol:SimpleEmployment",
						"label": "employee",
						"offset": 0,
						"slot": "0",
						"type": "t_address"
					},
					{
						"astId": 5,
						"contract": "n0simple.sol:SimpleEmployment",
						"label": "employer",
						"offset": 0,
						"slot": "1",
						"type": "t_address"
					},
					{
						"astId": 7,
						"contract": "n0simple.sol:SimpleEmployment",
						"label": "paySchedule",
						"offset": 0,
						"slot": "2",
						"type": "t_uint256"
					},
					{
						"astId": 9,
						"contract": "n0simple.sol:SimpleEmployment",
						"label": "payAmount",
						"offset": 0,
						"slot": "3",
						"type": "t_uint256"
					},
					{
						"astId": 11,
						"contract": "n0simple.sol:SimpleEmployment",
						"label": "stakeAmount",
						"offset": 0,
						"slot": "4",
						"type": "t_uint256"
					},
					{
						"astId": 15,
						"contract": "n0simple.sol:SimpleEmployment",
						"label": "isApprover",
						"offset": 0,
						"slot": "5",
						"type": "t_mapping(t_address,t_bool)"
					},
					{
						"astId": 19,
						"contract": "n0simple.sol:SimpleEmployment",
						"label": "hasSigned",
						"offset": 0,
						"slot": "6",
						"type": "t_mapping(t_address,t_bool)"
					},
					{
						"astId": 21,
						"contract": "n0simple.sol:SimpleEmployment",
						"label": "active",
						"offset": 0,
						"slot": "7",
						"type": "t_bool"
					},
					{
						"astId": 23,
						"contract": "n0simple.sol:SimpleEmployment",
						"label": "started",
						"offset": 1,
						"slot": "7",
						"type": "t_bool"
					},
					{
						"astId": 25,
						"contract": "n0simple.sol:SimpleEmployment",
						"label": "stopped",
						"offset": 2,
						"slot": "7",
						"type": "t_bool"
					},
					{
						"astId": 27,
						"contract": "n0simple.sol:SimpleEmployment",
						"label": "disputed",
						"offset": 3,
						"slot": "7",
						"type": "t_bool"
					},
					{
						"astId": 29,
						"contract": "n0simple.sol:SimpleEmployment",
						"label": "lastPayDay",
						"offset": 0,
						"slot": "8",
						"type": "t_uint256"
					},
					{
						"astId": 32,
						"contract": "n0simple.sol:SimpleEmployment",
						"label": "arbitrators",
						"offset": 0,
						"slot": "9",
						"type": "t_array(t_address)dyn_storage"
					},
					{
						"astId": 36,
						"contract": "n0simple.sol:SimpleEmployment",
						"label": "hasResolved",
						"offset": 0,
						"slot": "10",
						"type": "t_mapping(t_address,t_bool)"
					}
				],
				"types": {
					"t_address": {
						"encoding": "inplace",
						"label": "address",
						"numberOfBytes": "20"
					},
					"t_array(t_address)dyn_storage": {
						"base": "t_address",
						"encoding": "dynamic_array",
						"label": "address[]",
						"numberOfBytes": "32"
					},
					"t_bool": {
						"encoding": "inplace",
						"label": "bool",
						"numberOfBytes": "1"
					},
					"t_mapping(t_address,t_bool)": {
						"encoding": "mapping",
						"key": "t_address",
						"label": "mapping(address => bool)",
						"numberOfBytes": "32",
						"value": "t_bool"
					},
					"t_uint256": {
						"encoding": "inplace",
						"label": "uint256",
						"numberOfBytes": "32"
					}
				}
			},
			"userdoc": {
				"kind": "user",
				"methods": {},
				"version": 1
			}
		}
	}
}