{
    "contractName": "ProposalPactUpgradeable",
    "abi": [
        {
            "inputs": [],
            "stateMutability": "nonpayable",
            "type": "constructor"
        },
        {
            "anonymous": false,
            "inputs": [
                {
                    "indexed": false,
                    "internalType": "address",
                    "name": "previousAdmin",
                    "type": "address"
                },
                {
                    "indexed": false,
                    "internalType": "address",
                    "name": "newAdmin",
                    "type": "address"
                }
            ],
            "name": "AdminChanged",
            "type": "event"
        },
        {
            "anonymous": false,
            "inputs": [
                {
                    "indexed": true,
                    "internalType": "address",
                    "name": "beacon",
                    "type": "address"
                }
            ],
            "name": "BeaconUpgraded",
            "type": "event"
        },
        {
            "anonymous": false,
            "inputs": [
                {
                    "indexed": false,
                    "internalType": "uint8",
                    "name": "version",
                    "type": "uint8"
                }
            ],
            "name": "Initialized",
            "type": "event"
        },
        {
            "anonymous": false,
            "inputs": [
                {
                    "indexed": true,
                    "internalType": "bytes32",
                    "name": "uid",
                    "type": "bytes32"
                },
                {
                    "indexed": true,
                    "internalType": "address",
                    "name": "payee",
                    "type": "address"
                },
                {
                    "indexed": false,
                    "internalType": "uint256",
                    "name": "amount",
                    "type": "uint256"
                }
            ],
            "name": "LogAmountOut",
            "type": "event"
        },
        {
            "anonymous": false,
            "inputs": [
                {
                    "indexed": true,
                    "internalType": "bytes32",
                    "name": "uid",
                    "type": "bytes32"
                },
                {
                    "indexed": false,
                    "internalType": "address",
                    "name": "payer",
                    "type": "address"
                },
                {
                    "indexed": false,
                    "internalType": "uint256",
                    "name": "amount",
                    "type": "uint256"
                }
            ],
            "name": "LogContribution",
            "type": "event"
        },
        {
            "anonymous": false,
            "inputs": [
                {
                    "indexed": true,
                    "internalType": "bytes32",
                    "name": "uid",
                    "type": "bytes32"
                }
            ],
            "name": "LogPactAction",
            "type": "event"
        },
        {
            "anonymous": false,
            "inputs": [
                {
                    "indexed": true,
                    "internalType": "address",
                    "name": "creator",
                    "type": "address"
                },
                {
                    "indexed": false,
                    "internalType": "bytes32",
                    "name": "uid",
                    "type": "bytes32"
                }
            ],
            "name": "LogPactCreated",
            "type": "event"
        },
        {
            "anonymous": false,
            "inputs": [
                {
                    "indexed": true,
                    "internalType": "address",
                    "name": "beneficiary",
                    "type": "address"
                },
                {
                    "indexed": false,
                    "internalType": "uint256",
                    "name": "amount",
                    "type": "uint256"
                }
            ],
            "name": "LogWithdrawGrant",
            "type": "event"
        },
        {
            "anonymous": false,
            "inputs": [
                {
                    "indexed": false,
                    "internalType": "bytes32",
                    "name": "uid",
                    "type": "bytes32"
                }
            ],
            "name": "LogvotingConcluded",
            "type": "event"
        },
        {
            "anonymous": false,
            "inputs": [
                {
                    "indexed": true,
                    "internalType": "address",
                    "name": "previousOwner",
                    "type": "address"
                },
                {
                    "indexed": true,
                    "internalType": "address",
                    "name": "newOwner",
                    "type": "address"
                }
            ],
            "name": "OwnershipTransferred",
            "type": "event"
        },
        {
            "anonymous": false,
            "inputs": [
                {
                    "indexed": true,
                    "internalType": "address",
                    "name": "implementation",
                    "type": "address"
                }
            ],
            "name": "Upgraded",
            "type": "event"
        },
        {
            "inputs": [
                {
                    "internalType": "bytes32",
                    "name": "pactid",
                    "type": "bytes32"
                },
                {
                    "internalType": "address[]",
                    "name": "_voters",
                    "type": "address[]"
                }
            ],
            "name": "addVoters",
            "outputs": [],
            "stateMutability": "nonpayable",
            "type": "function"
        },
        {
            "inputs": [
                {
                    "internalType": "bytes32",
                    "name": "pactid",
                    "type": "bytes32"
                }
            ],
            "name": "concludeVoting",
            "outputs": [],
            "stateMutability": "nonpayable",
            "type": "function"
        },
        {
            "inputs": [
                {
                    "components": [
                        {
                            "internalType": "bool",
                            "name": "votingEnabled",
                            "type": "bool"
                        },
                        {
                            "internalType": "bool",
                            "name": "openParticipation",
                            "type": "bool"
                        },
                        {
                            "internalType": "bool",
                            "name": "refundOnVotedYes",
                            "type": "bool"
                        },
                        {
                            "internalType": "bool",
                            "name": "refundOnVotedNo",
                            "type": "bool"
                        },
                        {
                            "internalType": "bool",
                            "name": "votingConcluded",
                            "type": "bool"
                        },
                        {
                            "internalType": "uint40",
                            "name": "duration",
                            "type": "uint40"
                        },
                        {
                            "internalType": "uint40",
                            "name": "votingStartTimestamp",
                            "type": "uint40"
                        },
                        {
                            "internalType": "uint128",
                            "name": "minContribution",
                            "type": "uint128"
                        }
                    ],
                    "internalType": "struct VotingInfo",
                    "name": "votingInfo_",
                    "type": "tuple"
                },
                {
                    "internalType": "bool",
                    "name": "_isEditable",
                    "type": "bool"
                },
                {
                    "internalType": "bytes32",
                    "name": "groupName",
                    "type": "bytes32"
                },
                {
                    "internalType": "string",
                    "name": "_pactText",
                    "type": "string"
                },
                {
                    "internalType": "address[]",
                    "name": "_voters",
                    "type": "address[]"
                },
                {
                    "internalType": "address[]",
                    "name": "_yesBeneficiaries",
                    "type": "address[]"
                },
                {
                    "internalType": "address[]",
                    "name": "_noBeneficiaries",
                    "type": "address[]"
                }
            ],
            "name": "createPact",
            "outputs": [],
            "stateMutability": "payable",
            "type": "function"
        },
        {
            "inputs": [
                {
                    "internalType": "bytes32",
                    "name": "pactid",
                    "type": "bytes32"
                }
            ],
            "name": "getParticipants",
            "outputs": [
                {
                    "internalType": "address[]",
                    "name": "",
                    "type": "address[]"
                },
                {
                    "internalType": "address[]",
                    "name": "",
                    "type": "address[]"
                },
                {
                    "internalType": "address[]",
                    "name": "",
                    "type": "address[]"
                }
            ],
            "stateMutability": "view",
            "type": "function"
        },
        {
            "inputs": [
                {
                    "internalType": "address",
                    "name": "",
                    "type": "address"
                }
            ],
            "name": "grants",
            "outputs": [
                {
                    "internalType": "uint256",
                    "name": "",
                    "type": "uint256"
                }
            ],
            "stateMutability": "view",
            "type": "function"
        },
        {
            "inputs": [
                {
                    "components": [
                        {
                            "internalType": "uint32",
                            "name": "maxVotingPeriod",
                            "type": "uint32"
                        },
                        {
                            "internalType": "uint32",
                            "name": "minOpenParticipationVotingPeriod",
                            "type": "uint32"
                        },
                        {
                            "internalType": "uint32",
                            "name": "commissionPerThousand",
                            "type": "uint32"
                        },
                        {
                            "internalType": "address",
                            "name": "commissionSink",
                            "type": "address"
                        },
                        {
                            "internalType": "address",
                            "name": "groupsContract",
                            "type": "address"
                        },
                        {
                            "internalType": "uint128",
                            "name": "minOpenParticipationAmount",
                            "type": "uint128"
                        }
                    ],
                    "internalType": "struct Config",
                    "name": "_config",
                    "type": "tuple"
                }
            ],
            "name": "initialize",
            "outputs": [],
            "stateMutability": "nonpayable",
            "type": "function"
        },
        {
            "inputs": [],
            "name": "owner",
            "outputs": [
                {
                    "internalType": "address",
                    "name": "",
                    "type": "address"
                }
            ],
            "stateMutability": "view",
            "type": "function"
        },
        {
            "inputs": [
                {
                    "internalType": "bytes32",
                    "name": "",
                    "type": "bytes32"
                }
            ],
            "name": "pacts",
            "outputs": [
                {
                    "internalType": "uint32",
                    "name": "yesVotes",
                    "type": "uint32"
                },
                {
                    "internalType": "uint32",
                    "name": "noVotes",
                    "type": "uint32"
                },
                {
                    "internalType": "uint128",
                    "name": "totalValue",
                    "type": "uint128"
                },
                {
                    "internalType": "bool",
                    "name": "refundAvailable",
                    "type": "bool"
                },
                {
                    "internalType": "bool",
                    "name": "isEditable",
                    "type": "bool"
                },
                {
                    "internalType": "address",
                    "name": "creator",
                    "type": "address"
                },
                {
                    "internalType": "bytes32",
                    "name": "groupName",
                    "type": "bytes32"
                },
                {
                    "internalType": "string",
                    "name": "pactText",
                    "type": "string"
                }
            ],
            "stateMutability": "view",
            "type": "function"
        },
        {
            "inputs": [
                {
                    "internalType": "bytes32",
                    "name": "pactid",
                    "type": "bytes32"
                }
            ],
            "name": "pitchIn",
            "outputs": [],
            "stateMutability": "payable",
            "type": "function"
        },
        {
            "inputs": [
                {
                    "internalType": "bytes32",
                    "name": "pactid",
                    "type": "bytes32"
                }
            ],
            "name": "postponeVotingWindow",
            "outputs": [],
            "stateMutability": "nonpayable",
            "type": "function"
        },
        {
            "inputs": [],
            "name": "proxiableUUID",
            "outputs": [
                {
                    "internalType": "bytes32",
                    "name": "",
                    "type": "bytes32"
                }
            ],
            "stateMutability": "view",
            "type": "function"
        },
        {
            "inputs": [],
            "name": "renounceOwnership",
            "outputs": [],
            "stateMutability": "nonpayable",
            "type": "function"
        },
        {
            "inputs": [
                {
                    "internalType": "bytes32",
                    "name": "pactid",
                    "type": "bytes32"
                },
                {
                    "internalType": "string",
                    "name": "pactText_",
                    "type": "string"
                }
            ],
            "name": "setText",
            "outputs": [],
            "stateMutability": "nonpayable",
            "type": "function"
        },
        {
            "inputs": [
                {
                    "internalType": "address",
                    "name": "newOwner",
                    "type": "address"
                }
            ],
            "name": "transferOwnership",
            "outputs": [],
            "stateMutability": "nonpayable",
            "type": "function"
        },
        {
            "inputs": [
                {
                    "internalType": "address",
                    "name": "newImplementation",
                    "type": "address"
                }
            ],
            "name": "upgradeTo",
            "outputs": [],
            "stateMutability": "nonpayable",
            "type": "function"
        },
        {
            "inputs": [
                {
                    "internalType": "address",
                    "name": "newImplementation",
                    "type": "address"
                },
                {
                    "internalType": "bytes",
                    "name": "data",
                    "type": "bytes"
                }
            ],
            "name": "upgradeToAndCall",
            "outputs": [],
            "stateMutability": "payable",
            "type": "function"
        },
        {
            "inputs": [
                {
                    "internalType": "bytes32",
                    "name": "",
                    "type": "bytes32"
                },
                {
                    "internalType": "address",
                    "name": "",
                    "type": "address"
                }
            ],
            "name": "userInteractionData",
            "outputs": [
                {
                    "internalType": "bool",
                    "name": "canVote",
                    "type": "bool"
                },
                {
                    "internalType": "bool",
                    "name": "hasVoted",
                    "type": "bool"
                },
                {
                    "internalType": "bool",
                    "name": "castedVote",
                    "type": "bool"
                },
                {
                    "internalType": "uint128",
                    "name": "contribution",
                    "type": "uint128"
                }
            ],
            "stateMutability": "view",
            "type": "function"
        },
        {
            "inputs": [
                {
                    "internalType": "bytes32",
                    "name": "pactid",
                    "type": "bytes32"
                },
                {
                    "internalType": "bool",
                    "name": "_vote",
                    "type": "bool"
                }
            ],
            "name": "voteOnPact",
            "outputs": [],
            "stateMutability": "nonpayable",
            "type": "function"
        },
        {
            "inputs": [
                {
                    "internalType": "bytes32",
                    "name": "",
                    "type": "bytes32"
                }
            ],
            "name": "votingInfo",
            "outputs": [
                {
                    "internalType": "bool",
                    "name": "votingEnabled",
                    "type": "bool"
                },
                {
                    "internalType": "bool",
                    "name": "openParticipation",
                    "type": "bool"
                },
                {
                    "internalType": "bool",
                    "name": "refundOnVotedYes",
                    "type": "bool"
                },
                {
                    "internalType": "bool",
                    "name": "refundOnVotedNo",
                    "type": "bool"
                },
                {
                    "internalType": "bool",
                    "name": "votingConcluded",
                    "type": "bool"
                },
                {
                    "internalType": "uint40",
                    "name": "duration",
                    "type": "uint40"
                },
                {
                    "internalType": "uint40",
                    "name": "votingStartTimestamp",
                    "type": "uint40"
                },
                {
                    "internalType": "uint128",
                    "name": "minContribution",
                    "type": "uint128"
                }
            ],
            "stateMutability": "view",
            "type": "function"
        },
        {
            "inputs": [
                {
                    "internalType": "bytes32",
                    "name": "pactid",
                    "type": "bytes32"
                },
                {
                    "internalType": "uint256",
                    "name": "amount",
                    "type": "uint256"
                }
            ],
            "name": "withDrawContribution",
            "outputs": [],
            "stateMutability": "nonpayable",
            "type": "function"
        },
        {
            "inputs": [
                {
                    "internalType": "uint256",
                    "name": "amount",
                    "type": "uint256"
                }
            ],
            "name": "withdrawGrant",
            "outputs": [],
            "stateMutability": "nonpayable",
            "type": "function"
        }
    ],
    "bytecode": "60a0604052306080523480156200001557600080fd5b506200002062000026565b620000e8565b600054610100900460ff1615620000935760405162461bcd60e51b815260206004820152602760248201527f496e697469616c697a61626c653a20636f6e747261637420697320696e697469604482015266616c697a696e6760c81b606482015260840160405180910390fd5b60005460ff9081161015620000e6576000805460ff191660ff9081179091556040519081527f7f26b83ff96e1f2b6a682f133852f6798a09c465da95921460cefb38474024989060200160405180910390a15b565b6080516133a862000120600039600081816116a5015281816116e501528181611784015281816117c4015261185701526133a86000f3fe60806040526004361061012a5760003560e01c80637479f92c116100ab578063cd4cd8131161006f578063cd4cd8131461038b578063eaf72c5914610465578063f2fde38b14610478578063f41c5ca514610498578063f8bfca8b146104b8578063ff8594fc146104ec57600080fd5b80637479f92c146102675780638da5cb5b14610287578063b764c810146102af578063b869cea31461033e578063b9e20cd41461036b57600080fd5b80633295b495116100f25780633295b495146101dc5780633659cfe6146101fc5780634f1ef2861461021c57806352d1902d1461022f578063715018a61461025257600080fd5b8063027b71d51461012f578063028669f9146101445780630b0235be146101645780630fee53471461019c5780631774931e146101bc575b600080fd5b61014261013d36600461299f565b61050c565b005b34801561015057600080fd5b5061014261015f366004612aa1565b6109c8565b34801561017057600080fd5b5061018461017f366004612aa1565b610f84565b60405161019393929190612afe565b60405180910390f35b3480156101a857600080fd5b506101426101b7366004612b41565b6110c6565b3480156101c857600080fd5b506101426101d7366004612aa1565b61143d565b3480156101e857600080fd5b506101426101f7366004612aa1565b611575565b34801561020857600080fd5b50610142610217366004612b82565b61169b565b61014261022a366004612b9f565b61177a565b34801561023b57600080fd5b5061024461184a565b604051908152602001610193565b34801561025e57600080fd5b506101426118fd565b34801561027357600080fd5b50610142610282366004612c47565b611911565b34801561029357600080fd5b506097546040516001600160a01b039091168152602001610193565b3480156102bb57600080fd5b5061030d6102ca366004612c69565b60cf60209081526000928352604080842090915290825290205460ff8082169161010081048216916201000082041690630100000090046001600160801b031684565b6040805194151585529215156020850152901515918301919091526001600160801b03166060820152608001610193565b34801561034a57600080fd5b50610244610359366004612b82565b60d06020526000908152604090205481565b34801561037757600080fd5b50610142610386366004612c99565b611b5a565b34801561039757600080fd5b5061040e6103a6366004612aa1565b60ce6020526000908152604090205460ff80821691610100810482169162010000820481169163010000008104821691600160201b8204169064ffffffffff600160281b8204811691600160501b8104909116906001600160801b03600160781b9091041688565b60408051981515895296151560208901529415159587019590955291151560608601521515608085015264ffffffffff90811660a085015290911660c08301526001600160801b031660e082015261010001610193565b610142610473366004612aa1565b611cc0565b34801561048457600080fd5b50610142610493366004612b82565b611dd7565b3480156104a457600080fd5b506101426104b3366004612ce5565b611e4d565b3480156104c457600080fd5b506104d86104d3366004612aa1565b611f6e565b604051610193989796959493929190612d4d565b3480156104f857600080fd5b50610142610507366004612dbb565b612064565b6040805160c08101825260ca5463ffffffff8082168352600160201b820481166020840152600160401b82041692820192909252600160601b9091046001600160a01b03908116606083015260cb5416608082015260cc546001600160801b031660a082015260c954600090339042610586600143612e10565b60405160609490941b6bffffffffffffffffffffffff191660208501527518da185a5b9c1858dd17dc1c9bdc1bdcd85b1c1858dd60521b6034850152604a840192909252606a83015240608a82015260aa0160408051601f198184030181529181528151602092830120600081815260cd90935291206001810154919250906001600160a01b0316156106515760405162461bcd60e51b815260206004820152600e60248201526d416c72656164792065786973747360901b60448201526064015b60405180910390fd5b60008a900361065f57600080fd5b805460ff60c81b1916600160c81b8e151502178155600381016106838b8d83612ea5565b506001810180546001600160a01b03191633179055600281018c90558d511561093e57428e60c0015164ffffffffff1610156106d2576106c542610708612f65565b64ffffffffff1660c08f01525b8d602001511561072a578260a001516001600160801b03168e60e001516001600160801b0316101561070357600080fd5b826020015163ffffffff168e60a0015164ffffffffff16101561072557600080fd5b610778565b6002836020015161073b9190612f8e565b63ffffffff168e60a0015164ffffffffff16101561075857600080fd5b87158015906107685750601e8811155b1561077857610778828a8a6120e7565b826000015163ffffffff168e60a0015164ffffffffff16111561079a57600080fd5b600060808f015260408e01516107d257856107b457600080fd5b601e8611156107c257600080fd5b6107d060058201888861274a565b505b8d6060015161080357836107e557600080fd5b601e8411156107f357600080fd5b61080160068201868661274a565b505b8d60ce600084815260200190815260200160002060008201518160000160006101000a81548160ff02191690831515021790555060208201518160000160016101000a81548160ff02191690831515021790555060408201518160000160026101000a81548160ff02191690831515021790555060608201518160000160036101000a81548160ff02191690831515021790555060808201518160000160046101000a81548160ff02191690831515021790555060a08201518160000160056101000a81548164ffffffffff021916908364ffffffffff16021790555060c082015181600001600a6101000a81548164ffffffffff021916908364ffffffffff16021790555060e082015181600001600f6101000a8154816001600160801b0302191690836001600160801b0316021790555090505061095f565b600082815260ce60205260409020805464ff000000001916600160201b1790555b60c9805490600061096f83612fb1565b909155505060405182815233907f24df31a6bd463ded48cfbaed90612e617f0f2be5e74642bb67181e69930747529060200160405180910390a234156109b8576109b882611cc0565b5050505050505050505050505050565b600081815260ce602090815260409182902082516101008082018552915460ff808216151583529281048316151593820193909352620100008304821615159381019390935263010000008204811615156060840152600160201b8204161515608083015264ffffffffff600160281b8204811660a0840152600160501b82041660c08301526001600160801b03600160781b9091041660e0820152610a6d8161222b565b600114610aae5760405162461bcd60e51b815260206004820152600f60248201526e2b37ba34b733903737ba1037bb32b960891b6044820152606401610648565b806080015115610abd57600080fd5b8060200151610aec57600082815260cf6020908152604080832033845290915290205460ff16610aec57600080fd5b60e0810151600083815260cf602090815260408083203384529091529020546001600160801b0391821663010000009091049091161015610b2c57600080fd5b600082815260ce60209081526040808320805464ff000000001916600160201b90811790915560cd8352818420825161016081018452815463ffffffff8082168352938104909316948101949094526001600160801b03600160401b83041692840192909252600160c01b810460ff90811615156060850152600160c81b909104161515608083015260018101546001600160a01b031660a0830152600281015460c083015260038101805460e084019190610be790612e23565b80601f0160208091040260200160405190810160405280929190818152602001828054610c1390612e23565b8015610c605780601f10610c3557610100808354040283529160200191610c60565b820191906000526020600020905b815481529060010190602001808311610c4357829003601f168201915b5050505050815260200160048201805480602002602001604051908101604052809291908181526020018280548015610cc257602002820191906000526020600020905b81546001600160a01b03168152600190910190602001808311610ca4575b5050505050815260200160058201805480602002602001604051908101604052809291908181526020018280548015610d2457602002820191906000526020600020905b81546001600160a01b03168152600190910190602001808311610d06575b5050505050815260200160068201805480602002602001604051908101604052809291908181526020018280548015610d8657602002820191906000526020600020905b81546001600160a01b03168152600190910190602001808311610d68575b505050505081525050905080604001516001600160801b0316600003610dab57505050565b6040805160008152602080820190925290820151825163ffffffff91821691161115610e0b57826040015115610dff57600084815260cd60205260409020805460ff60c01b1916600160c01b179055610e41565b50610120810151610e41565b826060015115610e3957600084815260cd60205260409020805460ff60c01b1916600160c01b179055610e41565b506101408101515b805115610f65576000815183604001516001600160801b0316610e649190612fca565b600086815260cd60205260408120805477ffffffffffffffffffffffffffffffff0000000000000000191690559091505b8251811015610f62578160d06000858481518110610eb557610eb5612fde565b60200260200101516001600160a01b03166001600160a01b031681526020019081526020016000206000828254610eec9190612f65565b92505081905550828181518110610f0557610f05612fde565b60200260200101516001600160a01b0316867f28e3a33645b5425aff1ae5d3465c2439c6bda8c9cee3d8a8db46e0085ce5e53484604051610f4891815260200190565b60405180910390a380610f5a81612fb1565b915050610e95565b50505b604051849060008051602061330c83398151915290600090a250505050565b600081815260cd602090815260409182902060048101805484518185028101850190955280855260609485948594600581019360069091019291859190830182828015610ffa57602002820191906000526020600020905b81546001600160a01b03168152600190910190602001808311610fdc575b505050505092508180548060200260200160405190810160405280929190818152602001828054801561105657602002820191906000526020600020905b81546001600160a01b03168152600190910190602001808311611038575b50505050509150808054806020026020016040519081016040528092919081815260200182805480156110b257602002820191906000526020600020905b81546001600160a01b03168152600190910190602001808311611094575b505050505090509250925092509193909250565b600082815260cf602090815260408083203384528252808320815160808082018452915460ff8082161515835261010080830482161515848801526201000080840483161515858801526001600160801b0363010000009485900481166060808801919091528c8b5260ce8a52888b2089518086018b52905480871615158252948504861615159a81019a909a5291830484161515978901979097529281048216151592870192909252600160201b82041615159285019290925264ffffffffff600160281b8304811660a0860152600160501b83041660c0850152600160781b90910490911660e0830152916111bc8261222b565b905080196112015760405162461bcd60e51b8152602060048201526012602482015271159bdd1a5b99c81b9bdd081cdd185c9d195960721b6044820152606401610648565b80156112435760405162461bcd60e51b8152602060048201526011602482015270566f74696e67206e6f742061637469766560781b6044820152606401610648565b825180611251575081602001515b61125a57600080fd5b82602001511561126957600080fd5b600085815260ce602052604090205460608401516001600160801b03600160781b9092048216911610156112df5760405162461bcd60e51b815260206004820152601760248201527f436f6e747269627574696f6e206e6f7420656e6f7567680000000000000000006044820152606401610648565b6001602080850191825285158015604080880191825260008a815260cf8552818120338252909452909220865181549451935160608901516001600160801b03166301000000026301000000600160981b031991151562010000029190911672ffffffffffffffffffffffffffffffffff0000199515156101000261ff00199315159390931661ffff1990971696909617919091179390931693909317919091179091556113cf57600085815260cd602052604081208054600192906113ac90849063ffffffff16612ff4565b92506101000a81548163ffffffff021916908363ffffffff16021790555061141d565b600085815260cd602052604090208054600191906004906113fe908490600160201b900463ffffffff16612ff4565b92506101000a81548163ffffffff021916908363ffffffff1602179055505b604051859060008051602061330c83398151915290600090a25050505050565b600081815260cd60205260409020600101546001600160a01b0316331461146357600080fd5b600081815260ce602090815260409182902082516101008082018552915460ff808216151583529281048316151593820193909352620100008304821615159381019390935263010000008204811615156060840152600160201b8204161515608083015264ffffffffff600160281b8204811660a0840152600160501b82041660c08301526001600160801b03600160781b9091041660e08201526115088161222b565b6000191461151557600080fd5b60c08101516115279062015180613018565b600083815260ce6020526040808220805464ffffffffff94909416600160501b0264ffffffffff60501b19909416939093179092559051839160008051602061330c83398151915291a25050565b33600090815260d0602052604090205481111561159157600080fd5b33600090815260d06020526040812080548392906115b0908490612e10565b909155505060ca546000906103e8906115d690600160401b900463ffffffff1684613036565b6115e09190612fca565b60405183815290915033907fbd1f6706f6f1d39868773529dd36c53a9eab89b4bd84f409937485f39c1753139060200160405180910390a280156116605760ca54604051600160601b9091046001600160a01b0316906108fc8315029083906000818181858888f1935050505015801561165e573d6000803e3d6000fd5b505b336108fc61166e8385612e10565b6040518115909202916000818181858888f19350505050158015611696573d6000803e3d6000fd5b505050565b6001600160a01b037f00000000000000000000000000000000000000000000000000000000000000001630036116e35760405162461bcd60e51b815260040161064890613055565b7f00000000000000000000000000000000000000000000000000000000000000006001600160a01b031661172c60008051602061332c833981519152546001600160a01b031690565b6001600160a01b0316146117525760405162461bcd60e51b8152600401610648906130a1565b61175b8161228b565b6040805160008082526020820190925261177791839190612293565b50565b6001600160a01b037f00000000000000000000000000000000000000000000000000000000000000001630036117c25760405162461bcd60e51b815260040161064890613055565b7f00000000000000000000000000000000000000000000000000000000000000006001600160a01b031661180b60008051602061332c833981519152546001600160a01b031690565b6001600160a01b0316146118315760405162461bcd60e51b8152600401610648906130a1565b61183a8261228b565b61184682826001612293565b5050565b6000306001600160a01b037f000000000000000000000000000000000000000000000000000000000000000016146118ea5760405162461bcd60e51b815260206004820152603860248201527f555550535570677261646561626c653a206d757374206e6f742062652063616c60448201527f6c6564207468726f7567682064656c656761746563616c6c00000000000000006064820152608401610648565b5060008051602061332c83398151915290565b6119056123fe565b61190f6000612458565b565b600082815260ce602090815260409182902082516101008082018552915460ff808216151583529281048316151593820193909352620100008304821615159381019390935263010000008204811615156060840152600160201b8204161515608083015264ffffffffff600160281b8204811660a0840152600160501b82041660c08301526001600160801b03600160781b9091041660e08201526119b68161222b565b60001914806119da5750600083815260cd6020526040902054600160c01b900460ff165b611a1d5760405162461bcd60e51b8152602060048201526014602482015273576974686472617720756e617661696c61626c6560601b6044820152606401610648565b600083815260cf60209081526040808320338452909152902054630100000090046001600160801b031680831115611a5457600080fd5b611a5e8382612e10565b600085815260cf60209081526040808320338452825280832080546301000000600160981b03191663010000006001600160801b039687160217905587835260cd909152902080548592600891611abe918591600160401b9004166130ed565b92506101000a8154816001600160801b0302191690836001600160801b03160217905550336001600160a01b0316847f28e3a33645b5425aff1ae5d3465c2439c6bda8c9cee3d8a8db46e0085ce5e53485604051611b1e91815260200190565b60405180910390a3604051339084156108fc029085906000818181858888f19350505050158015611b53573d6000803e3d6000fd5b5050505050565b600083815260ce602090815260409182902082516101008082018552915460ff808216151583529281048316151593820193909352620100008304821615159381019390935263010000008204811615156060840152600160201b8204161515608083015264ffffffffff600160281b8204811660a0840152600160501b82041660c08301526001600160801b03600160781b9091041660e0820152611bff8161222b565b60001914611c405760405162461bcd60e51b815260206004820152600e60248201526d159bdd1a5b99c81cdd185c9d195960921b6044820152606401610648565b600084815260cd60205260409020600101546001600160a01b03163314611c985760405162461bcd60e51b815260206004820152600c60248201526b155b985d5d1a1bdc9a5e995960a21b6044820152606401610648565b806020015115611ca757600080fd5b6064821115611cb557600080fd5b610f658484846120e7565b60003411611ccd57600080fd5b600081815260ce6020526040902054600160201b900460ff1615611cf057600080fd5b600081815260cd602052604090208054349190600890611d21908490600160401b90046001600160801b031661310d565b82546101009290920a6001600160801b03818102199093169183160217909155600083815260cf60209081526040808320338452909152902080543493509091600391611d77918591630100000090041661310d565b82546001600160801b039182166101009390930a9283029190920219909116179055506040805133815234602082015282917fa7abbd88fa8f73dc25ed7c09316300659ee68cdee56bace44850a7f1f39643a1910160405180910390a250565b611ddf6123fe565b6001600160a01b038116611e445760405162461bcd60e51b815260206004820152602660248201527f4f776e61626c653a206e6577206f776e657220697320746865207a65726f206160448201526564647265737360d01b6064820152608401610648565b61177781612458565b600054610100900460ff1615808015611e6d5750600054600160ff909116105b80611e875750303b158015611e87575060005460ff166001145b611eea5760405162461bcd60e51b815260206004820152602e60248201527f496e697469616c697a61626c653a20636f6e747261637420697320616c72656160448201526d191e481a5b9a5d1a585b1a5e995960921b6064820152608401610648565b6000805460ff191660011790558015611f0d576000805461ff0019166101001790555b8160ca611f1a828261315d565b905050611f256124aa565b8015611846576000805461ff0019169055604051600181527f7f26b83ff96e1f2b6a682f133852f6798a09c465da95921460cefb38474024989060200160405180910390a15050565b60cd60205260009081526040902080546001820154600283015460038401805463ffffffff80861696600160201b8704909116956001600160801b03600160401b8204169560ff600160c01b8304811696600160c81b90930416946001600160a01b0390911693919291611fe190612e23565b80601f016020809104026020016040519081016040528092919081815260200182805461200d90612e23565b801561205a5780601f1061202f5761010080835404028352916020019161205a565b820191906000526020600020905b81548152906001019060200180831161203d57829003601f168201915b5050505050905088565b600083815260cd60205260409020600101546001600160a01b0316331461208a57600080fd5b600083815260cd6020526040902054600160c81b900460ff166120ac57600080fd5b600083815260cd602052604090206003016120c8828483612ea5565b50604051839060008051602061330c83398151915290600090a2505050565b60005b8181101561222557600084815260cf602052604081209084848481811061211357612113612fde565b90506020020160208101906121289190612b82565b6001600160a01b0316815260208101919091526040016000205460ff1661221357600084815260cd6020526040902060040183838381811061216c5761216c612fde565b90506020020160208101906121819190612b82565b8154600180820184556000938452602080852090920180546001600160a01b0319166001600160a01b03949094169390931790925586835260cf90526040822090918585858181106121d5576121d5612fde565b90506020020160208101906121ea9190612b82565b6001600160a01b031681526020810191909152604001600020805460ff19169115159190911790555b8061221d81612fb1565b9150506120ea565b50505050565b805160009061223d5750606319919050565b8160c0015164ffffffffff164210156122595750600019919050565b8160a001518260c0015161226d9190613018565b64ffffffffff1642111561228357506001919050565b506000919050565b6117776123fe565b7f4910fdfa16fed3260ed0e7147f7cc6da11a60208b5b9406d12a635614ffd91435460ff16156122c657611696836124d9565b826001600160a01b03166352d1902d6040518163ffffffff1660e01b8152600401602060405180830381865afa925050508015612320575060408051601f3d908101601f1916820190925261231d91810190613278565b60015b6123835760405162461bcd60e51b815260206004820152602e60248201527f45524331393637557067726164653a206e657720696d706c656d656e7461746960448201526d6f6e206973206e6f74205555505360901b6064820152608401610648565b60008051602061332c83398151915281146123f25760405162461bcd60e51b815260206004820152602960248201527f45524331393637557067726164653a20756e737570706f727465642070726f786044820152681a58589b195555525160ba1b6064820152608401610648565b50611696838383612575565b6097546001600160a01b0316331461190f5760405162461bcd60e51b815260206004820181905260248201527f4f776e61626c653a2063616c6c6572206973206e6f7420746865206f776e65726044820152606401610648565b609780546001600160a01b038381166001600160a01b0319831681179093556040519116919082907f8be0079c531659141344cd1fd0a4f28419497f9722a3daafe3b4186f6b6457e090600090a35050565b600054610100900460ff166124d15760405162461bcd60e51b815260040161064890613291565b61190f61259a565b6001600160a01b0381163b6125465760405162461bcd60e51b815260206004820152602d60248201527f455243313936373a206e657720696d706c656d656e746174696f6e206973206e60448201526c1bdd08184818dbdb9d1c9858dd609a1b6064820152608401610648565b60008051602061332c83398151915280546001600160a01b0319166001600160a01b0392909216919091179055565b61257e836125ca565b60008251118061258b5750805b1561169657612225838361260a565b600054610100900460ff166125c15760405162461bcd60e51b815260040161064890613291565b61190f33612458565b6125d3816124d9565b6040516001600160a01b038216907fbc7cd75a20ee27fd9adebab32041f755214dbc6bffa90cc0225b39da2e5c2d3b90600090a250565b60606001600160a01b0383163b6126725760405162461bcd60e51b815260206004820152602660248201527f416464726573733a2064656c65676174652063616c6c20746f206e6f6e2d636f6044820152651b9d1c9858dd60d21b6064820152608401610648565b600080846001600160a01b03168460405161268d91906132dc565b600060405180830381855af49150503d80600081146126c8576040519150601f19603f3d011682016040523d82523d6000602084013e6126cd565b606091505b50915091506126f5828260405180606001604052806027815260200161334c60279139612700565b925050505b92915050565b6060831561270f575081612719565b6127198383612720565b9392505050565b8151156127305781518083602001fd5b8060405162461bcd60e51b815260040161064891906132f8565b82805482825590600052602060002090810192821561279d579160200282015b8281111561279d5781546001600160a01b0319166001600160a01b0384351617825560209092019160019091019061276a565b506127a99291506127ad565b5090565b5b808211156127a957600081556001016127ae565b634e487b7160e01b600052604160045260246000fd5b604051601f8201601f1916810167ffffffffffffffff81118282101715612801576128016127c2565b604052919050565b8035801515811461281957600080fd5b919050565b803564ffffffffff8116811461281957600080fd5b6001600160801b038116811461177757600080fd5b600061010080838503121561285c57600080fd5b6040519081019067ffffffffffffffff8211818310171561287f5761287f6127c2565b8160405280925061288f84612809565b815261289d60208501612809565b60208201526128ae60408501612809565b60408201526128bf60608501612809565b60608201526128d060808501612809565b60808201526128e160a0850161281e565b60a08201526128f260c0850161281e565b60c082015260e0840135915061290782612833565b60e0015292915050565b60008083601f84011261292357600080fd5b50813567ffffffffffffffff81111561293b57600080fd5b60208301915083602082850101111561295357600080fd5b9250929050565b60008083601f84011261296c57600080fd5b50813567ffffffffffffffff81111561298457600080fd5b6020830191508360208260051b850101111561295357600080fd5b60008060008060008060008060008060006101c08c8e0312156129c157600080fd5b6129cb8d8d612848565b9a506129da6101008d01612809565b99506101208c0135985067ffffffffffffffff806101408e013511156129ff57600080fd5b612a108e6101408f01358f01612911565b90995097506101608d0135811015612a2757600080fd5b612a388e6101608f01358f0161295a565b90975095506101808d0135811015612a4f57600080fd5b612a608e6101808f01358f0161295a565b90955093506101a08d0135811015612a7757600080fd5b50612a898d6101a08e01358e0161295a565b81935080925050509295989b509295989b9093969950565b600060208284031215612ab357600080fd5b5035919050565b600081518084526020808501945080840160005b83811015612af35781516001600160a01b031687529582019590820190600101612ace565b509495945050505050565b606081526000612b116060830186612aba565b8281036020840152612b238186612aba565b90508281036040840152612b378185612aba565b9695505050505050565b60008060408385031215612b5457600080fd5b82359150612b6460208401612809565b90509250929050565b6001600160a01b038116811461177757600080fd5b600060208284031215612b9457600080fd5b813561271981612b6d565b60008060408385031215612bb257600080fd5b8235612bbd81612b6d565b915060208381013567ffffffffffffffff80821115612bdb57600080fd5b818601915086601f830112612bef57600080fd5b813581811115612c0157612c016127c2565b612c13601f8201601f191685016127d8565b91508082528784828501011115612c2957600080fd5b80848401858401376000848284010152508093505050509250929050565b60008060408385031215612c5a57600080fd5b50508035926020909101359150565b60008060408385031215612c7c57600080fd5b823591506020830135612c8e81612b6d565b809150509250929050565b600080600060408486031215612cae57600080fd5b83359250602084013567ffffffffffffffff811115612ccc57600080fd5b612cd88682870161295a565b9497909650939450505050565b600060c08284031215612cf757600080fd5b50919050565b60005b83811015612d18578181015183820152602001612d00565b50506000910152565b60008151808452612d39816020860160208601612cfd565b601f01601f19169290920160200192915050565b63ffffffff8981168252881660208201526001600160801b0387166040820152851515606082015284151560808201526001600160a01b03841660a082015260c0810183905261010060e08201819052600090612dac83820185612d21565b9b9a5050505050505050505050565b600080600060408486031215612dd057600080fd5b83359250602084013567ffffffffffffffff811115612dee57600080fd5b612cd886828701612911565b634e487b7160e01b600052601160045260246000fd5b818103818111156126fa576126fa612dfa565b600181811c90821680612e3757607f821691505b602082108103612cf757634e487b7160e01b600052602260045260246000fd5b601f82111561169657600081815260208120601f850160051c81016020861015612e7e5750805b601f850160051c820191505b81811015612e9d57828155600101612e8a565b505050505050565b67ffffffffffffffff831115612ebd57612ebd6127c2565b612ed183612ecb8354612e23565b83612e57565b6000601f841160018114612f055760008515612eed5750838201355b600019600387901b1c1916600186901b178355611b53565b600083815260209020601f19861690835b82811015612f365786850135825560209485019460019092019101612f16565b5086821015612f535760001960f88860031b161c19848701351681555b505060018560011b0183555050505050565b808201808211156126fa576126fa612dfa565b634e487b7160e01b600052601260045260246000fd5b600063ffffffff80841680612fa557612fa5612f78565b92169190910492915050565b600060018201612fc357612fc3612dfa565b5060010190565b600082612fd957612fd9612f78565b500490565b634e487b7160e01b600052603260045260246000fd5b63ffffffff81811683821601908082111561301157613011612dfa565b5092915050565b64ffffffffff81811683821601908082111561301157613011612dfa565b600081600019048311821515161561305057613050612dfa565b500290565b6020808252602c908201527f46756e6374696f6e206d7573742062652063616c6c6564207468726f7567682060408201526b19195b1959d85d1958d85b1b60a21b606082015260800190565b6020808252602c908201527f46756e6374696f6e206d7573742062652063616c6c6564207468726f7567682060408201526b6163746976652070726f787960a01b606082015260800190565b6001600160801b0382811682821603908082111561301157613011612dfa565b6001600160801b0381811683821601908082111561301157613011612dfa565b6000813563ffffffff811681146126fa57600080fd5b600081356126fa81612b6d565b600081356126fa81612833565b63ffffffff61316b8361312d565b1681548163ffffffff19821617835567ffffffff0000000061318f6020860161312d565b60201b16808367ffffffffffffffff198416171784556bffffffff00000000000000006131be6040870161312d565b60401b16836bffffffffffffffffffffffff1984161782171784555050506132156131eb60608401613143565b82546bffffffffffffffffffffffff1660609190911b6bffffffffffffffffffffffff1916178255565b61324861322460808401613143565b6001830180546001600160a01b0319166001600160a01b0392909216919091179055565b61184661325760a08401613150565b600283016001600160801b0382166001600160801b03198254161781555050565b60006020828403121561328a57600080fd5b5051919050565b6020808252602b908201527f496e697469616c697a61626c653a20636f6e7472616374206973206e6f74206960408201526a6e697469616c697a696e6760a81b606082015260800190565b600082516132ee818460208701612cfd565b9190910192915050565b6020815260006127196020830184612d2156fe9d55af5f541823e99f52b8445339626840cb29bc1873d14b1f1804d5d464d8b7360894a13ba1a3210667c828492db98dca3e2076cc3735a920a3ca505d382bbc416464726573733a206c6f772d6c6576656c2064656c65676174652063616c6c206661696c6564a2646970667358221220417d0371a30dc267999b0f7ffa12aab5657eb149f2cf47481c043778c1d5ddd864736f6c63430008100033",
    "sourcePath": "/home/main/Documents/Code/chainpact/contracts/ProposalPactUpgradeable.sol",
    "compiler": {
        "name": "solc",
        "version": "0.8.16+commit.07a7930e"
    },
    "functionHashes": {
        "addVoters(bytes32,address[])": "b9e20cd4",
        "concludeVoting(bytes32)": "028669f9",
        "createPact((bool,bool,bool,bool,bool,uint40,uint40,uint128),bool,bytes32,string,address[],address[],address[])": "027b71d5",
        "getParticipants(bytes32)": "0b0235be",
        "grants(address)": "b869cea3",
        "initialize((uint32,uint32,uint32,address,address,uint128))": "f41c5ca5",
        "owner()": "8da5cb5b",
        "pacts(bytes32)": "f8bfca8b",
        "pitchIn(bytes32)": "eaf72c59",
        "postponeVotingWindow(bytes32)": "1774931e",
        "proxiableUUID()": "52d1902d",
        "renounceOwnership()": "715018a6",
        "setText(bytes32,string)": "ff8594fc",
        "transferOwnership(address)": "f2fde38b",
        "upgradeTo(address)": "3659cfe6",
        "upgradeToAndCall(address,bytes)": "4f1ef286",
        "userInteractionData(bytes32,address)": "b764c810",
        "voteOnPact(bytes32,bool)": "0fee5347",
        "votingInfo(bytes32)": "cd4cd813",
        "withDrawContribution(bytes32,uint256)": "7479f92c",
        "withdrawGrant(uint256)": "3295b495"
    },
    "gasEstimates": {
        "creation": {
            "codeDepositCost": "2644800",
            "executionCost": "infinite",
            "totalCost": "infinite"
        },
        "external": {
            "addVoters(bytes32,address[])": "3504",
            "concludeVoting(bytes32)": "3190",
            "createPact((bool,bool,bool,bool,bool,uint40,uint40,uint128),bool,bytes32,string,address[],address[],address[])": "infinite",
            "getParticipants(bytes32)": "infinite",
            "grants(address)": "2602",
            "initialize((uint32,uint32,uint32,address,address,uint128))": "infinite",
            "owner()": "2346",
            "pacts(bytes32)": "infinite",
            "pitchIn(bytes32)": "infinite",
            "postponeVotingWindow(bytes32)": "5357",
            "proxiableUUID()": "infinite",
            "renounceOwnership()": "infinite",
            "setText(bytes32,string)": "infinite",
            "transferOwnership(address)": "infinite",
            "upgradeTo(address)": "infinite",
            "upgradeToAndCall(address,bytes)": "infinite",
            "userInteractionData(bytes32,address)": "2863",
            "voteOnPact(bytes32,bool)": "infinite",
            "votingInfo(bytes32)": "2849",
            "withDrawContribution(bytes32,uint256)": "infinite",
            "withdrawGrant(uint256)": "infinite"
        },
        "internal": {
            "_addVoters(bytes32,address[] calldata)": "infinite",
            "_authorizeUpgrade(address)": "infinite",
            "isVotingActive(struct VotingInfo memory)": "infinite"
        }
    }
}