{
    "contractName": "GigPactUpgradeable",
    "abi": [
        {
            "inputs": [],
            "stateMutability": "nonpayable",
            "type": "constructor"
        },
        {
            "anonymous": false,
            "inputs": [
                {
                    "indexed": false,
                    "internalType": "address",
                    "name": "previousAdmin",
                    "type": "address"
                },
                {
                    "indexed": false,
                    "internalType": "address",
                    "name": "newAdmin",
                    "type": "address"
                }
            ],
            "name": "AdminChanged",
            "type": "event"
        },
        {
            "anonymous": false,
            "inputs": [
                {
                    "indexed": true,
                    "internalType": "address",
                    "name": "beacon",
                    "type": "address"
                }
            ],
            "name": "BeaconUpgraded",
            "type": "event"
        },
        {
            "anonymous": false,
            "inputs": [
                {
                    "indexed": false,
                    "internalType": "uint8",
                    "name": "version",
                    "type": "uint8"
                }
            ],
            "name": "Initialized",
            "type": "event"
        },
        {
            "anonymous": false,
            "inputs": [
                {
                    "indexed": true,
                    "internalType": "address",
                    "name": "creator",
                    "type": "address"
                },
                {
                    "indexed": false,
                    "internalType": "bytes32",
                    "name": "pactid",
                    "type": "bytes32"
                }
            ],
            "name": "LogPactCreated",
            "type": "event"
        },
        {
            "anonymous": false,
            "inputs": [
                {
                    "indexed": true,
                    "internalType": "bytes32",
                    "name": "pactid",
                    "type": "bytes32"
                },
                {
                    "indexed": false,
                    "internalType": "uint256",
                    "name": "value",
                    "type": "uint256"
                },
                {
                    "indexed": true,
                    "internalType": "address",
                    "name": "payer",
                    "type": "address"
                }
            ],
            "name": "LogPaymentMade",
            "type": "event"
        },
        {
            "anonymous": false,
            "inputs": [
                {
                    "indexed": true,
                    "internalType": "bytes32",
                    "name": "pactid",
                    "type": "bytes32"
                },
                {
                    "indexed": false,
                    "internalType": "enum PactState",
                    "name": "newState",
                    "type": "uint8"
                },
                {
                    "indexed": true,
                    "internalType": "address",
                    "name": "updater",
                    "type": "address"
                }
            ],
            "name": "LogStateUpdate",
            "type": "event"
        },
        {
            "anonymous": false,
            "inputs": [
                {
                    "indexed": true,
                    "internalType": "address",
                    "name": "previousOwner",
                    "type": "address"
                },
                {
                    "indexed": true,
                    "internalType": "address",
                    "name": "newOwner",
                    "type": "address"
                }
            ],
            "name": "OwnershipTransferred",
            "type": "event"
        },
        {
            "anonymous": false,
            "inputs": [
                {
                    "indexed": true,
                    "internalType": "address",
                    "name": "implementation",
                    "type": "address"
                }
            ],
            "name": "Upgraded",
            "type": "event"
        },
        {
            "inputs": [
                {
                    "internalType": "bytes32",
                    "name": "pactid",
                    "type": "bytes32"
                },
                {
                    "internalType": "bool",
                    "name": "acceptOrReject",
                    "type": "bool"
                }
            ],
            "name": "acceptOrRejectArbitrators",
            "outputs": [],
            "stateMutability": "nonpayable",
            "type": "function"
        },
        {
            "inputs": [
                {
                    "internalType": "bytes32",
                    "name": "pactid",
                    "type": "bytes32"
                },
                {
                    "internalType": "uint256",
                    "name": "payTime",
                    "type": "uint256"
                },
                {
                    "internalType": "bool",
                    "name": "confirm",
                    "type": "bool"
                }
            ],
            "name": "addExternalPayClaim",
            "outputs": [],
            "stateMutability": "nonpayable",
            "type": "function"
        },
        {
            "inputs": [
                {
                    "internalType": "bytes32",
                    "name": "pactid",
                    "type": "bytes32"
                }
            ],
            "name": "approvePayment",
            "outputs": [],
            "stateMutability": "payable",
            "type": "function"
        },
        {
            "inputs": [
                {
                    "internalType": "bytes32",
                    "name": "pactid",
                    "type": "bytes32"
                }
            ],
            "name": "arbitratorResolve",
            "outputs": [],
            "stateMutability": "nonpayable",
            "type": "function"
        },
        {
            "inputs": [
                {
                    "internalType": "bytes32",
                    "name": "pactName_",
                    "type": "bytes32"
                },
                {
                    "internalType": "address",
                    "name": "employee_",
                    "type": "address"
                },
                {
                    "internalType": "address",
                    "name": "employer_",
                    "type": "address"
                },
                {
                    "internalType": "uint32",
                    "name": "payScheduleDays_",
                    "type": "uint32"
                },
                {
                    "internalType": "uint128",
                    "name": "payAmount_",
                    "type": "uint128"
                },
                {
                    "internalType": "address",
                    "name": "erc20TokenAddress_",
                    "type": "address"
                },
                {
                    "internalType": "bytes32",
                    "name": "externalDocumentHash_",
                    "type": "bytes32"
                }
            ],
            "name": "createPact",
            "outputs": [],
            "stateMutability": "nonpayable",
            "type": "function"
        },
        {
            "inputs": [
                {
                    "internalType": "bytes32",
                    "name": "pactid",
                    "type": "bytes32"
                },
                {
                    "internalType": "address[]",
                    "name": "delegates",
                    "type": "address[]"
                },
                {
                    "internalType": "bool",
                    "name": "addOrRevoke",
                    "type": "bool"
                }
            ],
            "name": "delegatePact",
            "outputs": [],
            "stateMutability": "nonpayable",
            "type": "function"
        },
        {
            "inputs": [
                {
                    "internalType": "bytes32",
                    "name": "pactid",
                    "type": "bytes32"
                },
                {
                    "internalType": "uint256",
                    "name": "suggestedAmountClaim",
                    "type": "uint256"
                }
            ],
            "name": "dispute",
            "outputs": [],
            "stateMutability": "nonpayable",
            "type": "function"
        },
        {
            "inputs": [
                {
                    "internalType": "bytes32",
                    "name": "",
                    "type": "bytes32"
                }
            ],
            "name": "externalDocumentHash",
            "outputs": [
                {
                    "internalType": "bytes32",
                    "name": "",
                    "type": "bytes32"
                }
            ],
            "stateMutability": "view",
            "type": "function"
        },
        {
            "inputs": [
                {
                    "internalType": "bytes32",
                    "name": "pactid",
                    "type": "bytes32"
                },
                {
                    "internalType": "uint256",
                    "name": "tokenAmount",
                    "type": "uint256"
                }
            ],
            "name": "fNf",
            "outputs": [],
            "stateMutability": "payable",
            "type": "function"
        },
        {
            "inputs": [
                {
                    "internalType": "bytes32",
                    "name": "pactid",
                    "type": "bytes32"
                }
            ],
            "name": "getArbitratrators",
            "outputs": [
                {
                    "components": [
                        {
                            "internalType": "address",
                            "name": "addr",
                            "type": "address"
                        },
                        {
                            "internalType": "bool",
                            "name": "hasResolved",
                            "type": "bool"
                        }
                    ],
                    "internalType": "struct Arbitrator[]",
                    "name": "",
                    "type": "tuple[]"
                }
            ],
            "stateMutability": "view",
            "type": "function"
        },
        {
            "inputs": [
                {
                    "internalType": "uint256",
                    "name": "commissionPercentage_",
                    "type": "uint256"
                },
                {
                    "internalType": "address",
                    "name": "commissionSink_",
                    "type": "address"
                }
            ],
            "name": "initialize",
            "outputs": [],
            "stateMutability": "nonpayable",
            "type": "function"
        },
        {
            "inputs": [
                {
                    "internalType": "bytes32",
                    "name": "",
                    "type": "bytes32"
                },
                {
                    "internalType": "address",
                    "name": "",
                    "type": "address"
                }
            ],
            "name": "isEmployeeDelegate",
            "outputs": [
                {
                    "internalType": "bool",
                    "name": "",
                    "type": "bool"
                }
            ],
            "stateMutability": "view",
            "type": "function"
        },
        {
            "inputs": [
                {
                    "internalType": "bytes32",
                    "name": "",
                    "type": "bytes32"
                },
                {
                    "internalType": "address",
                    "name": "",
                    "type": "address"
                }
            ],
            "name": "isEmployerDelegate",
            "outputs": [
                {
                    "internalType": "bool",
                    "name": "",
                    "type": "bool"
                }
            ],
            "stateMutability": "view",
            "type": "function"
        },
        {
            "inputs": [
                {
                    "internalType": "bytes32",
                    "name": "pactid",
                    "type": "bytes32"
                },
                {
                    "internalType": "address",
                    "name": "party",
                    "type": "address"
                }
            ],
            "name": "isParty",
            "outputs": [
                {
                    "internalType": "bool",
                    "name": "",
                    "type": "bool"
                }
            ],
            "stateMutability": "view",
            "type": "function"
        },
        {
            "inputs": [],
            "name": "owner",
            "outputs": [
                {
                    "internalType": "address",
                    "name": "",
                    "type": "address"
                }
            ],
            "stateMutability": "view",
            "type": "function"
        },
        {
            "inputs": [
                {
                    "internalType": "bytes32",
                    "name": "",
                    "type": "bytes32"
                }
            ],
            "name": "pactData",
            "outputs": [
                {
                    "internalType": "bytes32",
                    "name": "pactName",
                    "type": "bytes32"
                },
                {
                    "internalType": "uint40",
                    "name": "employeeSignDate",
                    "type": "uint40"
                },
                {
                    "internalType": "enum PactState",
                    "name": "pactState",
                    "type": "uint8"
                },
                {
                    "internalType": "bool",
                    "name": "arbitratorAccepted",
                    "type": "bool"
                },
                {
                    "internalType": "bool",
                    "name": "arbitratorProposed",
                    "type": "bool"
                },
                {
                    "internalType": "address",
                    "name": "employee",
                    "type": "address"
                },
                {
                    "internalType": "uint32",
                    "name": "payScheduleDays",
                    "type": "uint32"
                },
                {
                    "internalType": "address",
                    "name": "employer",
                    "type": "address"
                },
                {
                    "internalType": "uint128",
                    "name": "payAmount",
                    "type": "uint128"
                },
                {
                    "internalType": "uint128",
                    "name": "stakeAmount",
                    "type": "uint128"
                },
                {
                    "internalType": "address",
                    "name": "arbitratorProposer",
                    "type": "address"
                },
                {
                    "internalType": "address",
                    "name": "erc20TokenAddress",
                    "type": "address"
                }
            ],
            "stateMutability": "view",
            "type": "function"
        },
        {
            "inputs": [
                {
                    "internalType": "bool",
                    "name": "toPause",
                    "type": "bool"
                }
            ],
            "name": "pauseUnpausePanic",
            "outputs": [],
            "stateMutability": "nonpayable",
            "type": "function"
        },
        {
            "inputs": [
                {
                    "internalType": "bytes32",
                    "name": "",
                    "type": "bytes32"
                }
            ],
            "name": "payData",
            "outputs": [
                {
                    "internalType": "uint40",
                    "name": "pauseDuration",
                    "type": "uint40"
                },
                {
                    "internalType": "uint40",
                    "name": "pauseResumeTime",
                    "type": "uint40"
                },
                {
                    "internalType": "uint40",
                    "name": "lastPayTimeStamp",
                    "type": "uint40"
                },
                {
                    "internalType": "uint40",
                    "name": "lastExternalPayTimeStamp",
                    "type": "uint40"
                },
                {
                    "internalType": "bool",
                    "name": "claimExternalPay",
                    "type": "bool"
                },
                {
                    "internalType": "uint128",
                    "name": "lastPayAmount",
                    "type": "uint128"
                },
                {
                    "internalType": "uint128",
                    "name": "proposedAmount",
                    "type": "uint128"
                }
            ],
            "stateMutability": "view",
            "type": "function"
        },
        {
            "inputs": [
                {
                    "internalType": "bytes32",
                    "name": "pactid",
                    "type": "bytes32"
                },
                {
                    "internalType": "address[]",
                    "name": "proposedArbitrators_",
                    "type": "address[]"
                }
            ],
            "name": "proposeArbitrators",
            "outputs": [],
            "stateMutability": "nonpayable",
            "type": "function"
        },
        {
            "inputs": [],
            "name": "proxiableUUID",
            "outputs": [
                {
                    "internalType": "bytes32",
                    "name": "",
                    "type": "bytes32"
                }
            ],
            "stateMutability": "view",
            "type": "function"
        },
        {
            "inputs": [
                {
                    "internalType": "bytes32",
                    "name": "pactid",
                    "type": "bytes32"
                },
                {
                    "internalType": "address payable",
                    "name": "payee",
                    "type": "address"
                }
            ],
            "name": "reclaimStake",
            "outputs": [],
            "stateMutability": "nonpayable",
            "type": "function"
        },
        {
            "inputs": [],
            "name": "renounceOwnership",
            "outputs": [],
            "stateMutability": "nonpayable",
            "type": "function"
        },
        {
            "inputs": [
                {
                    "internalType": "bytes32",
                    "name": "pactid",
                    "type": "bytes32"
                },
                {
                    "internalType": "bytes",
                    "name": "signature",
                    "type": "bytes"
                },
                {
                    "internalType": "uint256",
                    "name": "signingDate_",
                    "type": "uint256"
                }
            ],
            "name": "signPact",
            "outputs": [],
            "stateMutability": "payable",
            "type": "function"
        },
        {
            "inputs": [
                {
                    "internalType": "bytes32",
                    "name": "pactid",
                    "type": "bytes32"
                },
                {
                    "internalType": "bool",
                    "name": "toStart",
                    "type": "bool"
                }
            ],
            "name": "startPausePact",
            "outputs": [],
            "stateMutability": "nonpayable",
            "type": "function"
        },
        {
            "inputs": [
                {
                    "internalType": "bytes32",
                    "name": "pactid",
                    "type": "bytes32"
                }
            ],
            "name": "terminate",
            "outputs": [],
            "stateMutability": "nonpayable",
            "type": "function"
        },
        {
            "inputs": [
                {
                    "internalType": "address",
                    "name": "newOwner",
                    "type": "address"
                }
            ],
            "name": "transferOwnership",
            "outputs": [],
            "stateMutability": "nonpayable",
            "type": "function"
        },
        {
            "inputs": [
                {
                    "internalType": "address",
                    "name": "newImplementation",
                    "type": "address"
                }
            ],
            "name": "upgradeTo",
            "outputs": [],
            "stateMutability": "nonpayable",
            "type": "function"
        },
        {
            "inputs": [
                {
                    "internalType": "address",
                    "name": "newImplementation",
                    "type": "address"
                },
                {
                    "internalType": "bytes",
                    "name": "data",
                    "type": "bytes"
                }
            ],
            "name": "upgradeToAndCall",
            "outputs": [],
            "stateMutability": "payable",
            "type": "function"
        }
    ],
    "bytecode": "60a0604052306080523480156200001557600080fd5b506200002062000026565b620000e8565b600054610100900460ff1615620000935760405162461bcd60e51b815260206004820152602760248201527f496e697469616c697a61626c653a20636f6e747261637420697320696e697469604482015266616c697a696e6760c81b606482015260840160405180910390fd5b60005460ff9081161015620000e6576000805460ff191660ff9081179091556040519081527f7f26b83ff96e1f2b6a682f133852f6798a09c465da95921460cefb38474024989060200160405180910390a15b565b608051612eaf62000120600039600081816109460152818161098f0152818161123e0152818161127e01526113110152612eaf6000f3fe6080604052600436106101b75760003560e01c8063828e1576116100ec578063c4c901f61161008a578063e58bb12111610064578063e58bb121146105a3578063e70996f2146105c3578063edb0beee1461068f578063f2fde38b146106af57600080fd5b8063c4c901f61461048f578063d3cd2324146104af578063da35a26f1461058357600080fd5b8063a1235847116100c6578063a123584714610401578063a3ad392714610421578063a7dc8bc01461045c578063b0acafb81461047c57600080fd5b8063828e15761461039957806387b1002a146103b95780638da5cb5b146103d957600080fd5b80634a8d1da011610159578063697a871511610133578063697a871514610324578063711eba0c14610344578063715018a6146103715780637bca74bf1461038657600080fd5b80634a8d1da0146102b15780634f1ef286146102fc57806352d1902d1461030f57600080fd5b8063422427f211610195578063422427f21461021e578063442e5e601461025e5780634553c7c91461027e5780634844a1f91461029157600080fd5b806317a10c8b146101bc5780633659cfe6146101de578063370969a6146101fe575b600080fd5b3480156101c857600080fd5b506101dc6101d736600461255b565b6106cf565b005b3480156101ea57600080fd5b506101dc6101f93660046125f4565b61093c565b34801561020a57600080fd5b506101dc61021936600461261f565b610a24565b34801561022a57600080fd5b5061024b61023936600461264f565b60cf6020526000908152604090205481565b6040519081526020015b60405180910390f35b34801561026a57600080fd5b506101dc61027936600461261f565b610d06565b6101dc61028c36600461264f565b610d8d565b34801561029d57600080fd5b506101dc6102ac36600461264f565b6111b2565b3480156102bd57600080fd5b506102ec6102cc366004612668565b60ce60209081526000928352604080842090915290825290205460ff1681565b6040519015158152602001610255565b6101dc61030a3660046126a3565b611234565b34801561031b57600080fd5b5061024b611304565b34801561033057600080fd5b506101dc61033f366004612767565b6113b7565b34801561035057600080fd5b5061036461035f36600461264f565b611493565b60405161025591906127a0565b34801561037d57600080fd5b506101dc611521565b6101dc6103943660046127fa565b611535565b3480156103a557600080fd5b506102ec6103b4366004612668565b6115f1565b3480156103c557600080fd5b506101dc6103d436600461264f565b61164d565b3480156103e557600080fd5b506097546040516001600160a01b039091168152602001610255565b34801561040d57600080fd5b506101dc61041c36600461287c565b611982565b34801561042d57600080fd5b506102ec61043c366004612668565b60cd60209081526000928352604080842090915290825290205460ff1681565b34801561046857600080fd5b506101dc6104773660046128ea565b6119ea565b6101dc61048a36600461287c565b611a60565b34801561049b57600080fd5b506101dc6104aa366004612936565b611ad8565b3480156104bb57600080fd5b5061056b6104ca36600461264f565b60cb60205260009081526040902080546001820154600283015460038401546004850154600690950154939464ffffffffff841694600160281b850460ff9081169566010000000000008104821695670100000000000000820490921694600160401b82046001600160a01b0390811695600160e01b90930463ffffffff1694938116936001600160801b0380841694600160801b9094041692821691168c565b6040516102559c9b9a999897969594939291906129cd565b34801561058f57600080fd5b506101dc61059e366004612668565b611c6f565b3480156105af57600080fd5b506101dc6105be366004612668565b611da2565b3480156105cf57600080fd5b5061063d6105de36600461264f565b60cc602052600090815260409020805460019091015464ffffffffff80831692600160281b8104821692600160501b8204831692600160781b83041691600160a01b900460ff16906001600160801b0380821691600160801b90041687565b6040805164ffffffffff9889168152968816602088015294871694860194909452949091166060840152151560808301526001600160801b0392831660a08301529190911660c082015260e001610255565b34801561069b57600080fd5b506101dc6106aa366004612a54565b611ff8565b3480156106bb57600080fd5b506101dc6106ca3660046125f4565b612013565b3332146106db57600080fd5b6000836001600160801b03161180156106f357508615155b6106fc57600080fd5b60003360ca54426001436107109190612a87565b60405160609490941b6bffffffffffffffffffffffff191660208501527018da185a5b9c1858dd17d9da59dc1858dd607a1b60348501526045840192909252606583015240608582015260a50160408051601f198184030181529190528051602090910120905060008082815260cb6020526040902060010154600160281b900460ff1660108111156107a5576107a5612995565b146107af57600080fd5b600081815260cb602052604090206001810180548a835563ffffffff8816600160e01b026001600160e01b036001600160a01b038c8116600160401b029190911667ffff00ffffffffff9093169290921717600160281b17909155600290910180548883166001600160a01b031990911617905583161561085557600081815260cb6020526040902060060180546001600160a01b0319166001600160a01b0385161790555b600081815260cb6020526040902060030180546001600160801b0319166001600160801b038616179055811561089757600081815260cf602052604090208290555b600081815260cd602090815260408083206001600160a01b038b811685529083528184208054600160ff19918216811790925586865260ce8552838620928c168652919093529083208054909116909117905560ca8054916108f883612a9a565b909155505060405181815233907f24df31a6bd463ded48cfbaed90612e617f0f2be5e74642bb67181e69930747529060200160405180910390a25050505050505050565b6001600160a01b037f000000000000000000000000000000000000000000000000000000000000000016300361098d5760405162461bcd60e51b815260040161098490612ab3565b60405180910390fd5b7f00000000000000000000000000000000000000000000000000000000000000006001600160a01b03166109d6600080516020612e33833981519152546001600160a01b031690565b6001600160a01b0316146109fc5760405162461bcd60e51b815260040161098490612aff565b610a0581612089565b60408051600080825260208201909252610a2191839190612091565b50565b600082815260ce60209081526040808320338452909152902054829060ff16610a5f5760405162461bcd60e51b815260040161098490612b4b565b600083815260cc60209081526040808320815160e081018352815464ffffffffff8082168352600160281b808304821684880152600160501b8304821684870152600160781b83049091166060840152600160a01b90910460ff908116151560808401526001938401546001600160801b0380821660a0860152600160801b9091041660c084015289875260cb90955292909420015404168315610b86576005816010811115610b1157610b11612995565b03610b32575064ffffffffff42166040820152600060a08201526006610b7e565b6007816010811115610b4657610b46612995565b036101b7576020820151610b5a9042612b7b565b82518390610b69908390612ba0565b64ffffffffff90811690915242166020840152505b506006610bcb565b6006600086815260cb6020526040902060010154600160281b900460ff166010811115610bb557610bb5612995565b036101b7575064ffffffffff4216602082015260075b600085815260cc6020908152604080832085518154848801518489015160608a015160808b01511515600160a01b0260ff60a01b1964ffffffffff928316600160781b0264ffffffffff60781b19948416600160501b029490941669ffffffffffffffffffff60501b19958416600160281b90810269ffffffffffffffffffff199098169490981693909317959095179390931617179190911617825560a087015160c08801516001600160801b03908116600160801b0291161760019283015560cb90935292209091018054839265ff00000000001990911690836010811115610cb857610cb8612995565b0217905550336001600160a01b0316857f5254a87d80ff84e51d0f03d41c4efbd9b1ab40e42c35e6c2b7fd8967ed93959883604051610cf79190612bbe565b60405180910390a35050505050565b600082815260cb6020526040908190209051639ac0240360e01b8152600481018490526024810191909152811515604482015273__$8da77be4bb764ef4d3fc17d9060c18f4a4$__90639ac02403906064015b60006040518083038186803b158015610d7157600080fd5b505af4158015610d85573d6000803e3d6000fd5b505050505050565b600081815260ce60209081526040808320338452909152902054819060ff16610dc85760405162461bcd60e51b815260040161098490612b4b565b816006600082815260cb6020526040902060010154600160281b900460ff166010811115610df857610df8612995565b14610e155760405162461bcd60e51b815260040161098490612bcc565b60c95460ff1615610e2557600080fd5b600083815260cb60205260408120600181015460038201546006909201546001600160a01b03600160401b9092048216936001600160801b039093169291169081610f795760c860d05484610e7a9190612bf0565b610e849190612c0f565b610e8e9084612c31565b341015610edd5760405162461bcd60e51b815260206004820152601a60248201527f416d6f756e74206c657373207468616e20706179416d6f756e740000000000006044820152606401610984565b60d15460d0546001600160a01b03909116906108fc90606490610f009087612bf0565b610f0a9190612c0f565b6040518115909202916000818181858888f19350505050610f2a57600080fd5b836001600160a01b03166108fc606460d05486610f479190612bf0565b610f519190612c0f565b610f5b9034612a87565b6040518115909202916000818181858888f1935050505090506110ea565b816001600160a01b03166323b872dd3360d160009054906101000a90046001600160a01b0316606460d05488610faf9190612bf0565b610fb99190612c0f565b6040516001600160e01b031960e086901b1681526001600160a01b03938416600482015292909116602483015260448201526064016020604051808303816000875af115801561100d573d6000803e3d6000fd5b505050506040513d601f19601f820116820180604052508101906110319190612c44565b61103a57600080fd5b816001600160a01b03166323b872dd338660c860d0548861105b9190612bf0565b6110659190612c0f565b61106f9088612a87565b6040516001600160e01b031960e086901b1681526001600160a01b03938416600482015292909116602483015260448201526064016020604051808303816000875af11580156110c3573d6000803e3d6000fd5b505050506040513d601f19601f820116820180604052508101906110e79190612c44565b90505b80156101b757600087815260cc60205260409020805464ffffffffff60501b1916600160501b4264ffffffffff16021790556001600160a01b038216156111315782611133565b345b600088815260cc60209081526040918290206001810180546001600160801b0319166001600160801b039590951694909417909355825464ffffffffff191690925551348152339189917f3edebb650eabb616be143157c469ffb946de723d2c20a168f9da64eac05551f6910160405180910390a35b50505050505050565b600081815260cb6020526040908190209051637f54d65960e01b815273__$8da77be4bb764ef4d3fc17d9060c18f4a4$__91637f54d65991611201918591600401918252602082015260400190565b60006040518083038186803b15801561121957600080fd5b505af415801561122d573d6000803e3d6000fd5b5050505050565b6001600160a01b037f000000000000000000000000000000000000000000000000000000000000000016300361127c5760405162461bcd60e51b815260040161098490612ab3565b7f00000000000000000000000000000000000000000000000000000000000000006001600160a01b03166112c5600080516020612e33833981519152546001600160a01b031690565b6001600160a01b0316146112eb5760405162461bcd60e51b815260040161098490612aff565b6112f482612089565b61130082826001612091565b5050565b6000306001600160a01b037f000000000000000000000000000000000000000000000000000000000000000016146113a45760405162461bcd60e51b815260206004820152603860248201527f555550535570677261646561626c653a206d757374206e6f742062652063616c60448201527f6c6564207468726f7567682064656c656761746563616c6c00000000000000006064820152608401610984565b50600080516020612e3383398151915290565b826006600082815260cb6020526040902060010154600160281b900460ff1660108111156113e7576113e7612995565b146114045760405162461bcd60e51b815260040161098490612bcc565b600084815260cc6020526040908190209051632016bde760e01b815260048101869052602481018590528315156044820152606481019190915273__$b97ee700c74fbe0660fdb109507a4c2ac1$__90632016bde79060840160006040518083038186803b15801561147557600080fd5b505af4158015611489573d6000803e3d6000fd5b5050505050505050565b606060cb6000838152602001908152602001600020600501805480602002602001604051908101604052809291908181526020016000905b8282101561151657600084815260209081902060408051808201909152908401546001600160a01b0381168252600160a01b900460ff161515818301528252600190920191016114cb565b505050509050919050565b6115296121fc565b6115336000612256565b565b60c95460ff161561154557600080fd5b600084815260cb6020908152604080832060cf909252918290205460d05460d15493516383cbb7c960e01b815273__$4aa7cc4881fb0733fdb7037a08b703a564$__946383cbb7c9946115b0948b9491938b938b938b9290916001600160a01b031690600401612c61565b602060405180830381865af41580156115cd573d6000803e3d6000fd5b505050506040513d601f19601f8201168201806040525081019061122d9190612cc5565b600082815260cd602090815260408083206001600160a01b038516845290915281205460ff16806116445750600083815260ce602090815260408083206001600160a01b038616845290915290205460ff165b90505b92915050565b33321461165957600080fd5b806006600082815260cb6020526040902060010154600160281b900460ff16601081111561168957611689612995565b146116a65760405162461bcd60e51b815260040161098490612bcc565b600082815260cc602090815260408083205460cb83528184206001810154600282015460039092015460cd86528487203388529095529285205464ffffffffff600160501b840481169693169460ff600160281b860481169563ffffffff600160e01b90910416946001600160a01b03909416936001600160801b0380841694600160801b9094041692909116156117415760099550611820565b60008a815260ce6020908152604080832033845290915290205460ff16156117e95760006117728662015180612bf0565b8861177d8b42612a87565b6117879190612a87565b6117919086612bf0565b61179b9190612c0f565b90508281106117a75750815b6117b18184612a87565b60008c815260cb6020526040902060030180546001600160801b03938416600160801b02931692909217909155600896509050611820565b60405162461bcd60e51b815260206004820152600c60248201526b155b985d5d1a1bdc9a5e995960a21b6044820152606401610984565b60008a815260cb60205260409020600101805487919065ff00000000001916600160281b83601081111561185657611856612995565b0217905550336001600160a01b03168a7f5254a87d80ff84e51d0f03d41c4efbd9b1ab40e42c35e6c2b7fd8967ed939598886040516118959190612bbe565b60405180910390a360008a815260cb60205260409020600601546001600160a01b0316806118f9576040516001600160a01b0386169083156108fc029084906000818181858888f193505050501580156118f3573d6000803e3d6000fd5b50611975565b60405163a9059cbb60e01b81526001600160a01b0386811660048301526024820184905282169063a9059cbb906044016020604051808303816000875af1158015611948573d6000803e3d6000fd5b505050506040513d601f19601f8201168201806040525081019061196c9190612c44565b61197557600080fd5b5050505050505050505050565b600082815260cb6020908152604080832060cc9092529182902091516351bd278f60e01b815260048101859052602481019190915260448101919091526064810182905273__$8da77be4bb764ef4d3fc17d9060c18f4a4$__906351bd278f90608401610d59565b600083815260cb60205260409081902090516312c4ed8160e21b815273__$8da77be4bb764ef4d3fc17d9060c18f4a4$__91634b13b60491611a3491879187908790600401612ce6565b60006040518083038186803b158015611a4c57600080fd5b505af41580156111a9573d6000803e3d6000fd5b60c95460ff1615611a7057600080fd5b600082815260cb6020908152604080832060cc90925291829020915163107f623f60e31b815260048101859052602481018490526044810191909152606481019190915273__$b97ee700c74fbe0660fdb109507a4c2ac1$__906383fb11f890608401610d59565b60c95460ff1615611ae857600080fd5b6005600085815260cb6020526040902060010154600160281b900460ff166010811115611b1757611b17612995565b1015611b2257600080fd5b600084815260cb60205260409020600201546001600160a01b03163303611bc55760005b82811015611bbf57600085815260ce602052604081208391868685818110611b7057611b70612d45565b9050602002016020810190611b8591906125f4565b6001600160a01b031681526020810191909152604001600020805460ff191691151591909117905580611bb781612a9a565b915050611b46565b50611c69565b600084815260cb6020526040902060010154600160401b90046001600160a01b031633036101b75760005b82811015611bbf57600085815260cd602052604081208391868685818110611c1a57611c1a612d45565b9050602002016020810190611c2f91906125f4565b6001600160a01b031681526020810191909152604001600020805460ff191691151591909117905580611c6181612a9a565b915050611bf0565b50505050565b600054610100900460ff1615808015611c8f5750600054600160ff909116105b80611ca95750303b158015611ca9575060005460ff166001145b611d0c5760405162461bcd60e51b815260206004820152602e60248201527f496e697469616c697a61626c653a20636f6e747261637420697320616c72656160448201526d191e481a5b9a5d1a585b1a5e995960921b6064820152608401610984565b6000805460ff191660011790558015611d2f576000805461ff0019166101001790555b60d083905560d180546001600160a01b0319166001600160a01b038416179055611d576122a8565b8015611d9d576000805461ff0019169055604051600181527f7f26b83ff96e1f2b6a682f133852f6798a09c465da95921460cefb38474024989060200160405180910390a15b505050565b600082815260ce60209081526040808320338452909152902054829060ff16611ddd5760405162461bcd60e51b815260040161098490612b4b565b333214611de957600080fd5b60c95460ff1615611df957600080fd5b6001600160a01b038216611e0c57600080fd5b600083815260cb602052604090206001810154600390910154600160281b90910460ff1690600160801b90046001600160801b031680611e4b57600080fd5b600e826010811115611e5f57611e5f612995565b10611e6d5760109150611e8b565b6003826010811115611e8157611e81612995565b036101b757600291505b600085815260cb602052604081206003810180546001600160801b03169055600101805484919065ff00000000001916600160281b836010811115611ed257611ed2612995565b0217905550336001600160a01b0316867f5254a87d80ff84e51d0f03d41c4efbd9b1ab40e42c35e6c2b7fd8967ed93959885604051611f119190612bbe565b60405180910390a3600086815260cb60205260409020600601546001600160a01b0316611f64576040516001600160a01b0386169083156108fc029084906000818181858888f193505050509050611fee565b600086815260cb60205260409081902060060154905163a9059cbb60e01b81526001600160a01b038781166004830152602482018590529091169063a9059cbb906044016020604051808303816000875af1158015611fc7573d6000803e3d6000fd5b505050506040513d601f19601f82011682018060405250810190611feb9190612c44565b90505b80610d8557600080fd5b6120006121fc565b60c9805460ff1916911515919091179055565b61201b6121fc565b6001600160a01b0381166120805760405162461bcd60e51b815260206004820152602660248201527f4f776e61626c653a206e6577206f776e657220697320746865207a65726f206160448201526564647265737360d01b6064820152608401610984565b610a2181612256565b610a216121fc565b7f4910fdfa16fed3260ed0e7147f7cc6da11a60208b5b9406d12a635614ffd91435460ff16156120c457611d9d836122d7565b826001600160a01b03166352d1902d6040518163ffffffff1660e01b8152600401602060405180830381865afa92505050801561211e575060408051601f3d908101601f1916820190925261211b91810190612d5b565b60015b6121815760405162461bcd60e51b815260206004820152602e60248201527f45524331393637557067726164653a206e657720696d706c656d656e7461746960448201526d6f6e206973206e6f74205555505360901b6064820152608401610984565b600080516020612e3383398151915281146121f05760405162461bcd60e51b815260206004820152602960248201527f45524331393637557067726164653a20756e737570706f727465642070726f786044820152681a58589b195555525160ba1b6064820152608401610984565b50611d9d838383612373565b6097546001600160a01b031633146115335760405162461bcd60e51b815260206004820181905260248201527f4f776e61626c653a2063616c6c6572206973206e6f7420746865206f776e65726044820152606401610984565b609780546001600160a01b038381166001600160a01b0319831681179093556040519116919082907f8be0079c531659141344cd1fd0a4f28419497f9722a3daafe3b4186f6b6457e090600090a35050565b600054610100900460ff166122cf5760405162461bcd60e51b815260040161098490612d74565b611533612398565b6001600160a01b0381163b6123445760405162461bcd60e51b815260206004820152602d60248201527f455243313936373a206e657720696d706c656d656e746174696f6e206973206e60448201526c1bdd08184818dbdb9d1c9858dd609a1b6064820152608401610984565b600080516020612e3383398151915280546001600160a01b0319166001600160a01b0392909216919091179055565b61237c836123c8565b6000825111806123895750805b15611d9d57611c698383612408565b600054610100900460ff166123bf5760405162461bcd60e51b815260040161098490612d74565b61153333612256565b6123d1816122d7565b6040516001600160a01b038216907fbc7cd75a20ee27fd9adebab32041f755214dbc6bffa90cc0225b39da2e5c2d3b90600090a250565b60606001600160a01b0383163b6124705760405162461bcd60e51b815260206004820152602660248201527f416464726573733a2064656c65676174652063616c6c20746f206e6f6e2d636f6044820152651b9d1c9858dd60d21b6064820152608401610984565b600080846001600160a01b03168460405161248b9190612de3565b600060405180830381855af49150503d80600081146124c6576040519150601f19603f3d011682016040523d82523d6000602084013e6124cb565b606091505b50915091506124f38282604051806060016040528060278152602001612e53602791396124fc565b95945050505050565b6060831561250b575081612515565b612515838361251c565b9392505050565b81511561252c5781518083602001fd5b8060405162461bcd60e51b81526004016109849190612dff565b6001600160a01b0381168114610a2157600080fd5b600080600080600080600060e0888a03121561257657600080fd5b87359650602088013561258881612546565b9550604088013561259881612546565b9450606088013563ffffffff811681146125b157600080fd5b935060808801356001600160801b03811681146125cd57600080fd5b925060a08801356125dd81612546565b8092505060c0880135905092959891949750929550565b60006020828403121561260657600080fd5b813561251581612546565b8015158114610a2157600080fd5b6000806040838503121561263257600080fd5b82359150602083013561264481612611565b809150509250929050565b60006020828403121561266157600080fd5b5035919050565b6000806040838503121561267b57600080fd5b82359150602083013561264481612546565b634e487b7160e01b600052604160045260246000fd5b600080604083850312156126b657600080fd5b82356126c181612546565b9150602083013567ffffffffffffffff808211156126de57600080fd5b818501915085601f8301126126f257600080fd5b8135818111156127045761270461268d565b604051601f8201601f19908116603f0116810190838211818310171561272c5761272c61268d565b8160405282815288602084870101111561274557600080fd5b8260208601602083013760006020848301015280955050505050509250929050565b60008060006060848603121561277c57600080fd5b8335925060208401359150604084013561279581612611565b809150509250925092565b602080825282518282018190526000919060409081850190868401855b828110156127ed57815180516001600160a01b0316855286015115158685015292840192908501906001016127bd565b5091979650505050505050565b6000806000806060858703121561281057600080fd5b84359350602085013567ffffffffffffffff8082111561282f57600080fd5b818701915087601f83011261284357600080fd5b81358181111561285257600080fd5b88602082850101111561286457600080fd5b95986020929092019750949560400135945092505050565b6000806040838503121561288f57600080fd5b50508035926020909101359150565b60008083601f8401126128b057600080fd5b50813567ffffffffffffffff8111156128c857600080fd5b6020830191508360208260051b85010111156128e357600080fd5b9250929050565b6000806000604084860312156128ff57600080fd5b83359250602084013567ffffffffffffffff81111561291d57600080fd5b6129298682870161289e565b9497909650939450505050565b6000806000806060858703121561294c57600080fd5b84359350602085013567ffffffffffffffff81111561296a57600080fd5b6129768782880161289e565b909450925050604085013561298a81612611565b939692955090935050565b634e487b7160e01b600052602160045260246000fd5b601181106129c957634e487b7160e01b600052602160045260246000fd5b9052565b8c815264ffffffffff8c16602082015261018081016129ef604083018d6129ab565b991515606082015297151560808901526001600160a01b0396871660a089015263ffffffff9590951660c088015292851660e08701526001600160801b0391821661010087015216610120850152821661014084015216610160909101529392505050565b600060208284031215612a6657600080fd5b813561251581612611565b634e487b7160e01b600052601160045260246000fd5b8181038181111561164757611647612a71565b600060018201612aac57612aac612a71565b5060010190565b6020808252602c908201527f46756e6374696f6e206d7573742062652063616c6c6564207468726f7567682060408201526b19195b1959d85d1958d85b1b60a21b606082015260800190565b6020808252602c908201527f46756e6374696f6e206d7573742062652063616c6c6564207468726f7567682060408201526b6163746976652070726f787960a01b606082015260800190565b602080825260169082015275656d706c6f7965722064656c6567617465206f6e6c7960501b604082015260600190565b64ffffffffff828116828216039080821115612b9957612b99612a71565b5092915050565b64ffffffffff818116838216019080821115612b9957612b99612a71565b6020810161164782846129ab565b6020808252600a90820152696e6f742061637469766560b01b604082015260600190565b6000816000190483118215151615612c0a57612c0a612a71565b500290565b600082612c2c57634e487b7160e01b600052601260045260246000fd5b500490565b8082018082111561164757611647612a71565b600060208284031215612c5657600080fd5b815161251581612611565b88815287602082015260e060408201528560e082015260006101008789828501376000838901820152606083019690965250608081019390935260a08301919091526001600160a01b031660c0820152601f909201601f1916909101019392505050565b600060208284031215612cd757600080fd5b81516011811061251557600080fd5b84815260208082018590526060604083018190528201839052600090849060808401835b86811015612d38578335612d1d81612546565b6001600160a01b031682529282019290820190600101612d0a565b5098975050505050505050565b634e487b7160e01b600052603260045260246000fd5b600060208284031215612d6d57600080fd5b5051919050565b6020808252602b908201527f496e697469616c697a61626c653a20636f6e7472616374206973206e6f74206960408201526a6e697469616c697a696e6760a81b606082015260800190565b60005b83811015612dda578181015183820152602001612dc2565b50506000910152565b60008251612df5818460208701612dbf565b9190910192915050565b6020815260008251806020840152612e1e816040850160208701612dbf565b601f01601f1916919091016040019291505056fe360894a13ba1a3210667c828492db98dca3e2076cc3735a920a3ca505d382bbc416464726573733a206c6f772d6c6576656c2064656c65676174652063616c6c206661696c6564a264697066735822122008932a64015531aba6fd772ab30953e632581f599d99d977a1cc17a41bd38c5d64736f6c63430008100033",
    "sourcePath": "/home/main/Documents/Code/chainpact/contracts/GigPactUpgradeable/GigPactUpgradeable.sol",
    "compiler": {
        "name": "solc",
        "version": "0.8.16+commit.07a7930e"
    },
    "functionHashes": {
        "acceptOrRejectArbitrators(bytes32,bool)": "442e5e60",
        "addExternalPayClaim(bytes32,uint256,bool)": "697a8715",
        "approvePayment(bytes32)": "4553c7c9",
        "arbitratorResolve(bytes32)": "4844a1f9",
        "createPact(bytes32,address,address,uint32,uint128,address,bytes32)": "17a10c8b",
        "delegatePact(bytes32,address[],bool)": "c4c901f6",
        "dispute(bytes32,uint256)": "a1235847",
        "externalDocumentHash(bytes32)": "422427f2",
        "fNf(bytes32,uint256)": "b0acafb8",
        "getArbitratrators(bytes32)": "711eba0c",
        "initialize(uint256,address)": "da35a26f",
        "isEmployeeDelegate(bytes32,address)": "a3ad3927",
        "isEmployerDelegate(bytes32,address)": "4a8d1da0",
        "isParty(bytes32,address)": "828e1576",
        "owner()": "8da5cb5b",
        "pactData(bytes32)": "d3cd2324",
        "pauseUnpausePanic(bool)": "edb0beee",
        "payData(bytes32)": "e70996f2",
        "proposeArbitrators(bytes32,address[])": "a7dc8bc0",
        "proxiableUUID()": "52d1902d",
        "reclaimStake(bytes32,address)": "e58bb121",
        "renounceOwnership()": "715018a6",
        "signPact(bytes32,bytes,uint256)": "7bca74bf",
        "startPausePact(bytes32,bool)": "370969a6",
        "terminate(bytes32)": "87b1002a",
        "transferOwnership(address)": "f2fde38b",
        "upgradeTo(address)": "3659cfe6",
        "upgradeToAndCall(address,bytes)": "4f1ef286"
    },
    "gasEstimates": {
        "creation": {
            "codeDepositCost": "2390200",
            "executionCost": "infinite",
            "totalCost": "infinite"
        },
        "external": {
            "acceptOrRejectArbitrators(bytes32,bool)": "infinite",
            "addExternalPayClaim(bytes32,uint256,bool)": "infinite",
            "approvePayment(bytes32)": "infinite",
            "arbitratorResolve(bytes32)": "infinite",
            "createPact(bytes32,address,address,uint32,uint128,address,bytes32)": "infinite",
            "delegatePact(bytes32,address[],bool)": "infinite",
            "dispute(bytes32,uint256)": "infinite",
            "externalDocumentHash(bytes32)": "2473",
            "fNf(bytes32,uint256)": "infinite",
            "getArbitratrators(bytes32)": "infinite",
            "initialize(uint256,address)": "infinite",
            "isEmployeeDelegate(bytes32,address)": "2695",
            "isEmployerDelegate(bytes32,address)": "2674",
            "isParty(bytes32,address)": "5001",
            "owner()": "2391",
            "pactData(bytes32)": "13697",
            "pauseUnpausePanic(bool)": "26775",
            "payData(bytes32)": "4965",
            "proposeArbitrators(bytes32,address[])": "infinite",
            "proxiableUUID()": "infinite",
            "reclaimStake(bytes32,address)": "infinite",
            "renounceOwnership()": "infinite",
            "signPact(bytes32,bytes,uint256)": "infinite",
            "startPausePact(bytes32,bool)": "infinite",
            "terminate(bytes32)": "infinite",
            "transferOwnership(address)": "infinite",
            "upgradeTo(address)": "infinite",
            "upgradeToAndCall(address,bytes)": "infinite"
        },
        "internal": {
            "_authorizeUpgrade(address)": "infinite"
        }
    }
}